:020000040800F2
:100000008875002049010008E9570008E9570008F1
:10001000E9570008E9570008E95700080000000008
:10002000000000000000000000000000E957000888
:10003000E957000800000000E9570008D59E0008B5
:100040006301000863010008630100086301000800
:1000500063010008630100086301000863010008F0
:10006000630100086301000863010008152100080E
:100070003521000855210008752100089521000848
:10008000C1210008ED2100086301000847D10008E4
:100090003DD2000863010008630100086301000805
:1000A00063010008630100086301000863010008A0
:1000B0006301000863010008630100086301000890
:1000C0006301000863010008630100086301000880
:1000D0006301000825A20008E5A2000863010008EA
:1000E000630100086301000839D1000863010008BA
:1000F0006301000863010008630100086301000850
:10010000630100086301000863010008630100083F
:10011000630100086301000863010008630100082F
:100120000D2200082D22000851220008712200082B
:10013000DFF810D000F018FA00480047E1F400089A
:10014000AFF30080887500200648804706480047C6
:10015000FEE7FEE7FEE7FEE7FEE7FEE7FEE7FEE777
:10016000FEE7FEE7499F0008310100082DE9F05F36
:100170000546002092469B46884606468146402416
:100180001BE0284641464746224600F07FF9534689
:100190005A46C01A914110D311461846224600F023
:1001A00066F92D1A67EB01084F462246012000210F
:1001B00000F05DF917EB00094E41201EA4F1010487
:1001C000DFDC484631462A464346BDE8F09F40EA18
:1001D00001039B0703D009E008C9121F08C0042AC5
:1001E000FAD203E011F8013B00F8013B521EF9D2AC
:1001F0007047D2B201E000F8012B491EFBD27047D4
:100200000022F6E710B513460A4604461946FFF7E2
:10021000F0FF204610BD30B505462A460B4612F8C1
:10022000010B13F8014B08B1A042F8D01CB1002813
:1002300002D06D1CF1E7284630BD10B5044604E03D
:100240000B7800F8013B03B1491C521EF8D220463E
:1002500010BD421C10F8011B0029FBD1801A704709
:100260002DE9FE4F81EA030404F0004421F000412F
:1002700000944FF0000B23F0004350EA01045ED0DD
:1002800052EA03045BD0C3F30A54C1F30A552C4469
:10029000A4F2F3340194A0FB0254C1F3130141F41E
:1002A0008011C3F3130343F4801301FB024400FBEA
:1002B000034E840A970A44EA815447EA8357A4FB11
:1002C000076802958D0A05FB07854FEA932C04FB0E
:1002D0000C542705029D4FEA065847EA1637B5EB3E
:1002E00008056EEB070C870E920E47EA811742EA6B
:1002F0008312A7FB0201B6EB0B0164EB00042B0D8C
:1003000043EA0C335E1844EB1C50DA465146E7FBD7
:100310000201C5F313044FEA0B3343EA14534FEAC7
:100320000432019C43EA0603A4F10C040294009CED
:10033000CDE900B400F0C9F803B0BDE8F08F0020AB
:100340000146F9E72DE9F04D81EA030404F0004B82
:1003500021F0004514464FF0000A23F0004150EA16
:10036000050220D054EA01021DD0C5F30A57024607
:10037000C5F31303C1F31300C1F30A5640F480150B
:1003800043F48013A7EB0608101BD64608F2FD388D
:1003900073EB050002D308F1010801E092185B41FC
:1003A000B8F1000F03DA00200146BDE8F08D00200F
:1003B0004FF48011064684460EE0171B73EB0507C9
:1003C00005D3121B63EB050306434CEA010C4908F5
:1003D0004FEA300092185B4150EA0107EDD152EA32
:1003E000030012D082EA040083EA0501084305D025
:1003F000101BAB4106D20122002306E000224FF081
:10040000004302E06FF0010253101AEB06004CEBC0
:10041000085110EB0A0041EB0B01BDE8F04D00F074
:1004200045B80EB540F2334102910021CDE90011EB
:100430000A460B4600F049F803B000BDC1F30A526A
:1004400010B5C1F3130140F2FF3341F480119A4219
:1004500001DA002010BD40F233439A42A2F2334247
:1004600003DC524200F012F810BD904010BD202A6B
:1004700004DB203A00FA02F1002070479140C2F1FB
:10048000200320FA03F3194390407047202A04DB2D
:10049000203A21FA02F00021704721FA02F3D040FD
:1004A000C2F12002914008431946704710B5141E4E
:1004B00073F1000408DA401C41F1000192185B411D
:1004C0001A4301D120F0010010BD2DE9F04D9246F4
:1004D0009B4611B1B1FA81F202E0B0FA80F220320B
:1004E0009046FFF7C4FF04460F4640EA0A0041EA7F
:1004F0000B0153465A46084313D0114653EA0100F4
:1005000019D0C8F140025046FFF7C0FF05460E461D
:10051000504659464246FFF7AAFF084305D001203E
:1005200004E020463946BDE8F08D0020054346EA48
:10053000E0762C4337430A986305E40AA0EB0800F1
:100540000022FD0A44EA47540A3002D50020014641
:10055000E9E7010510196941DDE90845001969411C
:10056000BDE8F04DA2E70000064C074D06E0E0684C
:1005700040F0010394E8070098471034AC42F6D3EA
:10058000FFF7DAFD681E0108881E010870B58C1897
:1005900010F8015B15F0070301D110F8013B2A1197
:1005A00006D110F8012B03E010F8016B01F8016B84
:1005B0005B1EF9D12B0705D40023521E0DD401F880
:1005C000013BFAE710F8013BCB1A921C03E013F849
:1005D000015B01F8015B521EF9D5A142D8D300207E
:1005E00070BD10B5044624B1012C07D0022C15D1E2
:1005F0000AE01021012009F0A9F810E04FF4805121
:10060000022009F04BF80AE01021012009F09EF8C1
:100610004FF48051022009F041F800E000BF00BF14
:1006200010BD0146CAB20B1243EA02207047000017
:1006300010B5002404E0A748005DA7490855641CD4
:10064000A64800888442F6D3A3484068A44948607D
:10065000A14880688860A14800881F280FD0022028
:10066000FFF7BFFF00209C490860487B1A22052144
:1006700009F058F90021012009F036F910BD96481B
:10068000C07B282803D09448C07B2A2816D19248E2
:10069000407C01069048807C41EA00418E48C07C45
:1006A00041EA00208C49097D08438E4908608A4848
:1006B000C17D807D41EA00208B4908608648006842
:1006C0008A4988426FD18448407B894909688842B9
:1006D00007D88148807B012803DB7F48807B102876
:1006E0000DDD0220FFF77DFF7B49487B2422052199
:1006F00009F018F90021012009F0F6F8E8E0764841
:10070000C07B25285FD01BDC15286FD00EDC0828A5
:100710006DD006DC00285BD0032830D0042867D1D8
:1007200076E00A2873D01228F9D12DE01A380A2869
:100730005ED2DFE800F0392EB17D33B1B1B1B14303
:100740008A286FD00EDC552867D006DC282844D0D4
:100750002A284ED02F28E2D154E05A2829D08828C0
:10076000DDD176E0A8286DD004DC8F286FD09E28DC
:10077000D5D173E0AA287BD0AF28D0D182E05649EA
:10078000487B07F063FE95E05349487B07F036FD50
:1007900090E05149487B07F06DFE8BE04E49487B65
:1007A00007F068FE86E086E04B49487B07F076FD5F
:1007B00080E04949487B07F067FD7BE04649487B7C
:1007C00007F000FE76E04449487B07F0ADFD71E09C
:1007D0004149487B07F056FE6CE03F49487B42495F
:1007E0000A684049096807F063FD63E01BE024E004
:1007F00052E03949487B3C490A683A49096807F0A0
:100800007DFE57E03449487B07F058FE52E02AE06D
:100810003149487B07F0DAFC4CE02F49487B07F070
:1008200011FD47E029E02C49487B07F00BFD41E032
:100830002949487B07F006FD3CE02749487B07F043
:1008400001FD37E02449487B07F0FCFC32E01EE064
:100850000EE02149487B07F0F5FC2BE01E49487B60
:1008600007F0F0FC26E01C49487B07F0EBFC21E098
:100870001949487B07F0E6FC1CE01749487B07F064
:10088000E1FC17E01449487B07F0DCFC12E0124958
:10089000487B07F0D7FC0DE00220FFF7A2FE0E49CF
:1008A000487B2022052109F03DF80021012009F0B4
:1008B0001BF800BF0CE00220FFF793FE0649487BBF
:1008C0002022052109F02EF80021012009F00CF862
:1008D00000BFD3E6BC120020FC120020220300203F
:1008E0001C130020240300202803002055534243FA
:1008F0009003002010B5002449E047F6FF70294915
:1009000008602948008800F00F0028490870084650
:100910000078274901EB8000D0F8000C84B204F481
:100920000040C8B12148007801EB8000D0F8000CED
:10093000C0F30E0048F68F7108401C4909781C4A24
:1009400002EB8101C1F8000C18490978491E194AC7
:1009500052F8210080471AE004F08000B8B1134833
:100960000078134901EB8000D0F8000C48F60F71B5
:1009700008400E4909780E4A02EB8101C1F8000CCB
:100980000A490978491E0C4A52F821008047054857
:10099000006880B20449088000F400400028ACD10F
:1009A00010BD0000445C0040540300203C040020C3
:1009B00000500040740300205803002008B50020B8
:1009C000009022E19748008800F00F0096490870D7
:1009D0000846007800287CD1944800689449088033
:1009E0000846008800F0300092490880904800884E
:1009F00000F440508E4908808C4909684BF6BF725C
:100A000001EA020080F4005080F0200040F4004130
:100A100041F08001854A11608248008800F0100092
:100A200090BB1046006848F60F71084011460860F8
:100A300004F01EFF7D4909684BF6BF7201EA02000F
:100A40007B49098801F4805109B180F480507849CC
:100A5000098801F4005109B180F4005075490988F2
:100A600001F0100109B180F010007249098801F00D
:100A7000200109B180F0200081B241F4004141F031
:100A800080016A4A116008BDFFE76848006880B2CB
:100A90000090BDF8000000F40060B0B36348006847
:100AA000C0F30E0048F68F7108406049086008F0F6
:100AB00057FF5E4909684BF6BF7201EA02005C49C4
:100AC000098801F4805109B180F48050584909889F
:100AD00000E056E001F4005109B180F4005055499E
:100AE000098801F0100109B180F01000514909880E
:100AF00001F0200109B180F0200081B241F40041F1
:100B000041F08001494A1160BDE7FFE7BDF80000F0
:100B100000F40040002878D044480068C0F30E007C
:100B200048F68F7108404149086006F075FD3F495D
:100B300009684BF6BF7201EA02003D49098801F4D9
:100B4000805109B180F480503949098801F400517D
:100B500009B180F400503749098801F0100109B14A
:100B600080F010003349098801F0200109B180F0BC
:100B7000200081B241F4004141F080012B4A116014
:100B800081E7294800782C4901EB8000D0F8000C5F
:100B900080B20090BDF8000000F40040C0B12248CF
:100BA000007801EB8000D0F8000CC0F30E0048F68E
:100BB0008F7108401C4909781F4A02EB8101C1F876
:100BC000000C19490978491E1C4A52F82100804737
:100BD000BDF8000000F08000B8B113480078164955
:100BE00001EB8000D0F8000C48F60F7108400E4968
:100BF0000978114A02EB8101C1F8000C0A49097811
:100C0000491E0F4A52F821008047084844300068C6
:100C100080B20449088000F4004000287FF4D2AE7E
:100C200000BF30E7540300203C040020005C00407B
:100C300050040020520400200050004074030020A3
:100C40005803002000B50246507800F008F803462B
:100C5000107800F004F803EB0010C0B200BD0146AC
:100C6000A1F16100002802D40A30C0B27047A1F19E
:100C70004100002802D40A30C0B2F7E7A1F13000E9
:100C8000C0B2F3E70B4A02EB8001D1F8001C01F47B
:100C9000804171B102EB8001D1F8001C48F68F72DF
:100CA00011404CF280021143024B03EB8002C2F868
:100CB000001C7047005000400B4A02EB8001D1F845
:100CC000001C01F0400171B102EB8001D1F8001C61
:100CD00048F68F72114048F2C0021143024B03EBF9
:100CE0008002C2F8001C70470050004000200649F6
:100CF0000870487005490870054908600549086092
:100D000005490860704700005C0400205E04002074
:100D1000600400206404002068040020084A02EBFC
:100D20008001D1F8001C48F68F62114048F2800221
:100D30001143034B03EB8002C2F8001C7047000014
:100D40000050004070B505460E46287808B90124C9
:100D500000E02C78012C02D0022C0CD105E00120FF
:100D60000849087006F074FE07E002200549087083
:100D700006F00EFE01E0002400BF00BF34704FF00B
:100D8000011070BDC413002030B502460B46107828
:100D9000547840EA04210B4800680B4CB0FBF4F097
:100DA000801C0324B0FBF4F041430846044600BF16
:100DB00000BF651E2C1EFCD100BF00201870034828
:100DC00030BD00004802002040420F000100020038
:100DD00010B5044600200449087006F00DFE0020FE
:100DE0002070012010BD0000C413002030B5024661
:100DF0001546521C12F8014B0BE012F8013B03F0B0
:100E0000020020B103F0100010B1121D00E0121D0D
:100E1000641E002CF1D1002008704870501B0004A3
:100E2000801C30BD70B504460D46207810B10128F5
:100E300010D107E0627802F001000B4A12681168D5
:100E400088470BE0627802F00100074A1268516897
:100E5000884703E0FF202870044870BD00BF0020D1
:100E600028700248F9E70000340200200100020067
:100E700010B502460020062A1BD006DC062A30D216
:100E8000DFE802F02F0C0D0E0F16F02A12D0FD2A0B
:100E900014D0FE2A21D0FF2A23D118E022E021E03D
:100EA00020E0114B1C680C601B790B71052019E0C8
:100EB00018E017E017230B70012013E000230B70DC
:100EC00010234B7000238B70CB7004200AE040236A
:100ED0000B7000234B70022004E040230B700120B4
:100EE00000E000BF00BF10BD2D100108F0B50246A4
:100EF0000E4612F8013B124883750025002109E0D7
:100F000012F8014B0E4818304454083020F81150A4
:100F10002544491C9942F3D3002108E008481830C1
:100F2000405C2D1A0648303020F81150491C994277
:100F3000F4D300203070581C0004401CF0BD0000A9
:100F4000C413002070B506460C46124800780228EB
:100F500000D019E031780F48C175C07D0D49897DF9
:100F6000884200DB10E00E2004F038FD04F030FF72
:100F70000546002020706570280AA070280CE070DB
:100F8000280E2071044870BDFF2020704FF0011022
:100F9000F9E70000C4130020050001002DE9F04727
:100FA00004460E46002006F8010B4FF001084FF0F2
:100FB000010914F801AB14E014F8017B3246214614
:100FC000384604F0D9FF07F03F0505B94025E81D74
:100FD000C5082C44681C804407F0800008B12E44EA
:100FE000A944BAF10000AAF1010AE5D1484668F324
:100FF0001F40BDE8F08700002DE9F04F87B005469F
:101000000C4606950020049000260594A41CE44993
:1010100008708146039015F8011BE248C175C07D38
:10102000E049897D884200DBABE115F801BB4AE16C
:1010300015F8017B07F0010008B10B2000E00A2041
:10104000824607F00200002879D00398002846D095
:10105000D448B0F80A80D14514D107F0100088B9FF
:1010600000BF6946384604F0D7FF0646022E24D159
:10107000B8F10000A8F101081FD0C9480078002885
:10108000EFD01AE0B9F10A0F04D04FF00A09484630
:1010900004F0A4FC00BF69460E2004F0BDFF064624
:1010A000022E08D1B8F10000A8F1010803D0BC4815
:1010B00000780028EFD000200390012E00D006E138
:1010C000009804F8010B0098000A04F8010B00983E
:1010D000000C04F8010B0098000E04F8010B07F057
:1010E0001000002860D02878697840EA0120A978AB
:1010F00040EA0140E97840EA016002902D1DA948CC
:1011000080890190D14503D0D146484604F066FC61
:10111000A448B0F80A8000BF0021384604F07CFFE4
:101120000646022E08D1B8F10000A8F1010803D04C
:101130009B4800780028EFD0012E01D0C7E056E090
:1011400000BF9848B0F80A8000BF6946384604F0EE
:1011500063FF0646022E08D1B8F10000A8F101088D
:1011600003D08F4800780028EFD0012E00D00EE089
:101170008C480069009908400299884207D001987C
:10118000411E019118B1864800780028D9D000BFCF
:1011900084480069009908400299884201D046F0CD
:1011A0001006012E22D092E0039800281ED1D145CE
:1011B00003D0D146484604F011FC7A48B0F80A80C2
:1011C00000BF0021384604F027FF0646022E08D152
:1011D000B8F10000A8F1010803D071480078002898
:1011E000EFD0012E00D072E00120039062E003985E
:1011F00078B3B9F10A0F04D04FF00A09484604F059
:10120000EDFB6848B0F80A8000BF69460E2004F084
:1012100003FF0646022E08D1B8F10000A8F101082C
:1012200003D05F4800780028EFD0012E00D04EE0B8
:10123000009804F8010B0098000A04F8010B0098CC
:10124000000C04F8010B0098000E04F8010B0020BC
:1012500003902878697840EA0120A97840EA0140A3
:10126000E97840EA016000902D1D07F0200020B1D0
:101270004C480099016101261CE0D14503D0D146BC
:10128000484604F0ABFB4748B0F80A8000BF694607
:10129000384604F0C1FE0646022E08D1B8F100001F
:1012A000A8F1010803D03E4800780028EFD0012EB5
:1012B00000D00CE00498401C04903948007800B13C
:1012C00005E0ABF1010BBBF1000F7FF4B1AE00BF45
:1012D0000CE015F8017B07F0020020B107F01000C8
:1012E00010B12D1D00E02D1DABF1010BBBF1000F66
:1012F000EFD1012E44D1B9F10A0F04D04FF00A0901
:10130000484604F06BFB039830B32648B0F80A80D7
:1013100000BF69460E2004F07FFE0646022E08D16B
:10132000B8F10000A8F1010803D01D48007800289A
:10133000EFD0012E00D024E0009804F8010B0098B3
:10134000000A04F8010B0098000C04F8010B009847
:10135000000E04F8010B13E01248B0F80A8000BF39
:1013600000210E2004F058FE0646022E08D1B8F1E6
:101370000000A8F1010803D0094800780028EFD048
:1013800000BF0498C1B20598017005984670059891
:10139000211A0698281A41EA004007B0BDE8F08FEC
:1013A00054040020C41300202DE9FC5F04460D46C0
:1013B0004FF0000B0026A846ED1C00206049087085
:1013C00014F8011B5F48C175C07D5E49897D884264
:1013D00000DBA9E02078617840EA0127A41C07B966
:1013E000A2E014F801AB0AF0010008B10B2000E004
:1013F0000A200090009804F0F1FA0AF00200002898
:101400004DD05048B0F80A9000BF0021504604F07B
:1014100003FE0646022E08D1B9F10000A9F1010928
:1014200003D0474800780028EFD0012E00D07BE0A1
:1014300030E03FB900980A2802D00A2004F0CEFA22
:101440004FF00E0A3F48B0F80A9000BF01A950467D
:1014500004F0E2FD0646022E08D1B9F10000A9F120
:10146000010903D0364800780028EFD0012E00D0C3
:101470005AE0019805F8010B0198000A05F8010BE4
:101480000198000C05F8010B0198000E05F8010BFE
:101490000BF1010B381EA7F10107CAD143E024E08C
:1014A0002078617840EA0120A17840EA0140E178A3
:1014B00040EA01600190241D2248B0F80A9000BF64
:1014C00001A9504604F0A8FD0646022E08D1B9F144
:1014D0000000A9F1010903D0194800780028EFD0D5
:1014E000012E00D020E00BF1010B381EA7F10107FF
:1014F000D6D100980A2802D00A2004F06FFA1148C9
:10150000B0F80A9000BF00210E2004F085FD0646C9
:10151000022E08D1B9F10000A9F1010903D0084851
:1015200000780028EFD000BF88F800B04FEA1B20F9
:1015300088F8010088F80260A5EB0800BDE8FC9F70
:1015400054040020C413002070B504460D462178D1
:101550000F48C175C07D0E49897D884203DBFF209D
:101560002870012070BD082004F038FA6078A17856
:1015700040EA0120E17840EA0140217940EA016631
:10158000304605F0FBF8002028700120EAE7000053
:10159000C413002070B505460E462878802807D36E
:1015A00028789F2804D83146284600F0AEF870BD50
:1015B000287806F8010B15F8010B1D2871D2DFE819
:1015C00000F00F181E245E646A9A71292F9A9A9A65
:1015D0009A9A343A40464C5258777D83898F9400CA
:1015E0002878711CFFF744FC0446347004F10210A3
:1015F000DDE731462846FFF715FC044681E0314619
:101600002846FFF79FFB04467BE03046FFF7E0FBF0
:10161000044676E031462846FFF7B6FB044670E004
:10162000304600F0B2F804466BE03146284600F040
:10163000A7FB044665E03146284600F065FB0446FA
:101640005FE03146284600F09BFC044659E03146F5
:10165000284600F0A3F8044653E031462846FFF739
:101660009DFC04464DE031462846FFF73FFC04460A
:1016700047E031462846FFF765FC044641E0314625
:10168000284600F00DFD04463BE03146284600F0B8
:10169000B3FC044635E03146284600F0CFFC044652
:1016A0002FE028E03146284600F012FD044628E0ED
:1016B0003146284607F026FF044622E031462846F8
:1016C00007F0C0FE04461CE03146284607F0F4FD52
:1016D000044616E03146284607F01CFE044610E09A
:1016E000304607F0E7FE04460BE03146284607F097
:1016F00041FE044605E0FF2006F8010C4FF0011002
:1017000055E700BF04F1011051E710B502464FF054
:101710000110137801F8013B12F8013B803B202BAC
:1017200031D2DFE803F0101112131415161718192F
:101730001A1B1C1D1E1F2021222324252627282991
:101740002A2B2C2D2E2F1EE01DE01CE01BE01AE0A2
:1017500019E018E017E016E015E014E013E012E0DD
:1017600011E010E00FE00EE00DE00CE00BE00AE00D
:1017700009E008E007E006E005E004E003E002E03D
:1017800001E000E000BF00BF10BD014600BF012026
:1017900048700020087002207047000010B5024613
:1017A000137803F00300401C054C2075C3F380043C
:1017B00003484475002008704FF0011010BD000070
:1017C000C41300202DE9F04F87B005460C4606955E
:1017D000002005900026A246A41CE049087083461C
:1017E00004906D1C15F8019B50E115F8017B07F082
:1017F000020000287ED0BBF1000F3DD0D848B0F8E1
:101800000A8007F01100012811D100BF01A9384654
:1018100006F070FF0646022E1CD1B8F10000A8F1B8
:10182000010817D0CD4800780028EFD012E000BFA3
:1018300001A90E2006F05EFF0646022E08D1B8F17F
:101840000000A8F1010803D0C44800780028EFD0B8
:101850004FF0000B012E00D01CE1019804F8010BA1
:101860000198000A04F8010B0198000C04F8010B20
:101870000198000E04F8010B07F0100000285ED05C
:101880002878697840EA0120A97840EA0140E9789F
:1018900040EA016003902D1DB1488089029007F055
:1018A0000100B0B1AE48B0F80A8000BF0021384650
:1018B00006F020FF0646022E08D1B8F10000A8F17C
:1018C000010803D0A54800780028EFD0012E00D0F1
:1018D000E0E000BFA248B0F80A8000BF01A9384686
:1018E00006F008FF0646022E0AD1B8F10000A8F162
:1018F000010800E069E003D0984800780028EDD0A6
:10190000012E00D00EE09648006901990840039925
:10191000884207D00298411E029118B18F48007882
:101920000028D7D000BF8E4800690199084003996C
:10193000884201D046F01006012E43D0AAE0884824
:10194000B0F80A8007F00100C8B1BBF1000F39D12F
:1019500000BF0021384606F0CDFE0646022E08D113
:10196000B8F10000A8F1010803D07C4800780028F5
:10197000EFD0012E00D08DE04FF0010B22E000BF30
:1019800001A9384606F0B6FE0646022E08D1B8F187
:101990000000A8F1010803D0704800780028EFD0BB
:1019A000012E00D076E0019804F8010B0198000A9E
:1019B00004F8010B0198000C04F8010B0198000ECB
:1019C00004F8010B0020049057E0BBF1000F27D072
:1019D0006348B0F80A8000BF01A90E2006F08AFE15
:1019E0000646022E08D1B8F10000A8F1010803D084
:1019F0005A4800780028EFD0012E00D04AE0019824
:101A000004F8010B0198000A04F8010B0198000C7E
:101A100004F8010B0198000E04F8010B4FF0000BC5
:101A20002878697840EA0120A97840EA0140E978FD
:101A300040EA016001902D1D07F0200020B14848C8
:101A400001990161012618E04548B0F80A8000BFFD
:101A500001A9384606F04EFE0646022E08D1B8F11E
:101A60000000A8F1010803D03C4800780028EFD01E
:101A7000012E00D00EE0012004900598401C059036
:101A80003648007800B105E0A9F10109B9F1000F6D
:101A90007FF4ABAE00BF0CE015F8017B07F002004D
:101AA00020B107F0100010B12D1D00E02D1DA9F18F
:101AB0000109B9F1000FEFD1012E3FD1BBF1000FA9
:101AC00026D02748B0F80A8000BF01A90E2006F0F2
:101AD00011FE0646022E08D1B8F10000A8F1010857
:101AE00003D01E4800780028EFD0012E00D026E059
:101AF000019804F8010B0198000A04F8010B019801
:101B0000000C04F8010B0198000E04F8010B15E01D
:101B1000049898B11248B0F80A8000BF00210E2046
:101B200006F0E8FD0646022E08D1B8F10000A8F143
:101B3000010803D0094800780028EFD000BF0598BD
:101B40008AF800008AF80160A4EB0A010698281AB6
:101B500041EA004007B0BDE8F08F000054040020C7
:101B6000C41300202DE9F84F04460D464FF0000B3A
:101B70000026A846ED1C002056490870641C2078F9
:101B8000617840EA012AA41CBAF1000F00D195E067
:101B900014F8017B07F0020000284FD007F0010085
:101BA000B0B14D48B0F80A9000BF0021384606F0A9
:101BB000A1FD0646022E08D1B9F10000A9F10109E4
:101BC00003D0444800780028EFD0012E00D075E003
:101BD0002EE0BAF1000F03D107F0010000B10E278B
:101BE0003D48B0F80A9000BF6946384606F082FDCD
:101BF0000646022E08D1B9F10000A9F1010903D06F
:101C0000344800780028EFD0012E00D056E000982C
:101C100005F8010B0098000A05F8010B0098000C6C
:101C200005F8010B0098000E05F8010B0BF1010BF4
:101C3000BAF10000AAF1010ACBD13EE024E02078FD
:101C4000617840EA0120A17840EA0140E17840EA69
:101C500001600090241D2048B0F80A9000BF69463A
:101C6000384606F047FD0646022E08D1B9F10000BD
:101C7000A9F1010903D0174800780028EFD0012E00
:101C800000D01BE00BF1010BBAF10000AAF1010A30
:101C9000D5D11148B0F80A9000BF00210E2006F0FF
:101CA00029FD0646022E08D1B9F10000A9F101096B
:101CB00003D0084800780028EFD000BF88F800B0B3
:101CC0004FEA1B2088F8010088F80260A5EB0800A5
:101CD000BDE8F88F54040020C413002038B5044632
:101CE0000D466078A17840EA0120E17840EA0140A1
:101CF000217940EA016000906946002006F0FAFC74
:101D000000202870012038BD30B502460C461078FE
:101D1000557840EA0520957840EA0540D57840EAB4
:101D200005631BB9FF202070124830BD12480068BF
:101D3000B3EB900F04D30120104D6870686014E07D
:101D400000200E4D6870581E0B4D2D6800EB55009D
:101D5000B0FBF3F1022905D9891E881C0325B0FBCD
:101D6000F5F100E0012105484160002020700148A4
:101D7000DBE700000100040048020020C41300203B
:101D80002DE9F0470646884634787578B078F178C2
:101D900040EA0120317940EA0140717940EA016767
:101DA00005F00100D8B104F0010058B100BF6D4842
:101DB000406840F000706B49486008156A49086047
:101DC00000BF0CE000BF6748406840F00070654904
:101DD000486008156449091D086000BF00BF05F090
:101DE000020028B304F0020080B100BF5D484068E3
:101DF00040F000705B4948600846406840F0007061
:101E0000486048155849086000BF11E000BF5548B8
:101E1000406840F00070534948600846406840F010
:101E20000070486048155049091D086000BF00BF98
:101E300005F0040070B1C4F3870000F0010119B18E
:101E400040214A4A116003E04021484A121D1160B6
:101E500000BF00BF05F0200018B1C4F3471000BF59
:101E600000BF05F0800018B1C4F3C7100EF048FDA4
:101E7000002F56D03E48874200D9074600BF0020B9
:101E80004FF0E02188613B4800683B49B0FBF1F02E
:101E900078434FF0E02148610520086100BF00BF92
:101EA00005F0010020B105F009FC604000B128E018
:101EB00005F0020028B105F011FD80EA540000B1E0
:101EC0001FE005F0040028B105F030FD80EA940021
:101ED00000B116E005F0200028B100BF002080EA24
:101EE000541000B10DE005F0800048B100BF1E485D
:101EF0000838006800F0010080EAD41000B100E06A
:101F000007E000BF4FF0E0200069C0F30040002868
:101F1000C6D000BF00BF00204FF0E021086100BF25
:101F200000BF05F0CBFB814605F0D8FC49EA40092B
:101F300005F0FCFC49EA80010C4808380068C0F351
:101F4000C01041EAC000002140EA411106480838AB
:101F5000006800F0010041EAC01488F8004007481A
:101F6000BDE8F0870000014010080140100C01405E
:101F7000C0C62D004802002040420F0001000600AC
:101F800070B504460E4614F8015B0DB94FF4807528
:101F90002146284607F03AF900203070E81DC508B0
:101FA000681C0004401C70BD10B500200F4908706B
:101FB00048700F48006840080E49B0FBF1F0801EE1
:101FC0000A494860002008726421084841810021C4
:101FD000818101610120054908750021034841758F
:101FE00000200249887505F007FD10BDC4130020CC
:101FF000480200208096980070B505460E460E48AF
:102000000078012802D002280CD105E0314628468C
:10201000FFF7D8FB04460BE031462846FEF7ECFFFD
:10202000044605E031462846FEF7E0FE044600BFC0
:1020300000BF204670BD0000C413002070B50546E7
:102040000E4616480078012802D002280CD105E07F
:1020500031462846FFF786FD04460BE03146284608
:10206000FFF7A2F9044605E0002030707070B070F0
:10207000032400BF00BFE87800F0020010B144F470
:10208000802408E06878A97840EA0120042101EB67
:10209000800044EA0044204670BD0000C4130020C4
:1020A00002461078084B18725078937840EA032360
:1020B00005484381D078137940EA0323024883819D
:1020C0000020087001487047C4130020010005007B
:1020D00070B506460D460D480078012802D002284A
:1020E0000CD105E029463046FFF7F8FD044609E02B
:1020F00029463046FFF728FA044603E0FF202870FF
:10210000012400BF00BF44F4A02070BDC413002010
:102110007047000010B50548006800F00F04034840
:1021200044602046FFF7F4FF10BD000000000240AD
:102130007047000010B505480068C0F30314200183
:10214000024948602046FFF7F3FF10BD000002403F
:102150007047000010B505480068C0F30324200252
:10216000024948602046FFF7F3FF10BD000002401F
:102170007047000010B505480068C0F30334200321
:10218000024948602046FFF7F3FF10BD00000240FF
:102190007047000010B505480068C0F303442004F0
:1021A000024948602046FFF7F3FF10BD00000240DF
:1021B00010B50446014809F0F3F910BD2C120108CE
:1021C00010B505480068C0F3035420050249486073
:1021D0002046FFF7EDFF10BD0000024010B5044699
:1021E000014809F07DFB10BD2C12010810B505480F
:1021F0000068C0F303642006024948602046FFF7E8
:10220000EDFF10BD000002407047000010B505480A
:10221000006800F00F040348001D04602046FFF72B
:10222000F3FF10BD000402407047000010B50648DF
:102230000068C0F3031420010349091D086020460B
:10224000FFF7F2FF10BD00000004024070470000DD
:1022500010B506480068C0F3032420020349091D95
:1022600008602046FFF7F2FF10BD000000040240A6
:1022700010B50C480068C0F3033434B12003094999
:10228000091D0860204600F00FF806480068C0F3FA
:10229000034434B120040349091D0860204600F0BE
:1022A00004F810BD000402407047704770B5054641
:1022B0000C46012D02D0022D71D171E06A484069AF
:1022C00040F0010068494861082C60D2DFE804F062
:1022D0005F04101C293643500020644988600F2099
:1022E00048600B2004F0DCFE0B2004F0F1FE4EE011
:1022F00000205E49C861F02048600C2004F0D0FE48
:102300000C2004F0E5FE42E00020584908634FF439
:10231000706048600D2004F0C3FE0D2004F0D8FE6C
:1023200035E00020514948644FF4704048600E2069
:1023300004F0B6FE0E2004F0CBFE28E000204B494E
:1023400088654FF4702048600F2004F0A9FE0F202C
:1023500004F0BEFE1BE000204449C8664FF4700044
:102360004860102004F09CFE102004F0B1FE0EE046
:1023700000203E49803108604FF070603B49486062
:10238000112004F08DFE112004F0A2FE00BF00BF5A
:102390000120A0403649097808433549087061E0BA
:1023A0003148406940F002002F494861062C50D264
:1023B000DFE804F04F03101F2F3F00202D49086075
:1023C0000F20091F0860382004F06AFE382004F04E
:1023D0007FFE3EE00020274914310860F0202549A7
:1023E000091F0860392004F05BFE392004F070FEFC
:1023F0002FE000201F49283108604FF470601D490C
:10240000091F08603A2004F04BFE3A2004F060FEF9
:102410001FE0002017493C3108604FF47040154917
:10242000091F08603B2004F03BFE3B2004F050FEF7
:102430000FE000200F49503108604FF470200D4923
:10244000091F08603B2004F02BFE3B2004F040FEF7
:1024500000BF00BF0120A040074909780843064992
:10246000087000BF00BF70BD0010024000000240B5
:10247000A704002008040240A804002070B5054607
:102480000C46012D02D0022D4ED14EE04F4800786F
:1024900000B970BD082C37D2DFE804F036040B1207
:1024A0001920272E0B2004F007FE002048498860E1
:1024B0002AE00C2004F000FE00204549C86123E01A
:1024C0000D2004F0F9FD0020414908631CE00E20B6
:1024D00004F0F2FD00203E49486415E00F2004F0AE
:1024E000EBFD00203A4988650EE0102004F0E4FD81
:1024F00000203749C86607E0112004F0DDFD002008
:1025000033498031086000BF00BF0120A0402F493F
:10251000097881432D480170007828B92D48406919
:1025200020F001002B4948614CE02B48007800B9AD
:10253000AFE7062C35D2DFE804F034030A121A277D
:10254000382004F0B9FD00202449086029E0392032
:1025500004F0B2FD002021491431086021E03A2046
:1025600004F0AAFD00201D492831086019E01A482E
:10257000007800F0200010B93B2004F09DFD002001
:1025800016493C3108600CE01348007800F0100058
:1025900010B93B2004F090FD002010495031086034
:1025A00000BF00BF0120A0400B49097881430A48C1
:1025B0000170007828B90748406920F002000549F9
:1025C000486100BF00BF00BF63E70000A704002010
:1025D0000000024000100240A8040020080402404D
:1025E00000F0805111B10349086001E002494860E0
:1025F00070470000040402400000024021B102685C
:1026000042F00102026004E002684FF6FE731A40D5
:102610000260704701684FF6FE72114001600021B0
:10262000016041608160C1604B49884208D14A49DC
:102630000839496841F00F01474A083A51608AE079
:1026400045491431884208D143490839496841F065
:10265000F001414A083A51607DE03F492831884203
:1026600008D13D490839496841F470613A4A083A4D
:10267000516070E038493C31884208D13649083908
:10268000496841F47041344A083A516063E0324984
:102690005031884208D130490839496841F47021E5
:1026A0002D4A083A516056E02B496431884208D1DE
:1026B00029490839496841F47001274A083A5160AC
:1026C00049E025497831884208D1234908394968C9
:1026D00041F07061204A083A51603CE01F4988424D
:1026E00006D1011F096841F00F01021F116032E09D
:1026F0001A491431884208D11849091F096841F064
:10270000F001164A121F116025E014492831884251
:1027100008D11249091F096841F470610F4A121F5C
:10272000116018E00D493C31884208D10B49091F5E
:10273000096841F47041094A121F11600BE0074912
:102740005031884207D10549091F096841F47021B9
:10275000024A121F1160704708000240080402403C
:102760000146486880B270471AB103680B430360A2
:1027700002E003688B430360704710B500220268D3
:1027800047F6F0739A430C6A8B6823430C69234322
:102790004C6923438C692343CC6923434C6A23430C
:1027A0008C6A23431A430260CB6843600B688360E2
:1027B0004B68C36010BD4160704700002DE9F047D1
:1027C0002848006800F110052E8826480068077A1E
:1027D000D6B9042F18D12448007801280FD1002140
:1027E0002248006880B2801C214A42F81010302034
:1027F0002049088000BF00201B49087003E007271C
:1028000010201C49088027E0AC88A64201D804208B
:1028100000E002200746B44200D93446A0B2A968BD
:1028200088478046002002F081FE8146A2B24946D8
:1028300040460AF007FEA1B2002006F079FF288882
:10284000001B28806888204468803020094908805F
:1028500000020949088000BF024909680F72BDE8FB
:10286000F0870000400400203A040020505C004043
:102870000060004052040020500400202DE9F04187
:102880002848006800F110042688A068C0B1BEB1D5
:10289000A588B54200D93546A8B2A1688847074641
:1028A0002088401B2080608828446080002002F03F
:1028B0001BFE8046AAB24146384605F055F800BFD7
:1028C000208850B14FF44050174908800021084635
:1028D00006F02EFF3020154908802088A188884204
:1028E00004DB03200F490968087218E020880028DB
:1028F00004DD05200B490968087210E0208870B9D2
:10290000062008490968087200210948006880B259
:10291000801C084A42F81010302004490880BDE8A5
:10292000F0810000400400205004002052040020E8
:10293000505C0040006000402DE9F84F9B48006863
:1029400045780027BA46062D1BD1984800680078C4
:1029500000F07F00002813D1944909688878012885
:1029600003D193490968CF690AE0022803D190494D
:1029700009680F6A04E0032802D18D4909684F6A8B
:1029800094E0002D64D189480068408800285FD118
:1029900086480068C08802285AD1844800680079B7
:1029A000002855D181480068007800F07F0028B9E0
:1029B0007E480068808808B97E4F77E07B480068D1
:1029C000007800F07F00012810D178490968487923
:1029D000774909688A6900219047002866D17348C1
:1029E0000068807A002861D0724F5FE06F4800680D
:1029F000007800F07F00022858D16C4800684079C8
:102A000000F00F0669480068407900F070096748D7
:102A10000068407900F0800038B1674901EB86001A
:102A2000D0F8000C00F0300806E0634901EB8600A6
:102A3000D0F8000C00F4405860480078B04235D916
:102A4000B9F1000F32D1B8F1000F2FD0594F2DE05E
:102A5000082D07D155480068007800F07F0028BB9A
:102A6000574F23E00A2D21D150480068007800F02C
:102A70007F0001281AD14D480068807AB0B14B48D8
:102A80000068408890B949480068007970B94748A3
:102A90000068C088012809D1444909684879444937
:102AA00009688A690021904700B9464F57B13F48ED
:102AB0000068A0F812A03D48006887610020B84770
:102AC00000240FE0394A12685078394A12681169B7
:102AD00088470446032C05D1092034490968087247
:102AE000BDE8F88F31480068008A4FF6FF718842D0
:102AF00004D109202D4909680872F1E7022C03D09E
:102B00002A480068008A20B9082028490968087204
:102B1000E6E726480068007800F08000E0B323482C
:102B20000068C088009021480068008A00998842A7
:102B300004D91E4900980968088223E01B480068F0
:102B4000008A1A490968C98888421BDA1748006850
:102B5000008A1749096891F82C10884203DA00208E
:102B6000194908700EE011480068008A1049096888
:102B700091F82C1090FBF1F201FB120010B901202A
:102B8000114908700A48006890F82C10074800683E
:102B90008182FFF713FE07E0FFE70320034909687E
:102BA000087200030949088000BF99E7400400202B
:102BB00044040020019C000800500040A0030020B5
:102BC000859B0008D59B00083A0400205004002093
:102BD000094909684FF47A72B1FBF2F1891C0322AA
:102BE000B1FBF2F1484301460A4600BF00BF531E45
:102BF0001A1EFCD100BF70474802002001E00DF012
:102C0000ADFDFCE710B500240EE00C490A5D16216D
:102C100001EBC401C8B20123194604F057FC1E2081
:102C20000BF0EAFB601CC4B20B2CEEDB4FF47A70A5
:102C30000BF0E2FB04F036FB10BD00002402002084
:102C40001FB5FA48FA498861FF20C861F9A00CF065
:102C500063F9FCA1FC480BF0FCFF002840D1F449CB
:102C6000F9480CF021F900283AD1F149F6480CF066
:102C70001BF9EF4880690290FDF7EBFA0390039887
:102C800020B9EB480930FDF7E4FA00B303980728B0
:102C900009DA01200346E64A0932014600902D2058
:102CA00004F04EFC1BE0002001900290E048806997
:102CB00007220146009001A8FDF7BFFA0120034654
:102CC00001AA014600902D2004F03AFC07E0012003
:102CD0000346DEA2014600902D2004F031FC00BF27
:102CE00000200123DBA2411E00902D2004F028FCCF
:102CF00000200123DAA2014600902D2004F020FCE0
:102D000001200346D9A2014600906E2004F018FC71
:102D100001200346D6A2022100905C2004F010FCA2
:102D20000020D5490860D5490860D549086001F000
:102D30006ABAD4480078002868D1CF4800680128D2
:102D400064D1BB4880690390FDF783FA07285DD9F9
:102D5000002002900390B6488069C8490968084479
:102D600007220146019002A8FDF767FA012000231F
:102D700002AA014600902D2004F0E2FBC048006842
:102D8000401CBF490860BD48006868B90846006833
:102D90004FF4FA61B0FBF1F201FB120020B9B74821
:102DA0000068401CB5490860B54800684FF4FA71E6
:102DB000B0FBF1F201FB120088B99D4880690190D7
:102DC000FDF747FAC01FAD490968884207D9AB48EB
:102DD000006820B1A9480068401CA84908609448D0
:102DE00080690190FDF735FAC01FA449096888423F
:102DF0000BD1A348006841F28831B0FBF1F201FB2E
:102E0000120010B900209D49086000BF06F09EFB2B
:102E1000012875D198480068401C97490860084609
:102E20000068042801D1002008609348006830B190
:102E3000012846D0022873D0032841D1CCE07C4839
:102E400080690390FDF705FA98B100200290039085
:102E50007748806907220146019002A8FDF7EDF945
:102E60000120034602AA014600902D2004F068FBD1
:102E700016E06F480930FDF7ECF948B10120034630
:102E80006B4A0932014600902D2004F059FB07E0FF
:102E9000012003466DA2014600902D2004F050FB56
:102EA0000120034671A2014600906E2004F048FB09
:102EB000012003466EA2022100905C2004F040FB3A
:102EC000FEE000206D4908606D490860584880693F
:102ED0000390FDF7BEF9A0B1002002900390544882
:102EE000806907220146019002A8FDF7A6F901209A
:102EF000002302AA014600902D2004F021FB18E0D7
:102F0000DFE04B480930FDF7A4F950B10120002360
:102F1000474A0932014600902D2004F011FB08E0D9
:102F200018E00120002349A2014600902D2004F062
:102F300007FB012003464DA2014600906E2004F0DD
:102F4000FFFA012003464AA2022100905C2004F00F
:102F5000F7FAB5E0364880690390FDF77AF998B141
:102F600000200290039032488069072201460190B8
:102F700002A8FDF762F90120034602AA014600906B
:102F80002D2004F0DDFA16E029480930FDF761F93B
:102F900048B101200346264A0932014600902D20FF
:102FA00004F0CEFA07E00120034628A20146009073
:102FB0002D2004F0C5FA012000232CA20146009028
:102FC0006E2004F0BDFA0120034629A202210090E0
:102FD0005C2004F0B5FA73E0154880690390FDF7B2
:102FE00038F998B1002002900390114880690722B7
:102FF0000146019002A8FDF720F90120034602AA2C
:10300000014600902D2004F09BFA46E00848093064
:10301000FDF71FF948B101200346054A0932014670
:1030200000902D2004F08CFA37E02DE0F00900200C
:103030007C070020303A2F77726974652E62696EC2
:1030400000000000303A00009C0700204E554C4C18
:103050000000000053454C454354204845580000AB
:103060002D2D2D2D2D2D2D2D2D2D00003E3E000022
:10307000464C415348000000EC010020F0010020C4
:10308000F4010020FA01002001200346AFF24402BF
:10309000014600902D2004F053FA01200346AFF2C0
:1030A0003402014600906E2004F04AFA0120002309
:1030B000AFF24402022100905C2004F041FA00BF0C
:1030C00000BF06F043FA022841F09D80F7480068EF
:1030D000012805D002287BD0032841F0938048E3E3
:1030E0000020F3490860F3490860F34880690390C1
:1030F000FDF7AFF828B9F0480930FDF7AAF8002825
:1031000067D0ED49ED480BF0CFFE01200346ECA25D
:10311000014600902D2004F013FAE74880690390DF
:10312000FDF797F8072809D201200023E24A093267
:10313000014600902D2004F003FA13E000200290D5
:103140000390DD48806907220146019002A8FDF73F
:1031500074F80120002302AA014600902D2004F0FB
:10316000EFF900BF01200346AFF2001201460090C4
:103170006E2004F0E5F9D0488069007810B1CE489F
:10318000407A30BBAFF24411CC480BF062FDCA4923
:10319000CA480BF089FEC849C8480BF085FE0120DB
:1031A0000346C7A2014600902D2004F0C9F9C24889
:1031B00080690390FDF74DF807280BD2012000230A
:1031C000BD4A0932014600902D2004F0B9F915E0FE
:1031D0001FE01CE0002002900390B748806907229E
:1031E0000146019002A8FDF728F80120002302AA59
:1031F000014600902D2004F0A3F900BF01200346F2
:10320000AFF29812014600906E2004F099F900F098
:10321000F9BF0020A54908600120AC49087004F0FE
:1032200041F8AB4820231A4600210090084604F0DC
:1032300059F800200123A7A2411E00902D2004F080
:103240007FF900200123AFF2E812014600902D2003
:1032500004F076F901200090A148A249097850F8BD
:10326000210001230246194603902D2004F068F93D
:1032700001200346AFF20C22014600906E2004F0BC
:103280005FF90120034698A2022100905C2004F01F
:1032900057F96BE206F05AF901287DD1834800689E
:1032A000401C8249086008460068042801D10020BB
:1032B00008607E48006830B101282CD0022852D026
:1032C000032827D179E0012003467EA20146009021
:1032D0002D2004F035F901200090814881490978BA
:1032E00050F8210001230246194603902D2004F0D6
:1032F00027F901200346AFF28C22014600906E2090
:1033000004F01EF90120034677A2022100905C2000
:1033100004F016F979E0012003466AA20146009004
:103320002D2004F00DF9012000906D486D490978B9
:1033300050F8210000230246012103902D2004F0C3
:10334000FFF801200346AFF2DC22014600906E2018
:1033500004F0F6F80120034663A2022100905C20ED
:1033600004F0EEF851E00120034656A20146009019
:103370002D2004F0E5F801200090594859490978BA
:1033800050F8210001230246194603902D2004F035
:10339000D7F80120002300E03BE0AFF230320146D5
:1033A00000906E2004F0CCF8012003464EA20221CA
:1033B00000905C2004F0C4F827E00120034641A2FD
:1033C000014600902D2004F0BBF8012000904448F5
:1033D0004449097850F82100012302461946039018
:1033E0002D2004F0ADF801200346AFF280320146F3
:1033F00000906E2004F0A4F8012000233AA20221DC
:1034000000905C2004F09CF800BF00BF64200AF02C
:10341000F3FF06F09BF802286AD1244800680128CF
:1034200004D002286FD003286ED1FFE02D48007829
:10343000401C2C49087008460078092801D100205A
:103440000870012000231FA2014600902D2004F0E7
:1034500077F80120009022482249097850F821008D
:1034600000230246012103902D2004F069F81D4835
:103470000078092858D2DFE800F0050A0F143C4113
:10348000484D52004FF496500DF014F84CE04FF4B4
:1034900016500DF00FF847E04FF461500DF00AF8A8
:1034A00042E04FF496400DF005F83DE0EC010020BD
:1034B000F0010020F40100207C0700209C07002080
:1034C000202020202020202020200000FA010020A1
:1034D0004F0100204445425547204D4F44450000D0
:1034E000FC01002020020020454E544552000000FF
:1034F00035E14FF416400CF0DDFF15E04FF461406C
:103500000CF0D8FF10E011E028E14FF4E1300CF0AE
:10351000D1FF09E04FF47A300CF0CCFF04E04FF417
:1035200061200CF0C7FF00BF00BF17E10020FD497C
:10353000087003F0B7FEFC4821231A4600210090D2
:10354000084603F0CFFEAFF20451F8480BF081FBC0
:10355000B0BBF749F5480BF0A7FC88BBF449F3482A
:103560000BF0A2FCF24880690290FCF772FE039017
:10357000039820B9EE480930FCF76BFE08B30398B6
:10358000072809DA01200346E94A0932014600907A
:103590002D2003F0D5FF1DE0002001900290E448AB
:1035A000806907220146009001A8FCF746FE012031
:1035B000034601AA014600902D2003F0C1FF09E057
:1035C00009E001200346AFF27C52014600902D2015
:1035D00003F0B6FF00BF00200123AFF28852411E66
:1035E00000902D2003F0ACFF00200123AFF2905299
:1035F000014600902D2003F0A3FF01200346AFF207
:103600009452014600906E2003F09AFF0120034679
:10361000AFF2A452022100905C2003F091FF002041
:10362000C44908600120C449087097E00020C149DE
:1036300008600220BB4908700120C049087003F0EF
:1036400031FE01200346BEA202210090622003F059
:1036500077FF3CE005F07AFF01282FD1B5480068DC
:10366000401CB44908600846006801280FD1034691
:10367000B5A202210090622003F062FF0120002326
:10368000AFA202210090622003F05AFF0FE0012058
:103690000346ADA202210090622003F051FF0120F9
:1036A0000346A7A202210090622003F049FFA1482F
:1036B0000068022802D100209E49086005F046FFFC
:1036C000022804D19B480068012800D100E0C1E72E
:1036D00000BF01209349087000209649086097496F
:1036E000087003F0DFFD9A4820231A46002100905D
:1036F000084603F0F7FD00200123AFF22822411E07
:1037000000902D2003F01CFF00200123AFF2B062D7
:10371000014600902D2003F013FF012000908D48FA
:103720008D49097850F8210001230246194603907B
:103730002D2003F005FF01200346AFF2D0620146C1
:1037400000906E2003F0FCFE01200346AFF26822D9
:10375000022100905C2003F0F3FE00BF00BF76481A
:10376000007818B100207449087000E092E500BFAD
:103770004DE56F48806979A10390FCF74CFD002866
:1037800071D003206749087003F08CFD664821233F
:103790001A4600210090084603F0A4FD64488069A1
:1037A0000122014603906F480BF08EF9002878D172
:1037B00001236DA2411E00902D2003F0C1FE3FE0C9
:1037C0006CA00068039000200123AFF20C32194670
:1037D00000902D2003F0B4FE0120034666A20221D2
:1037E00000902D2003F0ACFE0020654908601AE02F
:1037F00003A863490968405C02906148007800EBC7
:103800004000452101EB4000C0B20123019002219C
:10381000029A03F05BFEC8200AF0EEFD58480068EB
:10382000401C57490860564800680328E0D301202F
:10383000034654A2022100902D2003F081FE00BF18
:103840003B488069039000F0F1FE0028B8D00120C9
:1038500003463BA202210090622003F071FE00208B
:10386000344908603EE0EFE005F070FE012830D1F9
:1038700030480068401C2F4908600846006801284D
:1038800010D1034630A202210090622003F058FEBE
:10389000012000232AA202210090622003F050FEA2
:1038A00010E00BE20120034627A2022100906220D3
:1038B00003F046FE0120034621A20221009062206F
:1038C00003F03EFE1B480068022802D1002019497F
:1038D000086005F03BFE022804D116480068012864
:1038E00000D100E0C0E700BF03F0DCFC0E4821235C
:1038F0001A4600210090084603F0F4FCAFF6BC0124
:103900000A480BF0A6F960B9094908480BF0CCFA4F
:1039100038B9074905480BF0C7FA05488069029095
:1039200034E067E0FA010020AA0000209C07002094
:103930007C070020EC010020F8010020F9010020A4
:103940004241434B000000002020202000000000E6
:103950004F010020FC010020200200202E68657825
:1039600000000000580500204845582020464C41E2
:10397000534800002E2E2E005741495400000000ED
:10398000E80100202020202020202000FCF761FCFE
:103990000390039818B9FE48FCF75BFC00B303984A
:1039A000072808DA01200346F94A014600902D2035
:1039B00003F0C6FD1DE0002001900290F448093894
:1039C000806907220146009001A8FCF736FC01201F
:1039D000034601AA014600902D2003F0B1FD08E046
:1039E00001200346AFF69C12014600902D2003F003
:1039F000A7FD00BF0020E74908700123AFF6AC1215
:103A0000411E00902D2003F09BFD00200123AFF606
:103A1000B012014600902D2003F092FD01200346D4
:103A2000AFF6B812014600906E2003F089FD012028
:103A30000346AFF6C412022100905C2003F080FD23
:103A40000020D5490860DCE3AFF2F001D048FCF774
:103A5000E2FB002871D00320CE49087003F022FC5D
:103A6000CE4821231A4600210090084603F03AFC74
:103A70000122C749CA480BF027F80028E3D10123E7
:103A8000AFF21C12411E00902D2003F059FD42E0C0
:103A9000AFF220100068039000200123AFF2E05243
:103AA000194600902D2003F04BFD01200346AFF294
:103AB0003812022100902D2003F042FD0020B94968
:103AC00008601AE003A8B7490968405C0290B5484D
:103AD000007800EB4000452101EB4000C0B201231B
:103AE00001900221029A03F0F1FCC8200AF084FC44
:103AF000AC480068401CAB490860AA48006803282D
:103B0000E0D301200346AFF28412022100902D2061
:103B100003F016FD00BF9E4800F088FD0028B7D0D6
:103B200001200346AFF2E81202210090622003F068
:103B300007FD00209849086041E0C0E005F006FD5F
:103B4000012833D194480068401C93490860084616
:103B50000068012811D10346AFF21422022100901F
:103B6000622003F0EDFC01200023AFF22C220221A1
:103B70000090622003F0E4FC11E001200346AFF264
:103B8000382202210090622003F0DAFC0120034673
:103B9000AFF2542202210090622003F0D1FC7E4853
:103BA0000068022802D100207B49086005F0CEFCA5
:103BB000022804D178480068012800D100E0BDE760
:103BC00000BF03F06FFB754821231A4600210090C7
:103BD000084603F087FBAFF6943173480BF039F8D1
:103BE000C0BB6B49093970480BF05EF990BB68495E
:103BF00009396D480BF058F9654809388069029019
:103C0000FCF727FB0390039818B96148FCF721FBE8
:103C100008B30398072808DA012003465C4A0146E6
:103C200000902D2003F08CFC1EE0002001900290FB
:103C300057480938806907220146009001A8FCF71F
:103C4000FCFA0120034601AA014600902D2003F052
:103C500077FC09E009E001200346AFF61042014677
:103C600000902D2003F06CFC00BF00204949087033
:103C70000123AFF62042411E00902D2003F060FC8E
:103C800000200123AFF62842014600902D2003F0CA
:103C900057FC01200346AFF62C42014600906E20EF
:103CA00003F04EFC01200346AFF63C420221009097
:103CB0005C2003F045FC002037490860A1E234484D
:103CC00009388069AFF68C410390FCF7A4FA00280C
:103CD00072D004202F49087003F0E4FA2F48212302
:103CE0001A4600210090084603F0FCFA28480938DB
:103CF000806901220146039029480AF0E5FE002868
:103D0000DCD1012329A2411E00902D2003F018FCD4
:103D100058E0AFF2A0300068039000200123AFF616
:103D20006002194600902D2003F00AFC0120034692
:103D3000AFF2BC32022100902D2003F001FC0020E4
:103D4000184908601AE003A816490968405C029007
:103D50001448007800EB4000452101EB4000C0B260
:103D6000012301900221029A03F0B0FBC8200AF05F
:103D700043FB0C480068401C0A4908600948006879
:103D80000328E0D301200346AFF20842022114E0E9
:103D900085070020FA010020EC010020AA00002085
:103DA00058050020E80100209C07002042494E20D1
:103DB00020464C4153480000D7E000902D2003F0EE
:103DC000BFFB00BFFE488069039000F019FF002888
:103DD0009FD001200346AFF298420221009062205A
:103DE00003F0AEFB0020F749086040E005F0AEFBB1
:103DF000012833D1F3480068401CF24908600846A6
:103E00000068012811D10346AFF2C442022100909C
:103E1000622003F095FB01200023AFF2DC42022177
:103E20000090622003F08CFB11E001200346AFF20A
:103E3000E84202210090622003F082FB0120034649
:103E4000AFF2045202210090622003F079FBDD48BA
:103E50000068022802D10020DA49086005F076FBEC
:103E6000022804D1D7480068012800D100E0BDE74E
:103E700000BF03F017FAD44821231A46002100900E
:103E8000084603F02FFAAFF64461D0480AF0E1FE8D
:103E9000B0BBCB49CD480BF007F888BBC849CB482D
:103EA0000BF002F8C64880690290FCF7D2F9039043
:103EB000039820B9C2480930FCF7CBF908B303983E
:103EC000072809DA01200346BD4A0932014600905D
:103ED0002D2003F035FB1DE0002001900290B84832
:103EE000806907220146009001A8FCF7A6F901208D
:103EF000034601AA014600902D2003F021FB09E0B2
:103F000009E001200346AFF6BC62014600902D2077
:103F100003F016FB00BF0020AD4908700123AFF687
:103F2000CC62411E00902D2003F00AFB00200123EB
:103F3000AFF6D462014600902D2003F001FB012072
:103F40000346AFF6D862014600906E2003F0F8FAFF
:103F500001200346AFF6E862022100905C2003F0E6
:103F6000EFFA0020974908604BE1AFF630719448B2
:103F70000930FCF750F90028F6D004209449087065
:103F800003F090F9904821231A460021009008463A
:103F900003F0A8F901228A4909318E480AF094FDFC
:103FA0000028E1D10123AFF2FC12411E00902D2028
:103FB00003F0C6FA42E0AFF24460006803900020CC
:103FC0000123AFF60432194600902D2003F0B8FA11
:103FD00001200346AFF26062022100902D2003F021
:103FE000AFFA00207C4908601AE003A87A49096802
:103FF000405C02907848007800EB4000452101EBDE
:104000004000C0B2012301900221029A03F05EFA3F
:10401000C8200AF0F1F970480068401C6E49086039
:104020006D4800680328E0D301200346AFF2AC627C
:10403000022100902D2003F083FA00BF6048093070
:1040400000F0DEFD0028B6D001200346AFF210726A
:1040500002210090622003F073FA002059490860A1
:1040600040E005F073FA012833D156480068401C3F
:104070005449086008460068012811D10346AFF290
:10408000387202210090622003F05AFA01200023C6
:10409000AFF2547202210090622003F051FA11E055
:1040A00001200346AFF2607202210090622003F00B
:1040B00047FA01200346AFF2787202210090622095
:1040C00003F03EFA3F480068022802D100203D4933
:1040D000086005F03BFA022804D13A48006801283C
:1040E00000D100E0BDE700BF03F0DCF83648212333
:1040F0001A4600210090084603F0F4F837A133482F
:104100000AF0A7FDB0BB2E4930480AF0CDFE88BBAF
:104110002B492E480AF0C8FE294880690290FCF716
:1041200098F80390039820B925480930FCF791F8D6
:1041300008B30398072809DA01200346204A093208
:10414000014600902D2003F0FBF91CE000200190B7
:1041500002901B48806907220146009001A8FCF7E5
:104160006CF80120034601AA014600902D2003F0BF
:10417000E7F908E008E001200346194A01460090EB
:104180002D2003F0DDF900BF002011490870012344
:10419000134A0832411E00902D2003F0D1F900206F
:1041A00001230F4A1432014600902D2003F0C8F974
:1041B000012003460BA2014600906E2014E000008F
:1041C0007C070020EC010020AA0000209C070020B2
:1041D000FA01002058050020E8010020303A0000D4
:1041E0004C3000083E3E000003F0AAF901200346CF
:1041F000064A022100905C2003F0A2F90020044945
:10420000086000BF00BFFEF794BD000070300008DA
:10421000EC0100201CB56248006880B1614822238F
:104220001A4600210090084603F05CF800200123A4
:104230005DA219460090262003F082F9AFE05D48A8
:1042400021231A4600210090084603F04BF8012272
:1042500059A15C480AF038FC002871D101235AA208
:10426000411E00902D2003F06BF93BE059A000683F
:1042700001900020012358A2194600902D2003F040
:104280005FF90120034657A2022100902D2003F080
:1042900057F900205549086017E001A9534B1B68E6
:1042A000CA5C5249097801EB4101452303EB410106
:1042B000C8B20123022103F009F9C8200AF09CF8D2
:1042C0004A480068401C494908604848006803287B
:1042D000E3D30120034646A2022100902D2003F0E3
:1042E0002FF900BF34A000F08BFC0028BED00120C5
:1042F000034641A202210090622003F021F9002030
:104300003F4908603DE005F021F9012830D13C48E3
:104310000068401C3A49086008460068012810D12E
:10432000034638A202210090622003F009F901201F
:10433000002331A202210090622003F001F910E075
:104340002BE0012003462FA202210090622003F0FF
:10435000F7F80120034628A202210090622003F012
:10436000EFF827480068022802D10020244908609D
:1043700005F0ECF8022804D121480068012800D19A
:1043800000E0C0E700BF02F08DFF0A4821231A4673
:1043900000210090084602F0A5FFFEF751FC1CBD6D
:1043A000300400200000002055534220436F6E6E01
:1043B00065637400AA0000204155544F2E62696E57
:1043C00000000000580500204155544F20464C4144
:1043D000534800002E2E2E002020202020202020B8
:1043E000202000005741495400000000E80100204F
:1043F00020202020202020004241434B00000000CC
:10440000EC010020202020200000000010B502F068
:10441000A5FD10BD10B502F0DBFD10BD0020014967
:10442000086070474C03002010B5002400BF03E073
:10443000002010490855641C0F4800788442F7DBBF
:10444000062001F061F80D4908600846006882B254
:104450004FF4E871074803F087FA062005F03EF9AB
:1044600006480068044908700846017801480CF0C5
:1044700085F810BD2C1300205003002048030020B5
:1044800030B500F00F010D4C04EB8103D3F8002C84
:1044900000F0800343B148F6CF731340254605EB87
:1044A0008104C4F8003C07E04CF68F731340034DC1
:1044B00005EB8104C4F8003C30BD00000050004012
:1044C00070B500F00F02104D05EB8204D4F8003CEB
:1044D00000F080045CB101F030045C4048F6BF7528
:1044E0002C40094E06EB8205C5F8004C0AE001F4A9
:1044F00040545C404BF68F752C40034E06EB820512
:10450000C5F8004C70BD0000005000400149086033
:104510007047000014040140002123498279002AD9
:104520003AD00A46126803689A430B461A600A1D7D
:10453000126803689A430B1D1A60027911440A68D5
:1045400003681A430A60184A0832126803689A43DB
:10455000154B08331A601A1D126803689A43124BF0
:104560000C331A604279102A0ED11A1F12680368A0
:104570001A430D4B08331A601A1D126803681A4358
:10458000094B0C331A600DE00749427911440A685F
:1045900003681A430A6005E0027911440A68036857
:1045A0009A430A60704700000004014030B5044699
:1045B00004254FF4302000F037FD0546042D17D1B7
:1045C0000C48006940F002000A490861084644614D
:1045D000006940F0400008614FF4302000F024FDF5
:1045E00005460448006941F6FD710840014908612B
:1045F000284630BD0020024004200B49C96801F064
:10460000010109B101200EE00749C96801F0040168
:1046100009B1022007E00449C96801F0100109B19D
:10462000032000E004207047002002402DE9F04FF5
:104630009DB080464FF0000901224146FE480AF035
:1046400043FAFE4908700846007800287DD1FC49ED
:1046500008600BF03FF9002878D00BF035FE30B938
:104660000BF01EFE28B100201DB0BDE8F08F002029
:10467000FAE70BF04BFE0BF02DF9002867D04FF056
:1046800000600BF0B1FD002877D10BF099FD0028F8
:1046900074D18346089009900A900B9030E29DF8FF
:1046A00030003A2801D0FE20DEE70CA8FBF7D1FD50
:1046B00081440DF13500FCF7C5FA04460DF13300D5
:1046C000FCF7C0FA04EB00205844C61705460DF16C
:1046D0003700FCF7B7FA82460DF13100FCF7B2FA69
:1046E0000746BAF1040F06D10DF13B00FCF7AAFA18
:1046F0004FEA004B03E2BAF1000FFBD1002185EA3B
:104700000100714008430BD04FF48062002328461B
:104710003146FBF72BFD00214A404B401A432ED077
:104720000020C849086023E0C649096849000931EA
:104730000CAA8818FCF786FA04464FF4806200231E
:1047400028463146FBF712FD02E016E213E210E2C2
:104750004FF48061A0FB0101291ABA4800680818CB
:10476000B9490C54B748006800F10100B549086028
:10477000B4480068B842D7D326E0F7E1F4E14FF43B
:104780008062002328463146FBF7F0FC00214A40B6
:104790004B401A4318D10020AA49086010E0A949EB
:1047A0000968490009310CAA8818FCF74BFA08A9D6
:1047B000A44A12688854A3480068401CA1490860B4
:1047C000A0480068B842EAD34FF48061691A76F1D4
:1047D00000008FD34FF48062002328463146FBF758
:1047E000C5FC00214A404B401A4386D194490968D0
:1047F00001F100604FF4806293490BF017FD00282F
:1048000076D18D49C868FBF70CFECDE90201484618
:10481000FBF707FECDE90001DDE90223FBF792FD7E
:1048200000228A4BCDE90401FBF71AFDCDE9060110
:10483000FBF704FE04460A2C19D3142C17D2844823
:10484000006808B9012000E00020814908600020CC
:10485000012380A2194600902D2002F071FE002055
:1048600001237DA2022100902D2002F069FE142C6C
:1048700019D31E2C17D27648006808B9012000E031
:104880000020734908600020012374A2194600909B
:104890002D2002F055FE0020012371A2022100907C
:1048A0002D2002F04DFE1E2C19D3282C17D268485B
:1048B000006808B9012000E0002065490860002078
:1048C000012368A2194600902D2002F039FE002035
:1048D000012365A2022100902D2002F031FE282C38
:1048E0001AD3322C18D25A48006810B9012001E0BE
:1048F000FDE0002056490860002001235BA2194614
:1049000000902D2002F01CFE0020012359A202215C
:1049100000902D2002F014FE322C19D33C2C17D21B
:104920004B48006808B9012000E0002048490860B1
:104930000020012350A2194600902D2002F000FE15
:10494000002001234EA2022100902D2002F0F8FD4C
:104950003C2C19D3462C17D23D48006808B90120D9
:1049600000E000203A4908600020012345A21946D2
:1049700000902D2002F0E4FD0020012343A202213B
:1049800000902D2002F0DCFD462C19D3502C17D2BC
:104990002F48006808B9012000E000202C49086079
:1049A000002001233AA2194600902D2002F0C8FDF4
:1049B0000020012338A2022100902D2002F0C0FD2A
:1049C000502C19D35A2C17D22148006808B901205D
:1049D00000E000201E490860002001232FA2194694
:1049E00000902D2002F0ACFD002001232EA2022118
:1049F00000902D2002F0A4FD5A2C19D3642C17D25C
:104A00001348006808B9012000E000201049086040
:104A10000020012325A2194600902D2002F090FDD0
:104A20000020012324A2022100902D2002F088FD05
:104A3000FF224FF4806141E058050020D50100209D
:104A4000E4010020E8010020EF0A002000005940A6
:104A5000908121423D000000313025003D3D0000A5
:104A6000323025003D3D3D00333025003D3D3D3D8C
:104A700000000000343025003D3D3D3D3D0000007C
:104A8000353025003D3D3D3D3D3D000036302500A3
:104A90003D3D3D3D3D3D3D00373025003D3D3D3DEB
:104AA0003D3D3D3D00000000383025003D3D3D3D91
:104AB0003D3D3D3D3D000000393025003148FBF7CC
:104AC00098FB0020304908600CE008A82E490968CE
:104AD000405C2C492C4A126888542B480068401CC2
:104AE0002949086028480068B842EED301E0002058
:104AF000BAE52648006800F580602449086000BFD8
:104B0000234A40210CA809F0A2FF00287FF4C7AD7A
:104B10001E49096801F100604FF4806219490BF0E9
:104B200085FB08B100209FE50AF0D4FED0B101203A
:104B30001849086000200BF013F8642009F05CFCB1
:104B40000020012314A2194600902D2002F0F8FC49
:104B50000020012313A2022100902D2002F0F0FC7E
:104B6000012081E500207FE500207DE50BF090FB32
:104B700005E0002078E5002076E5002074E50020BF
:104B800072E50000EF0A0020E8010020E4010020A7
:104B900058050020908121423D3D3D3D3D3D3D3D3C
:104BA0003D3D0000444F4E450000000003480069B1
:104BB00040F0800001490861704700000020024079
:104BC00070B504460D460426F00200F02DFA0646A4
:104BD000042E11D10948006940F00100074908611D
:104BE0002580F00200F020FA06460448006941F6EC
:104BF000FE71084001490861304670BD0020024046
:104C00002DE9FC5F834601225946DA4809F05CFF32
:104C1000D94908700846007800287DD10120D7497D
:104C200008700020D64908600AF054FE002874D0AD
:104C30000BF04AFB28B90BF033FB20B10020BDE894
:104C4000FC9F0020FBE70BF061FB0AF043FE00280D
:104C50007DD04FF000600BF0C7FA002878D10BF040
:104C6000AFFA002875D152E1C64B4FF48062C649B5
:104C7000C0480AF032F8C3480088B0F5806F02DA05
:104C80000020BE490870BE49096801F100604FF478
:104C90008062BD490BF0CAFA00287DD1B549C868C9
:104CA000FBF7BFFB04460D46B5480068FBF7B9FBB0
:104CB000064622462B46FBF745FB80460022B34BB7
:104CC000FBF7CEFACDE90001FBF7B8FB8246BAF15B
:104CD0000A0F1AD3BAF1140F17D2AD48006808B9F9
:104CE000012000E00020AA49086000200123A9A2B9
:104CF000194600902D2002F023FC00200123A6A2DB
:104D0000022100902D2002F01BFCBAF1140F1DD3DC
:104D1000BAF11E0F1AD201E027E124E19C48006895
:104D200008B9012000E00020994908600020012313
:104D30009AA2194600902D2002F002FC00200123C7
:104D400097A2022100902D2002F0FAFB02E008E178
:104D500004E101E1BAF11E0F1AD3BAF1280F17D2FC
:104D60008B48006808B9012000E0002088490860ED
:104D7000002001238BA2194600902D2002F0E0FBB9
:104D80000020012388A2022100902D2002F0D8FBF0
:104D9000BAF1280F1CD300E0B1E0BAF1320F17D2FC
:104DA0007B48006808B9012000E0002078490860CD
:104DB000002001237DA2194600902D2002F0C0FBA7
:104DC000002001237BA2022100902D2002F0B8FBDD
:104DD000BAF1320F1AD3BAF13C0F17D26C480068FF
:104DE00008B9012000E00020694908600020012383
:104DF00071A2194600902D2002F0A2FB0020012391
:104E00006FA2022100902D2002F09AFBBAF13C0F14
:104E10001AD3BAF1460F17D25D48006808B90120CD
:104E200000E000205A4908600020012365A21946CD
:104E300000902D2002F084FB0020012363A20221B8
:104E400000902D2002F07CFBBAF1460F1AD3BAF184
:104E5000500F17D24E48006808B9012000E000202A
:104E60004B4908600020012359A2194600902D20CB
:104E700002F066FB0020012357A2022100902D20A2
:104E800002F05EFBBAF1500F1AD3BAF15A0F17D2E3
:104E90003F48006808B9012000E000203C49086054
:104EA000002001234DA2194600902D2002F048FB5E
:104EB000002001234CA2022100902D2002F040FB93
:104EC000BAF15A0F1AD3BAF1640F17D230480068FA
:104ED00008B9012000E000202D49086000200123CE
:104EE00042A2194600902D2002F02AFB0020012347
:104EF00041A2022100902D2002F022FB01E00020BF
:104F00009DE61F48006800F580601D4908601B4849
:104F1000007800287FF4A8AE0AF0DCFCD0B10120B4
:104F20001B49086000200AF01BFE642009F064FAA7
:104F30000020012331A2194600902D2002F000FB31
:104F40000020012330A2022100902D2002F0F8FA67
:104F5000012074E6002072E6002070E60BF098F95C
:104F600005E000206BE6002069E6002067E60020EF
:104F700065E6000058050020D5010020E001002072
:104F8000E401002022020020EF0A00200000594026
:104F9000908121423D000000313025003D3D000060
:104FA000323025003D3D3D00333025003D3D3D3D47
:104FB00000000000343025003D3D3D3D3D00000037
:104FC000353025003D3D3D3D3D3D0000363025005E
:104FD0003D3D3D3D3D3D3D00373025003D3D3D3DA6
:104FE0003D3D3D3D00000000383025003D3D3D3D4C
:104FF0003D3D3D3D3D000000393025003D3D3D3DFE
:105000003D3D3D3D3D3D0000444F4E45000000000C
:1050100002480349486003484860704723016745D8
:1050200000200240AB89EFCD00B502460423FFF714
:10503000E3FA034603E0FFF7DFFA0346521E012BB3
:1050400001D1002AF7D102B90523184600BD00009E
:1050500018B5002844D0C0F34211C0F30322214BFD
:105060009B6903F001032BB91E4B9B6943F00103BD
:105070001C4CA36100F48053A3B11B4BDB6900936C
:1050800000F01F0301FA03F3009C9C43009400F01E
:105090001F0302FA03F3009C23430093124C009B6E
:1050A000E3611DE0104B5B68009300F01F0301FA01
:1050B00003F3009C9C43009400F01F0302FA03F3E7
:1050C000009C2343009307210022009B23EA0163F5
:1050D0000093009B43EA02630093034C009B6360D0
:1050E00018BD0000001002400000014001461D48AC
:1050F000814204D11C488069C0F3800070471B487E
:10510000814204D118488069C0F3C000F6E718480E
:10511000814204D114488069C0F30010EEE71548BD
:10512000814204D110488069C0F34010E6E712487C
:10513000814204D10C488069C0F38010DEE70F483B
:10514000814204D108488069C0F3C010D6E70C48FA
:10515000814204D104488069C0F30020CEE70020DA
:10516000CCE700000008014000100240000C0140A4
:10517000001001400014014000180140001C0140D3
:10518000002001402DE9F0410246002500260020C4
:1051900000230024002791F803C00CF00F0591F8BC
:1051A00003C00CF0100CBCF1000F03D091F802C04A
:1051B0004CEA050591F800C0BCF1000F31D014682D
:1051C00000202BE04FF0010C0CFA00F3B1F800C006
:1051D0000CEA03069E4220D183004FF00F0C0CFA1C
:1051E00003F7BC4305FA03FC4CEA040491F803C03E
:1051F000BCF1280F06D14FF0010C0CFA00FCC2F8EC
:1052000014C00AE091F803C0BCF1480F05D14FF07B
:10521000010C0CFA00FCC2F810C0401C0828D1D3C5
:105220001460B1F800C0BCF1FF0F34DD54680020F9
:105230002EE000F1080C4FF0010808FA0CF3B1F869
:1052400000C00CEA03069E4221D183004FF00F0CF0
:105250000CFA03F7BC4305FA03FC4CEA040491F88A
:1052600003C0BCF1280F05D100F1080C08FA0CF8B6
:10527000C2F8148091F803C0BCF1480F07D100F1C7
:10528000080C4FF0010808FA0CF8C2F81080401C16
:105290000828CED35460BDE8F0812DE9F0410546E1
:1052A0000C46174698460F2C02D90020BDE8F08125
:1052B0002846FFF71BFF18B90121284600F072F8B5
:1052C000B8F1000F10D1022F05D1E8680121A140EB
:1052D0008843E86008E0032F06D127F00107E8685B
:1052E0000121A1400843E860082C01D22E4601E0CC
:1052F000083C2E1D3068A2000F2191408843306089
:1053000048EA8700A10088403168084330600120E6
:10531000CCE70000F0B50A46002300240021002558
:1053200000F00046B6F1004F02D11D4EF16901E0D8
:105330001B4E7168C0F3034583B200F44016B6F506
:10534000401F08D121F07061154E766826F0706616
:10535000134F7E6012E000F48016B6F5801F06D170
:10536000032606FA05F4A14341F0706106E0460DFC
:10537000360103FA06F6B14341F0706122B1460DE1
:10538000360103FA06F6314300F00046B6F1004F4D
:1053900002D1034EF16101E0014E7160F0BD0000E9
:1053A00000000140002945D0454A904206D1454AB7
:1053B000926942F00402434B9A6180E0424A904273
:1053C00006D1404A926942F008023E4B9A6176E06B
:1053D0003E4A904206D13B4A926942F01002394B54
:1053E0009A616CE03A4A904206D1364A926942F09C
:1053F0002002344B9A6162E0364A904206D1314A2B
:10540000926942F040022F4B9A6158E0324A904232
:1054100006D12C4A926942F080022A4B9A614EE0F2
:105420002E4A90424BD1274A926942F48072254B12
:105430009A6144E0224A904206D1224A926922F0BF
:105440000402204B9A613AE01F4A904206D11D4A5D
:10545000926922F008021B4B9A6130E01B4A90428D
:1054600006D1184A926922F01002164B9A6126E082
:10547000174A904206D1134A926922F02002114B3A
:105480009A611CE0134A904206D10E4A926922F0BA
:1054900040020C4B9A6112E00F4A904206D1094A31
:1054A000926922F08002074B9A6108E00B4A904211
:1054B00005D1044A926922F48072024B9A617047C6
:1054C0000008014000100240000C014000100140A3
:1054D0000014014000180140001C01400020014060
:1054E000416170470161704701460548006880B21C
:1054F00000EBC100001D034A32F8100080B2704773
:10550000505C00400060004001460648006880B2E0
:1055100000EBC100801D044A32F81000C0F30900FE
:1055200070470000505C00400060004001460548A4
:10553000006880B200EBC100034A32F8100080B26C
:1055400070470000505C0040006000400D49097841
:10555000012910D10C4909680C4A1268891A0C4AB1
:10556000126888180A49096851B907490968074A41
:105570001268881A04E004490968044A1268881A03
:10558000704700005B0400206004002064040020D9
:105590006804002010B5084B1B68C3F30B02C2F56A
:1055A0008051054B1B68054C24681B1BC3F58050BC
:1055B000884200D9084610BD600400206404002021
:1055C000084A1178127882F00102064B1A70064AD6
:1055D000525C064B1B7842EA03000022024B5A54ED
:1055E000704700005E0400205C0400205B04002083
:1055F00010B50F4B18681B1D19681B1D1A68A8B140
:105600000C4CA070030A2371030CA371030E2372C8
:10561000A1720B0A23730B0CA3730B0E2374A274D9
:10562000130A2375130CA375130E237610BD000007
:10563000E8F7FF1F2C0300202DE9F04704460D4634
:105640004FF0FF0A2078D02872DB2078D7286FDC53
:10565000207805F8010B14F8010BD038082868D21F
:10566000DFE800F004121518213356725648076817
:1056700005F8017B380A05F8010B380C05F8010B19
:10568000380E05F8010B81E0FFF7C2FC7EE0FFF762
:105690008DFA7BE027683846FEF788FF042801D0A2
:1056A0004FF0FF0A72E0D4F80080A68806E018F8F0
:1056B000011BFF2902D04FF0FF0A04E0301EA6F1C3
:1056C00001018EB2F3D100BF60E02768A688382EB2
:1056D00002DD4FF0FF0A1AE0A41D12E014F8019B4E
:1056E0002EB114F8011B49EA0129701E86B2494601
:1056F0003846FFF765FA042802D04FF0FF0A05E0AC
:10570000BF1C301EA6F101018EB2E7D100BF3DE003
:10571000D4F80080A6883E2E02DD4FF0FF0A12E08A
:10572000002005F8010B09E026B998F800A005E073
:1057300030E027E018F8010B05F8010B301EA6F148
:1057400001018EB2F0D121E000BF00BF00BF00BF59
:1057500000BFBFF34F8F00BF00BF00BF1B480068F2
:1057600000F4E0601A490843001D1849086000BFB2
:1057700000BF00BFBFF34F8F00BF00BF00BF00E0FE
:1057800000BFFDE76D1E4FF0FF0A00BF00BF85F8A8
:1057900000A017E00F48006890B10F4BDFF83CC045
:1057A000DCF800C003EB8C110D4BDFF838C0DCF8DF
:1057B00000C003EB8C10074B1B685A68904701E050
:1057C000FF202870BDE8F087002004E00CED00E029
:1057D0000000FA0538020020503500209004002017
:1057E000502500208804002072B61E49086880F306
:1057F000088800BF01F052F9002412E001F0BEF960
:105800006420FDF7E5F901F0B1F901F091F96420A8
:10581000FDF7DEF901F084F94FF47A70FDF7D8F95D
:10582000641C052CEADB00BF00BF00BF00BF00BF47
:10583000BFF34F8F00BF00BF00BF0B48006800F4EC
:10584000E0600A490843001D0749086000BF00BF27
:1058500000BFBFF34F8F00BF00BF00BF00E000BF1D
:10586000FDE70000000000080CED00E00000FA0574
:1058700010B518480068047A022C01D0042C05D118
:10588000FCF79CFF13480068047A1CE0062C19D131
:1058900010480068407805280ED10E48006800784E
:1058A00000F07F0040B90B490968C87803F096FE04
:1058B00009490968086A8047084909688868804773
:1058C000082400E00824034909680C7202F00AF970
:1058D00010BD0000400400204C04002044040020BF
:1058E00010B50B48006838B109480A4908600846F5
:1058F00000680168084888470AF0E0FF01200AF0C4
:105900006BFE00BF0AF060FE0028FBD010BD000057
:10591000D809010838020020D009010808B54FF461
:10592000A06001F019FC08F045FD01F091F807F0C6
:10593000EDFD1749002009F0B1F801F00FFD01F06D
:10594000B1FC01F0D3F803F001FE012816D1FDF7F8
:1059500059F9104822231A4600210090084601F008
:10596000C1FC002001230CA219460090262001F062
:10597000E7FDFFF7B5FFFDF741F907E003F0D8FFBA
:1059800003F0E4FF07F002FC07F0E2FB08BD0000B3
:10599000C00700200000002044415020436F6E6E7D
:1059A0006563740008B5002000900AF0C7F808B9D4
:1059B000002008BD4EF29E700AF0AAF908B9002036
:1059C000F7E70AF0BBF808B90020F2E768460AF0EA
:1059D0007DF808B90020ECE70120EAE710B504469D
:1059E0000548407818B1204600F008F802E020464B
:1059F00000F0A6F810BD0000C413002070B50546E5
:105A000001F080FF01F04CFE00BF00BF01F082FEFC
:105A100000BF00BF01F044FE00BF00BF01F07AFEEE
:105A200000BF00BF01F046FF01F03AFE00BF00BF1B
:105A300001F070FE00BF00BF01F032FE00BF00BFEA
:105A400001F068FE00BF00BF012001F077FF3B4876
:105A5000C17D203030F8114008E001F021FE00BF88
:105A600000BF01F057FE00BF00BF641E002CF4D140
:105A70003248C17D1830405C441E0CE0E8B201F0B1
:105A80005DFF01F00DFE00BF00BF01F043FE00BF4F
:105A900000BF6D08641E002CF0D12848C17D303055
:105AA00030F811402CB3E8B201F048FF01F0F8FDE6
:105AB00000BF00BF01F02EFE00BF00BF012001F0BB
:105AC0003DFF641E08E001F0EBFD00BF00BF01F0E8
:105AD00021FE00BF00BF641E002CF4D101F012FFB4
