:020000040800F2
:10000000D0130020C9010008731C0008291900083A
:10001000711C0008E3030008233D000800000000F5
:10002000000000000000000000000000E5250008BE
:10003000E503000800000000891F0008E72500080C
:10004000E3010008E3010008E3010008E301000800
:10005000E3010008E3010008E3010008E3010008F0
:10006000E3010008E3010008E3010008E3010008E0
:10007000E3010008E3010008E3010008E3010008D0
:10008000E3010008E3010008E3010008E3010008C0
:10009000AD3C0008E3010008E3010008E3010008AB
:1000A000E3010008E3010008E3010008E3010008A0
:1000B000E3010008E3010008E3010008E301000890
:1000C000E3010008E3010008E3010008E301000880
:1000D000E3010008E3010008E3010008E301000870
:1000E000E3010008E3010008E301000800F002F862
:1000F00000F05AF80AA090E8000C82448344AAF168
:100100000107DA4501D100F04FF8AFF2090EBAE865
:100110000F0013F0010F18BFFB1A43F0010318473B
:10012000983C0000B83C00000A444FF0000C10F866
:10013000013B13F0070408BF10F8014B1D1108BF65
:1001400010F8015B641E05D010F8016B641E01F805
:10015000016BF9D113F0080F1EBF10F8014BAD1C55
:100160000C1B09D16D1E58BF01F801CBFAD505E073
:1001700014F8016B01F8016B6D1EF9D59142D6D3CD
:10018000704700000023002400250026103A28BFF5
:1001900078C1FBD8520728BF30C148BF0B607047F9
:1001A0001FB51FBD10B510BD00F0E2F81146FFF7F6
:1001B000F7FF03F0C7FD00F000F903B4FFF7F2FF0B
:1001C00003BC00F007F900000948804709480047D0
:1001D000FEE7FEE7FEE7FEE7FEE7FEE7FEE7FEE7F7
:1001E000FEE7FEE704480549054A064B7047000054
:1001F00061260008ED000008D00D0020D01300207B
:10020000D00F0020D00F0020B2F120030AD5C2F198
:10021000200320FA02F001FA03F321FA02F140EA86
:100220000300704721FA03F04FF000017047032AE2
:1002300040F2308010F0030C00F0158011F8013B03
:10024000BCF1020F624498BF11F801CB00F8013BEA
:1002500038BF11F8013BA2F1040298BF00F801CBAE
:1002600038BF00F8013B11F0030300F02580083A85
:10027000C0F0088051F8043B083A51F804CBA0E8DC
:100280000810F5E7121D5CBF51F8043B40F8043B31
:10029000AFF30080D20724BF11F8013B11F801CB66
:1002A00048BF11F8012B24BF00F8013B00F801CB37
:1002B00048BF00F8012B704710B5203AC0F00B8002
:1002C000B1E81850203AA0E81850B1E81850A0E85A
:1002D0001850BFF4F5AF5FEA027C24BFB1E81850B4
:1002E000A0E8185044BF18C918C0BDE810405FEA24
:1002F000827C24BF51F8043B40F8043B08BF7047A0
:10030000D20728BF31F8023B48BF11F8012B28BFA4
:1003100020F8023B48BF00F8012B70474FF0000265
:1003200000B5134694469646203922BFA0E80C50EB
:10033000A0E80C50B1F12001BFF4F7AF090728BFC6
:10034000A0E80C5048BF0CC05DF804EB890028BF42
:1003500040F8042B08BF704748BF20F8022B11F06B
:10036000804F18BF00F8012B7047704770477047E7
:10037000754600F02BF8AE4605006946534620F05E
:100380000700854618B020B5FFF72CFFBDE82040D8
:100390004FF000064FF000074FF000084FF0000B41
:1003A00021F00701AC46ACE8C009ACE8C009ACE8F4
:1003B000C009ACE8C0098D46704710B50446AFF3DC
:1003C00000802046BDE81040FFF7F7BE00487047A8
:1003D000700D002001491820ABBEFEE72600020088
:1003E0007047FEE7704772B6FEE70000064900203E
:1003F000C8610648016941F004010161016941F0E9
:100400004001016170470000500D002000200240B3
:10041000064A0021D16106490A6942F002020A61D6
:100420004861086940F0400008617047500D0020A5
:1004300000200240044B0022DA61044A136943F0B1
:100440000103136101807047500D0020002002401D
:1004500014480022C168CB06134904D5CA6942F08A
:100460000202CA611022C3685B0705D5CB6943F05D
:100470000103CB6142F00402C369DB0707D0CB69FB
:1004800043F00403CB61C16921F00101C161A2F510
:100490008071013901D0C2607047C16921F001014A
:1004A000C161704700200240500D002070B5054624
:1004B00000F0CEF90646114C09E0681C07D025B1C2
:1004C00000F0C6F9801BA84201D9032070BDE06886
:1004D000C007F2D1E068800601D52020E060E06826
:1004E000C00605D4E069C00702D1E068400703D523
:1004F000FFF7AEFF012070BD002070BD002002405C
:100500002DE9F047054626480F460126017E0129C0
:100510000FD00121814601762868DFF888804CF2EF
:100520005034022808D0A2462046FFF7BFFFA8B1EA
:1005300031E00220BDE8F0872046FFF7B7FF08BB97
:100540000120FFF753FF2046FFF7B0FFD8F8101047
:10055000064621F00401C8F810101CE04FF0FF30EF
:100560003860AC6811E02046FFF752FF5046FFF7B5
:100570009DFFD8F81010060021F00201C8F81010F5
:1005800001D03C6007E004F58064D5E9020100EB8E
:100590008120A042E7D8002189F818103046C9E729
:1005A000500D0020002002400348016941F0800105
:1005B0000161002070470000002002402DE9F05F3B
:1005C00007461C4888460024017E15461E46012920
:1005D00009D00121814601764CF2503A5046FFF78E
:1005E00065FF18B122E00220BDE8F09F012F02D084
:1005F000022F00D00427D346DFF83CA02201284672
:100600003146FFF701FE81B208EB4400FFF712FF0D
:100610005846FFF74BFFDAF8102022F00102CAF823
:10062000102018B9641CE4B2BC42E7D3002289F858
:100630001820D9E7500D0020002002400649002074
:100640000A69120607D5054A4A60054A4A600969DF
:10065000090600D5012070470020024023016745AC
:10066000AB89EFCD2DE9F84FDFF8B891002409F1FF
:10067000040A0AF1040B23460F270BF1040EC9E00C
:100680000125A5402A40AA427DD1674ED1F804C079
:10069000ACEB0608B44532D014DCBCF1030F3AD001
:1006A00009DCBCF1000F2AD0BCF1010F1CD0BCF159
:1006B000020F31D11DE0BCF1110F17D0BCF1120FA8
:1006C0002AD119E0B8F5881F19D006DCB8F5803FAB
:1006D00015D0B8F5801F1FD111E0B8F5001F0ED05E
:1006E000B8F5041F18D10AE0CB6815E0CB681B1DD4
:1006F00012E0CB6808330FE0CB680C330CE08B685A
:100700002BB1012B4FF0080303D0456104E0042313
:1007100002E0056100E00023FF2A01D8064601E05F
:1007200000F104064FEA840501D9A5F12005D6F8A9
:10073000008007FA05FC28EA0C0803FA05F548EAE8
:100740000508C6F800804D68ED0062D5374DAE69EA
:1007500046F00106AE61AD6924F0030605F001051F
:100760000095334D06EB050CDCF80850A607360F54
:1007700007FA06F825EA0805DFF8B880404503D1F6
:100780004FF0000817E044E0DFF8AC80404502D1AC
:100790004FF001080FE0DFF8A480404502D14FF090
:1007A000020808E0DFF89880404502D14FF00308C6
:1007B00001E04FF0040808FA06F848EA0508CCF80A
:1007C00008804D68D9F80060ED034D4601D5164309
:1007D00000E096432E604D68DAF80060AD035546A0
:1007E00001D5164300E096432E604D68DBF80060AB
:1007F000ED025D4601D5164300E096432E604D683C
:10080000DEF80060AD02754601D5164300E0964360
:100810002E60641C0D682A46E5407FF431AFBDE8C8
:10082000F88F000000040140000011100010024089
:100830000000014000080140000C01400010014090
:10084000001401408068084000D00120704700007B
:1008500001488068704700007800002002488168E5
:10086000027811448160704778000020074810B575
:10087000016841F010010160032000F075F80F20BD
:1008800000F006F800F024F8002010BD002002401F
:1008900070B50D4D04464FF47A712878B1FBF0F035
:1008A0000A490968B1FBF0F001F02AF848B9102CA8
:1008B00007D200222146501E00F036F800206C605E
:1008C00070BD012070BD0000780000208400002071
:1008D0000C4808B5816941F001018161816901F02D
:1008E00001010091C16941F08051C161C06900F00E
:1008F000805000900448416821F0E06141F00071AF
:10090000416008BD0010024000000140002809DBE2
:1009100000F01F02012191404009800000F1E02019
:10092000C0F8001170470000F0B40E4B1B680C4675
:10093000C3F30223C3F10705042D00D90425191DB3
:10094000072901D2002300E0DB1E012606FA05F18B
:10095000491E214099409E40761E16403143F0BC0E
:1009600003F0E0B90CED00E0064900F0070208686A
:100970004FF6FF03184040EA0220034A1043086084
:10098000704700000CED00E00000FA0510B50C0601
:1009900007D501F0070101EB810100EBC100283010
:1009A00005E001EB810100EBC10000F5B47099B2E4
:1009B00032B1012202730181190C4181002010BD66
:1009C00000220273C180F9E7704701EB810200EB5E
:1009D000C202D0F8E802D26B01F0C5BF01EB810280
:1009E00000EBC202D0F8E802D2F87C2102F01EB877
:1009F00070B504460B0601F0070000EB800104EB24
:100A0000C1014FF001024FF0000503D581F8292004
:100A1000283103E081F8695101F5B471087094F848
:100A2000A802012808D084F8A822206802F038FD26
:100A300084F8A852002070BD022070BD70B5044635
:100A400001F00F006268904201D9012070BD0B06D1
:100A500001F0070000EB800104EBC1014FF001023F
:100A60004FF0000503D581F82920283103E081F8F3
:100A7000695101F5B4718D70087094F8A8020128CD
:100A800008D084F8A822206802F0A7FD84F8A852B4
:100A9000002070BD022070BD2DE9F05F04685FEAA0
:100AA000424C0B788D69B4F850C04FF000064BF6FD
:100AB0008F7948F2800A48F68F7B48F2C00E4FF4D7
:100AC00080672AD54FF0020808EBC308C44407EB3F
:100AD0004C07E45BC4F30904A54203D32D1B8D61CD
:100AE00001D00BE08E61066836F8235005EA09054F
:100AF00085F4005545EA0A0526F82350520609D523
:100B00000D78036833F8252002EA0B0242EA0E0250
:100B100023F8252084B30A8929E04FF0060808EB62
:100B2000C308C44407EB4C07E45BC4F30904A542C3
:100B300003D32D1B8D6101D00BE08E61066836F862
:100B4000235005EA090585F4005545EA0A0526F80B
:100B50002350520609D40B78056835F8232002EAA1
:100B60000B0242EA0E0225F823202CB14A8949697A
:100B70000068234603F0A4F82046BDE8F09F2DE965
:100B8000F05F054600680C465FEA426C16468B69CA
:100B90002278B0F850C048F68F774CF280094FF6B3
:100BA000FF7B4FF4004E4FF4806A4FF000017BD57D
:100BB0004FF0020808EBC208E0440AEB480C30F89A
:100BC0000C00C0F30900834211D91B1AA3610FD096
:100BD000730407D52E6836F822303B4043EA0903F8
:100BE00026F8223094F82420012A50D04EE1A16149
:100BF000607810B1012813D01AE02868B0F850309E
:100C0000184400EB0210B0F8042422F4F842A0F8D3
:100C10000424B0F8042442F40042A0F8042407E0BD
:100C20002868B0F85030184400EB0210A0F8041403
:100C30006278286812B1012A11D018E0B0F850107B
:100C40000844217800EB0110B0F80C1421F4F841AD
:100C5000A0F80C14B0F80C1441F4004105E0B0F811
:100C600050201044227800EB0210A0F80C142178D8
:100C70002846FFF7AAFE7004B8D521782A6832F812
:100C80002100384040EA090022F82100FEE06269B4
:100C900002446261E2690244E2612369226A9A4283
:100CA00003D31846111A04E038E084F824100AB17E
:100CB00010462162617811B1012923D02BE0296807
:100CC000B1F850201144227801EB021101F20441E5
:100CD00048B13E280FD84208C30700D0521C0BEA87
:100CE00082220A8017E00A8822F4F8420A800A88E1
:100CF00042F40042F5E74209C30600D1521E4EEA13
:100D00008222EEE72968B1F850201144227801EBE5
:100D10000211A1F8040483B22289B3E04FF006085F
:100D200008EBC208E0440AEB480C30F80C00C0F3B2
:100D30000900834211D31B1AA3610FD0730407D497
:100D40002E6836F822303B4043EA090326F8223069
:100D500094F82420012A50D098E0A161607810B165
:100D6000012813D01AE02868B0F85030184400EB7E
:100D70000210B0F8042422F4F842A0F80424B0F8D9
:100D8000042442F40042A0F8042407E02868B0F8E4
:100D90005030184400EB0210A0F804146278286860
:100DA00012B1012A11D018E0B0F85010084421788F
:100DB00000EB0110B0F80C1421F4F841A0F80C1469
:100DC000B0F80C1441F4004105E0B0F85020104494
:100DD000227800EB0210A0F80C1421782846FFF7C7
:100DE000F4FD700452D42278296831F8220038408A
:100DF00040EA090021F8220048E062690244626189
:100E0000E2690244E2612369226A9A4203D31846E6
:100E1000111A216204E00AB11046216284F82410FC
:100E20006278296812B1012A22D029E0B1F8502055
:100E30001144227801EB021101F20C4148B13E2825
:100E40000FD84208C30700D0521C0BEA82220A8046
:100E500016E00A8822F4F8420A800A8842F4004226
:100E6000F5E74209C30600D1521E4EEA8222EEE7A0
:100E7000B1F850201144227801EB0211A1F80C04C2
:100E8000628983B26169286802F038FF21782A6894
:100E900032F8210048F6BF73184080F0300048F265
:100EA0008003184322F821000020BDE8F09F10B510
:100EB000044690F8A80201280AD0012084F8A8026C
:100EC000080607D501F00701206802F0ECFE04E0F7
:100ED000022010BD206802F0E4FE002084F8A80281
:100EE00010BD01F0070101EB810100EBC100D0F85A
:100EF000840170472DE9F04104460F0601F0070018
:100F000000EB800104EBC1014FF001064FF000053A
:100F100003D581F82960283103E081F8695101F592
:100F2000B47108700A61CB704A7802B1C881022B93
:100F300000D10D7194F8A802012809D084F8A862A4
:100F4000206802F07FF9284684F8A852BDE8F081B5
:100F50000220FBE770B50C4601F0070505EB8501A3
:100F600000EBC101C1E95F230022C1F8842181F8AF
:100F7000692181F8685101F5B4716207006802F0D7
:100F800081FB002070BD70B504460D4601F00700DE
:100F90006168884201D9012070BD29064FF0000622
:100FA0004FF0010207D500EB800104EBC10181F88D
:100FB0002920283107E005EB850104EBC10181F808
:100FC000696101F5B4718A70087094F8A80201286B
:100FD00007D084F8A822206802F03BFB680702D003
:100FE00006E0022070BD04F52C71206802F0F3FACF
:100FF00084F8A862002070BD70B50C4601F00705AA
:1010000005EB850100EBC101C1E90F23012281F845
:101010004C208B6400234B6481F8292001F8285F61
:101020006207006802F02EFB002070BD1FB5044669
:10103000006802F041FE000402D5204600F01AFECE
:10104000206802F039FE40050CD5206830F8441FB6
:1010500021F480610180204600F01EF90021204625
:1010600000F035F9206802F027FE400405D520681D
:1010700030F8441F21F480410180206802F01CFEFA
:10108000800405D5206830F8441F21F40051018008
:10109000206802F011FEC00414D5206830F8401F0B
:1010A00021F004010180206830F8401F21F0080180
:1010B0000180204600F003F9206830F8441F21F435
:1010C00080510180206802F0F7FD00053ED52268BE
:1010D0000020694632F8203021F81030401CC0B2A0
:1010E0000828F7D332F8400F40F001001080206844
:1010F00030F8402F22F0010202802068B0F844202E
:101100005205FBD530F8442F22F480620280002083
:10111000236831F8102023F82020401CC0B2082892
:10112000F6D3206830F8401F41F0080101802068A4
:1011300030F8441F21F400610180206830F8401F1E
:1011400041F004010180204600F0F6F8206802F02A
:10115000B3FD800508D5206830F8441F21F40071E4
:101160000180204600F0AFF8206802F0A5FDC00520
:1011700005D5206830F8441F21F4807101801FBD1F
:101180002DE9F04186B0040004D094F8A9020025AE
:1011900020B108E0012006B0BDE8F08184F8A85233
:1011A000204600F05BF8032084F8A902206802F0D2
:1011B0000BFA04F11001142288466846FFF77CF808
:1011C00094E80F0002F06AF90226D0BB00212068E3
:1011D00002F08CFD002001270FE000BF00EB800132
:1011E00004EBC10181F8297001F8280FC881CD7086
:1011F0000D614D61401CC0B28D6161688142EDD8C6
:10120000002011E000EB800104EBC10181F869517D
:1012100081F8680181F86B51C1F87851C1F87C51AF
:10122000401CC0B2C1F8805161688142EAD81422E2
:1012300041466846FFF740F894E80F0002F0BBF91A
:1012400010B184F8A962A5E784F8245084F8A97243
:10125000206802F0AEF900209DE7000008B50068A4
:101260000B49884212D10B48C16941F40001C161A8
:10127000C069002200F40000009011461420FFF71E
:1012800053FBBDE808401420FFF740BB08BD000039
:10129000005C00400010024070B5044680680125E3
:1012A000022801D0FFF79FF82946D4F8E80201F0A0
:1012B000A6FCD4F8E802BDE8704001F062BCD0F8AA
:1012C000E80201F086BCD0F8E80201F08CBC10B551
:1012D000044690F8A80201280BD0012084F8A80247
:1012E00084F82410206802F003FD002084F8A8028E
:1012F00010BD022010BDD0F8E82200F52C71104678
:1013000001F089BC10B5044690F8A802012810D05D
:10131000012084F8A802206802F0BAFC01212046CE
:10132000FFF752FB206802F042F9002084F8A8027F
:1013300010BD022010BD000010B50446D0F8E80230
:1013400001F0A8FCA069002804D00348016841F01E
:101350000601016010BD000010ED00E02DE9F8432A
:1013600005460078354CC00754D0E0690026C0001F
:1013700008D4E06940F08050E061E069012600F0A7
:10138000805000902E480168C90512D4016880463B
:1013900041F480710160FFF75BFA074605E000BF8A
:1013A000FFF756FAC01B642823D8D8F80000C00500
:1013B000F6D5206A10F4407021D0A98801F440715C
:1013C00081421CD0206A1F49012220F440700A602B
:1013D00000220A602062C00711D0FFF739FA0746E1
:1013E00041F2883808E000BFFFF732FAC11B4145DF
:1013F00002D90320BDE8F883206A8007F4D5206A6B
:10140000696820F44070084320621EB1E06920F052
:101410008050E0612878800705D56068A96820F4CD
:101420004040084360602878C00605D56068E968D8
:1014300020F48000084360600020DBE700100240D9
:1014400000700040400442422DE9F0470F4605007D
:1014500061D0434E306800F00700B84209D23068CE
:1014600020F0070038433060306800F00700B842D1
:1014700051D128683B4C810712D5400703D56068DD
:1014800040F4E06060602878000703D5606840F4AD
:10149000605060606068A96820F0F00008436060F8
:1014A0002878C00728D06868012810D02168022851
:1014B00010D0890700292EDA616821F00301014369
:1014C0006160FFF7C5F9804641F288390DE0216877
:1014D0008903EFE78901EDE7FFF7BAF9A0EB08010F
:1014E000494502D90320BDE8F0876068696800F0CB
:1014F0000C00B0EB810FEFD1306800F00700B8426C
:101500000BD9306820F0070038433060306800F0B5
:101510000700B84201D00120E5E72878400705D54B
:101520006068E96820F4E06008436060287800079C
:1015300006D56068296920F4605040EAC100606007
:1015400000F018F86168084AC1F30311515CC84003
:101550000649086006480068FFF79AF90020C2E7CC
:101560000020024000100240903D0008840000204E
:101570007C00002012A185B00FC98DE80F0014A0D7
:10158000144A006804905168134801F00C03042BBE
:1015900010D0082B0ED1C1F38343C9031DF80300FB
:1015A0000AD5516804AAC1F34041515C0A4A50432C
:1015B000B0FBF1F005B0704708494843FAE7000076
:1015C00002030405060708090A0B0C0D0E0F101084
:1015D000010200000010024000127A0000093D00E4
:1015E0002DE9F84F040070D02078C04DC00749D0D5
:1015F0006868C0F38100012807D06868C0F38100E3
:10160000022809D16868C00306D52868800339D547
:1016100060680028E7D035E06068B0F5803F0BD007
:1016200010B1B0F5A02F11D0286820F480302860C8
:10163000286820F4802002E0286840F48030286088
:10164000606890B1FFF704F906460AE0286840F4A4
:1016500080202860F0E700BFFFF7FAF8801B6428BD
:1016600073D828688003F7D50CE0FFF7F1F8064639
:1016700005E000BFFFF7ECF8801B6428F0D828686D
:101680008003F7D420789A4E80074FF001094FF07D
:10169000000839D5686810F00C0F07D06868C0F3EF
:1016A0008100022809D16868C00306D42868800731
:1016B00014D52069012808D110E02069B0B1C6F81E
:1016C0000090FFF7C5F8074605E00AE1FFF7C0F80C
:1016D000C01B0228C4D828688007F7D5286861692C
:1016E00020F0F80040EAC10028600DE0C6F8008054
:1016F000FFF7AEF8074604E0FFF7AAF8C01B022880
:1017000023D828688007F7D4207800072CD579489B
:10171000A169D9B1C0F80090FFF79AF8074604E034
:10172000FFF796F8C01B02280FD8686A8007F7D524
:1017300071484FF4FA510068B0FBF1F0009000BF1F
:101740000098411E0091FAD20EE080E0C0F80080BF
:10175000FFF77EF8074604E0FFF77AF8C01B02287F
:1017600075D8686A8007F7D42078400760D5E869A3
:101770000027C00008D4E86940F08050E861E869BB
:10178000012700F0805000905C480168C90513D41F
:101790000168834641F480710160FFF759F8824681
:1017A00006E000BFFFF754F8A0EB0A0064284ED80B
:1017B000DBF80000C005F5D5E06801280AD008B1C3
:1017C000052813D0286A20F001002862286A20F03A
:1017D000040002E0286A40F001002862E06841F25B
:1017E000883B98B1FFF734F882460BE0286A40F056
:1017F00004002862EEE700BFFFF72AF8A0EB0A0119
:1018000059455AD8286A8007F6D50CE0FFF720F82A
:10181000824605E0FFF71CF8A0EB0A0159454CD8B9
:10182000286A8007F6D41FB1E86920F08050E8618B
:10183000E06988B36968C1F38101022944D00228B4
:10184000C6F8608004D0FFF703F8044638E034E0BF
:10185000FEF7FEFF074604E0FEF7FAFFC01B022872
:101860002BD828688001F7D4206AB0F5803F05D1D5
:101870006868A16820F4003008436860D4E9080172
:101880000843696821F4741108436860C6F86090E1
:10189000FEF7DEFF044606E025E000BFFEF7D8FFB6
:1018A000001B022809D828688001F7D51BE000BF7B
:1018B000FEF7CEFF001B022802D90320BDE8F88FF7
:1018C00028688001F4D40EE00128F7D06868226A05
:1018D00000F48031914204D1616A00F470108842B2
:1018E00001D00120EAE70020E8E7000000100240F4
:1018F0000000424280044242840000200070004008
:1019000010B5401EB0F1807F01D3012010BD4FF013
:10191000E02460610F21601702F004FA0020A0614A
:1019200007202061002010BDFEE70000F0B5002375
:101930000A24302537261F4611E000BFB4EB107F84
:1019400002D905EB107C01E006EB107C01F813C016
:1019500001EB430C00015B1C8CF80170DBB293427D
:10196000ECD3F0BD70B5D0F8B842054694F8180431
:1019700040B9D4F8140428B1607A18B90121284676
:1019800001F076F98121284601F072F9607A022887
:1019900008D104F20C422846BDE870401F23012103
:1019A00001F0E6B870BD000070B5D0F8B842054649
:1019B0000121D4F81004C4F83004D4F81404C4F895
:1019C0003404284601F07CF81F280DD12849D4F8AA
:1019D0000C04884208D194F81914012904D894F809
:1019E0001A0408B1102809D994F8191420230522E3
:1019F000284600F02CFD0220607209E004F21B4230
:101A0000284600F0EDFA0028207A08DA052804D0EC
:101A10002846BDE87040FFF7A5BF012122E002285B
:101A200025D0012823D0032821D06689CEB1D5F84E
:101A3000B812284604F10C02D1F81434B34200D392
:101A40003346D1F834449BB2A41BC1F8344400247B
:101A500081F8384404240C72BDE87040812101F003
:101A600022B900212846BDE8704000F083B870BD5F
:101A70005553424310B5D0F8B842627A022A08D0D2
:101A800009060BD5012A09D0BDE81040012100F05C
:101A900071B8812101F0ECF80020607210BD10B522
:101AA000D0F8B8220446107A022805D0032801D0C5
:101AB000042810D1002109E092F81914204602F2FE
:101AC0001B4200F08DFA002805DA01212046BDE80E
:101AD000104000F04FB810BD10B5D0F8B822044641
:101AE000107A80B1012813D192F81914204602F21D
:101AF0001B4200F075FA00280ADA2046BDE81040C3
:101B0000012100F037B82046BDE81040FFF74CBF78
:101B100010BDD0F8B80200210172704770B5D0F83E
:101B2000B842002105462172617284F85D1484F880
:101B30005C14D0F8BC0201680020884701212846C7
:101B400000F0B5FF8121284600F0B1FF04F20C42FD
:101B50002846BDE870401F23012101F009B8D0F8E4
:101B6000B82200211172012151721F2302F20C428E
:101B700000F0FEBF70B5D0F8B84205460B48C4F877
:101B80002C0484F83814002020720D2304F22C4217
:101B90008121284601F087F804F20C422846BDE86E
:101BA00070401F23012100F0E3BF00005553425352
:101BB00000B585B00020019003901648816941F07E
:101BC00010018161816901F010010491816941F086
:101BD00020018161816901F020010491816941F056
:101BE00008018161816901F008010491816941F076
:101BF000040181618069694600F0040004904FF49B
:101C000000600090012002900348FEF72BFD05B014
:101C100000BD000000100240000C014010B5002281
:101C20000F49104800F078FE08B1FEF7DCFB0E49C2
:101C30000C4801F04FF908B1FEF7D5FB0B490948F4
:101C400001F0A4F808B1FEF7CEFB064801F098F9C0
:101C5000002803D0BDE81040FEF7C5BB10BD000052
:101C600008000020300100208C00002058000020D7
:101C7000FEE7FEE72DE9F84F044640F68F7B48F675
:101C80000F7A4FF002094FF4806874E1B0F8441005
:101C900011F00F063AD030F8267039047DD530F8AF
:101CA000261001EA0B0141F0800120F8261006EB16
:101CB000860004EBC00595F8740105F5B47500289D
:101CC0006CD0E87802286AD02878226832F8201090
:101CD00048F68F73194048F2C003194322F82010C8
:101CE0002878D4F800C03CF82010BCF850204904F3
:101CF0007ED509EBC000111808EB41003CF800004C
:101D00008005800D009074D02A89D8E0C9062DD4B2
:101D1000018801EA0A0141F400410180216804F1CF
:101D20002805B1F850202B7809EBC300024408EBDA
:101D30004200085AC0F309006064E16B0844E063A4
:101D400000212046FEF741FE94F8240000289CD094
:101D5000A869002899D194F82400216840F08000F7
:101D6000A1F84C00002084F8240004E1018804F567
:101D7000B4750A0521D5B0F850202B78062101EB67
:101D8000C3010A4408EB4201405A04F52C71C0F328
:101D90000903EB61EA88206802E0ACE068E07AE0E1
:101DA00001F08EFF2168088800EA0B0040F08000F7
:101DB00008802046FFF79FFADDE00904D5D50188A9
:101DC00001EA0B0141F0800101802068B0F8502049
:101DD0002B78062101EBC3010A4408EB4201405A6B
:101DE00083059B0DEB6110D0696971B1EA8801E050
:101DF00058E056E0206801F063FFE969686908442B
:101E0000686100212046FEF7E9FD20680188090588
:101E10002DD4B0F850100844296900F20C4051B19B
:101E20003E2910D84A08C90700D0521C4FF6FF714E
:101E300001EA82210FE0018821F4F8410180018844
:101E400041F4004107E04A09C90600D1521E4FF48F
:101E5000004141EA82210180206801884BF68F729F
:101E6000114081F4405148F280021143018082E028
:101E7000D4F800C0BCF850102A78062000EBC2004D
:101E8000014408EB41003CF800008005800D009003
:101E90001AD0EA8813E03A4629462046FEF7FCFDB0
:101EA000009011E0062101EBC000111808EB410081
:101EB0003CF800008005800D009005D06A8903463B
:101EC0006046696901F0FCFEE96900980844E86130
:101ED0006969009808446861A86918B1296900987F
:101EE000814204D929782046FEF778FD03E029468F
:101EF000206801F0C7FB38063DD506EB860004EBF1
:101F0000C001206830F8262002EA0A0242F40042AA
:101F100020F8262091F82B002831032804D018B18E
:101F2000022824D1F80522D42368B3F850200D7874
:101F300009EBC500024408EB4200185A8A69C0F355
:101F4000090082420CD9121A8A610BD04A690244F4
:101F50004A61CA691044C861206801F093FB0AE035
:101F600000208861E9B22046FEF72FFD03E03A46E3
:101F70002046FEF704FE2068B0F8441009043FF53F
:101F800085AE0020BDE8F88F70470000084972B6A2
:101F90000868084A1040B0F1005F08D1081D0068C9
:101FA000054A10605060096881F30888004770474F
:101FB000009C00080000FE2F0000002010B5D0F8A3
:101FC000B8421A44D4F860349A4206D92123052233
:101FD00000F03DFA4FF0FF3010BD002010BD0000B2
:101FE0002DE9F04113780024232B7DD00DDC1A2B32
:101FF0007BD005DCEBB1032B39D0122B11D163E080
:102000001B2B01D01E2B0CD18DE02A2B6ED004DCB3
:10201000252B6CD0282B04D1ABE02F2B68D05A2B6A
:1020200067D02023052200F012FA4FF0FF30BDE800
:10203000F081D0F8B87205460E46D7F8140428B1DE
:10204000202397F81914052228469FE0D5F8BC02F2
:1020500081683046884740B13A23022231462846FB
:1020600000F0F5F9052038729BE07C8199E0D0F80A
:10207000B80200214318491CC9B21C731229F9D3B4
:10208000702101730C21C17490F85C1490F85D34D8
:10209000994212D000EBC103491C93F83C5485735C
:1020A00093F84154057693F84034C9B2437680F8EA
:1020B0005C14042901D180F85C441221418111791A
:1020C00012296ED841816CE05478D0F8B832E40718
:1020D00012D0072034495881401E0004000C03EB45
:1020E00000040A5C227305E03DE020E044E03DE0AE
:1020F00045E02AE0F0D154E0D0F8BC0201EBC10188
:102100001279C06900EB81010879401D824200D834
:102110001046588104E0401E80B21C180A5C2273ED
:102120000028F8D13DE0D0F8B802448139E0D0F879
:10213000B81208201D4A4881401E0004000C01EB23
:102140000004135C2373F7D12BE0D0F8B802082108
:10215000174A4181491E0904090C00EB0104535C34
:102160002373F7D11DE000F03BF91AE000F00DF900
:1021700017E000F0BCF814E000F083F911E05278A9
:10218000D0F8B852920704D52423052200F05FF955
:1021900007E005F264420CCAFFF710FF002800DBDD
:1021A0006C81002043E70000A03D0008A73D000827
:1021B000AF3D00082DE9F041D0F8B84206460F4681
:1021C000B4F85E04D4F868544FF4806145438D42FE
:1021D00000D30D46B5FBF0F083B2D6F8BC0204F193
:1021E0000C01D4F86424D0F810C088463846E04783
:1021F000002809DA112304223946304600F027F975
:102200004FF0FF30BDE8F081ABB24246812130464D
:1022100000F049FDB4F85E04D4F86424B5FBF0F195
:10222000B5FBF0F01144C4F86414D4F86814081A2B
:10223000C4F86804D4F83414A1EB0501C4F83414CC
:1022400001D1032020720020DCE72DE9F047D0F80F
:10225000B84207464FF48065B4F85E04D4F8686469
:1022600088464643AE4200D32E46B6FBF0F083B21A
:10227000D7F8BC0204F10C01D4F86424D0F814C0DF
:1022800089464046E047002809DA032304224146F4
:10229000384600F0DCF84FF0FF30BDE8F087B4F8C6
:1022A0005E14D4F86424B6FBF1F01044C4F864045E
:1022B000B6FBF1F0D4F86824101AC4F86804D4F816
:1022C0003424A2EB0602C4F834240BD04843A842BD
:1022D00000D3284683B24A460121384600F048FC24
:1022E0000020DAE700213846FFF744FCF8E72DE943
:1022F000F041D0F8B84206461546207A8846D0BB51
:1023000094F818044FF0FF3700062FD5D6F8BC021A
:1023100081684046884730B13A2302224146304620
:1023200000F095F814E06888297940BA000440EA82
:102330000122687941460243C4F86424B5F80700D5
:1023400043BA3046C4F86834FFF738FE002802DA92
:102350003846BDE8F08102202072B4F85E14D4F84B
:1023600068044843D4F81414884205D0202394F814
:1023700019140522D3E7FFE74FF4806060814146DE
:102380003046BDE8F041FFF715BF70B505460E4673
:10239000D5E9AE4004F25E424368911C304698474E
:1023A00040B13A2302223146284600F050F84FF05F
:1023B000FF3070BDD4F86004401E010E2173010C83
:1023C0006173010AA173E073002020746074B4F893
:1023D0005E04010AA174E07408206081002070BDD1
:1023E0002DE9FC410546D0F8B84200200F460646CC
:1023F0002118401C80B20E730C28F9D3D5F8BC020A
:102400006A4601A943683846984748B13A230222F0
:102410003946284600F01BF84FF0FF30BDE8FC813C
:102420000820E0730198401E010E2174010C6174B4
:10243000010AA174E074022020756675BDF80000E1
:10244000010AA175E0750C2060810020E6E7D0F854
:10245000B80290F85D1400EBC10181F83C2490F8BB
:102460005D24002100EBC20282F8401490F85D2444
:10247000521CD2B280F85D24042A01D180F85D1488
:1024800070472DE9F041D0F8B84206461546207A4B
:10249000884620B13046BDE8F041FFF7D6BE94F83B
:1024A00018044FF0FF37000636D4D6F8BC02816816
:1024B0004046884728B13A230AE03046FFF7C7FF75
:1024C0001EE0D6F8BC02C1684046884718B12723F1
:1024D00002224146F1E76888297940BA000440EABF
:1024E0000122687941460243C4F86424B5F8070024
:1024F00043BA3046C4F86834FFF760FD002802DABA
:102500003846BDE8F081B4F85E14D4F86804484356
:10251000D4F81414814204D0202394F8191405220D
:10252000CBE74FF48061884200D30846012183B293
:10253000217204F10C02304600F01AFB0020E0E7A3
:10254000302008604FF48060108000207047002029
:10255000704700207047002070470020704700003F
:1025600010B50C4608B1022010BD0549980201EBD8
:10257000822102462046FDF75AFE002010BD0000D1
:10258000004000082DE9F04188B01D4616468846F7
:1025900018B1022008B0BDE8F081FEF74FF8002026
:1025A0000F4F0190059007EB8621CDE9031505A992
:1025B00001A8FDF7A5FF00240BE000BF04EB862077
:1025C000C11958F8042000230220FDF7F7FF241D4D
:1025D000A4B2B4EB852FF1D3FDF7E6FF0020D9E7D5
:1025E000004000087047FEF739B930B593B0282194
:1025F0006846FDF793FE14210AA8FDF78FFE00241C
:1026000001200F9410941194010412948DE813008A
:1026100004900005CDE90810022507956846FEF7ED
:10262000DFFF08B172B6FEE70F20CDE90A054FF4CF
:102630008060CDE90C4001210AA80E94FEF704FF4A
:1026400008B172B6FEE710200F90800412900FA818
:10265000FEF784FE002801D072B6FEE713B030BD4D
:10266000704710B5D0F8B42252689047002010BDD2
:10267000134610B50A46002100F07AFA002010BD7A
:10268000134610B50A46002100F00DFB002010BDD6
:1026900010B50446802100F0EBFA2046BDE810405A
:1026A000002100F0E5BA10B505210023C0F894120E
:1026B0001A46194600F05CFA002010BD10B502233E
:1026C000C261C0F89432026213460A46002100F04B
:1026D000EAFA002010BD10B504210023C0F89412BE
:1026E0001A46194600F0DFFA002010BD10B50A4660
:1026F000024903A000F0E0F8004810BDF4030020F8
:102700004D534320436F6E666967000012200880B6
:10271000004870472800002010B50A46024903A06F
:1027200000F0CAF8004810BDF40300204D534320C8
:10273000496E74657266616365000000042008805C
:10274000004870472400002010B50A46024903A043
:1027500000F0B2F8004810BDF403002053544D6956
:1027600063726F656C656374726F6E69637300008A
:1027700010B50A46024903A000F09EF8004810BDBB
:10278000F403002053544D3332204D6173732053B2
:10279000746F72616765000010B51A2008800A48DE
:1027A0000168001D0468001D0068081809D008228F
:1027B0000649FFF7BBF80549042210312046FFF710
:1027C000B5F80248801E10BDE8F7FF1F3E0000204C
:1027D000F8B504460020ADF8000048880D46010A0F
:1027E000082948D2DFE801F04704091747473C456C
:1027F000D4F8B012207C0A6819E0207C0226002858
:10280000D4F8B40205D0C16A6846884701464670CC
:102810003EE0816AF8E7C0B206282CD2DFE800F07B
:10282000030A1014181CD4F8B002426805E0694687
:1028300090471CE0D4F8B0028268E2B1207CF6E751
:10284000D4F8B002C268F8E7D4F8B0020269F4E73D
:10285000D4F8B0024269F0E7D4F8B0028269ECE73C
:10286000207C40B9D4F8B402416B684688470146E1
:102870000EE0207C20B129462046FFF709FFF8BD75
:10288000D4F8B402016B68468847014607204870B7
:10289000BDF8000048B1EA8852B1824200D9024630
:1028A000ADF800202046FFF709FFE8880028E6D1B0
:1028B0002046FFF710FFF8BD70B5002300281ED09A
:1028C0000446002502E06D1CEDB2641C2678002E43
:1028D000F9D1022404EB450414801278CA545B1C1D
:1028E0000322CA5400245B1C06E0CA545B1CDAB203
:1028F0008C54521CD3B2401C0278002AF5D170BD12
:1029000001004FF0000004D0012901D0022901D0BC
:10291000022070470120704710B580B1D0F8B43262
:1029200013B10023C0F8B43209B1C0F8B0120121CC
:1029300080F89C12027000F0C7F8002010BD022041
:1029400010BD10B5D0F8C002FEF778F8BDE8104011
:10295000FFF7D6BF10B5D0F8C002FEF749F8BDE8C2
:102960001040FFF7CDBF2DE9F0411746044651B1A5
:10297000D4F8B40242691AB194F89C02032851D0E9
:102980000220BDE8F081D4F89432002504F114004F
:10299000022B03D0042B3AD0C3B33CE0D0E903634D
:1029A0009E4207D9F11AC1608AB239462046FFF724
:1029B00067FE12E08068B0FBF3F103FB110199B9E7
:1029C000984211D3D4F8981288420DD200221146B1
:1029D0002046FFF755FEC4F8985200231A461946C0
:1029E000204600F0C5F816E0D4F8B402C16829B159
:1029F00094F89C02032801D1204688478021204674
:102A000000F036F92046FFF74EFE04E0FFE7802194
:102A1000204600F02DF994F8A002012804D184F892
:102A2000A05201E0204690470020AAE770B5154665
:102A3000044649B1D4F8B40282691AB194F89C02F0
:102A4000032830D0022070BDD4F8941204F5AA7087
:102A5000032902D005291ED027E0D0E903218A42AC
:102A60000BD9531AC3600846834200D303469AB277
:102A700029462046FFF7FCFD17E0D4F8B4020169AF
:102A800029B194F89C02032801D1204688472046AA
:102A9000FFF721FE09E000200146C4F89402204619
:102AA00000F0E6F801E020469047002070BD10B528
:102AB000D0F8C002FEF7FBF9BDE81040FFF720BFD9
:102AC000D0F8C002FEF70DBA10B519490446C1F896
:102AD000E802C0F8C01217480860082048600220C9
:102AE000886000208861C86108620846FEF748FBDC
:102AF00008B1FDF778FC0022D4F8C0021823114673
:102B000004F53074FDF742FF58230022802120682D
:102B1000FDF73CFF9823002281212068FDF736FF56
:102B2000D823002201212068FDF730FF002010BDCE
:102B3000640A0020005C00400A0601F07F01D0F822
:102B4000C00201EB810100EBC10002D590F82A0020
:102B5000704790F86A01704710B51C461346D0F8CC
:102B6000C0022246FEF7C6F9BDE81040FFF7C8BE16
:102B700010B5D0F8C002FEF7EDF9BDE81040FFF740
:102B8000BFBE70B50022044640231146FFF7E4FFA4
:102B900040260125C4F86461334600228021204686
:102BA000C4F85851FFF7D8FF6662A56184F89C52BB
:102BB0000020C4F894026060C4F8A402D4F8B802FB
:102BC00028B1D4F8B4020021426820469047002082
:102BD00070BD90F89C12042903D190F89D1280F8E2
:102BE0009C120020704710B590F89C12032904D164
:102BF000D0F8B412C96901B18847002010BD017432
:102C00000020704710B5D0F8C002FEF760FBBDE8A9
:102C10001040FFF775BE70B5044600F52A700546F2
:102C200000F044F90120C4F89402B4F8AE02C4F8EC
:102C3000980294F8A80210F01F010AD001290DD0C3
:102C4000022910D000F08001204600F011F8002089
:102C500070BD2946204600F098F9F8E7294620463D
:102C600000F0C4FAF3E72946204600F017FAEEE731
:102C700010B5D0F8C002FEF786F9BDE81040FFF7A6
:102C80003FBE10B5D0F8C002FEF73CFBBDE81040D7
:102C9000FFF736BE90F89C1280F89D12042180F850
:102CA0009C120020704710B5D0F8C002FEF7A4F9BE
:102CB000BDE81040FFF724BE10B5FEF7F0FE00207F
:102CC00010BD10B5FEF708FF002010BD70B504461A
:102CD0000121FFF73FFE002581212046C4F86C51F9
:102CE000FFF738FE2046E562FEF713FFD4F8B8027E
:102CF00018B100F0A2FAC4F8B852002070BD00006C
:102D00000A21018000487047240100202021018011
:102D100000487047E40000202021018000487047EF
:102D2000C4000020202101800048704704010020D9
:102D300070B50446007C0125D0B140230222012158
:102D40002046FFF709FF4023C4F86C51022281217D
:102D50002046FFF701FF40F26C40E56200F06EFA9A
:102D6000C4F8B80280B12046FEF7D8FE002070BD3E
:102D70004FF400763346022201212046FFF7ECFE95
:102D80003346C4F86C51E1E7022070BD09B1C0F8C8
:102D9000BC12002070472DE9F8430026D0F8B87225
:102DA0000546ADF8006008780C46B04610F06001AA
:102DB00020D020293DD16178FE2902D0FF2938D1C9
:102DC0000EE0618881BBE188012932D1000630D54F
:102DD000D5F8BC02806980470122394638601FE07F
:102DE000618809BBE188F9B9000622D42846FEF7BC
:102DF000B6FE23E0607830B1012825D00A2809D03A
:102E00000B2816D111E095F89C02032811D102225B
:102E1000694605E095F89C0203280AD10122391D74
:102E20002846FFF74BFC09E003E095F89C020328D5
:102E300007D021462846FFF72BFC02263046BDE886
:102E4000F883A0787860F9E721792846FFF72FFE0C
:102E500021792846FFF77EFDA0884FF00107010683
:102E600000F00F0000EB80004FF4007305EB8000D2
:102E70000BD5C0F81880287C00B1402302228121A4
:102E80002846FFF769FEEF620BE0C0F85881287C06
:102E900000B14023022201212846FFF75DFEC5F85C
:102EA0006C7121792846FEF7E5FDC7E70A780270C4
:102EB0004A7842708A78CB7802EB032242800A7902
:102EC0004B7902EB032282808A79C97902EB0121D6
:102ED000C18070470246002011B1C2F8B412704799
:102EE0000220704710B5D0F8B42202241AB112683B
:102EF000904700B90024204610BD000070B50E4672
:102F00001E4D897804462970012931D894F89C0215
:102F100002280BD003280FD031462046FFF7B8FB1C
:102F200029782046BDE87040FFF79BBBD9B103204C
:102F3000616084F89C0209E071B16068884212D037
:102F4000C1B22046FFF78DFB297861602046FFF76C
:102F5000C9FF02280CD006E0022084F89C0220461B
:102F60006160FFF77EFB2046BDE87040FFF7B3BB12
:102F700031462046BDE87040FFF78ABB880000203C
:102F800010B5FFF77EFE002010BD2DE9F0410A7854
:102F9000002612F0600208D0202A01D0402A70D109
:102FA000D0F8B422926890476DE04B78002201255A
:102FB0000A2B66D2DFE803F0405D655765080565BA
:102FC0002C29FFF705FC5EE004468888D8B9C8883C
:102FD000C8B94888802816D200F07F0794F89C0270
:102FE000032810D084F89E7239462046FFF70AFE67
:102FF0002046FFF770FB1FB1022084F89C0242E0DC
:1030000084F89C523FE020463BE0FFF777FF3AE030
:10301000CB88012B35D190F89C32012B04D0022BA8
:1030200002D0032B2DD104E08260012200F10801BF
:1030300016E00122011D13E090F89C22012A03D022
:10304000022A01D0032A1CD1CA88022A19D1C560DC
:10305000D0F8A41209B10321C160022200F10C01D1
:10306000FFF72CFB0FE0498801290CD1C0F8A452CE
:1030700011E090F89C32012B08D0022B06D0032BD4
:1030800004D0FFF705FB3046BDE8F08149880129EF
:10309000F9D1C0F8A422FFF71EFBF4E72DE9F041B7
:1030A0000A46044610780027097910F060030AD018
:1030B000202B01D0402B50D1D4F8B40211468368A4
:1030C000204698478FE0C0F34110012806D0507881
:1030D000D0B301282AD003283FD107E0D4F8B402A6
:1030E000114683682046BDE8F041184794F89C02D9
:1030F000022802D0032872D10AE071B380296ED071
:103100002046FFF7B5FD80212046FFF7B1FD6AE0BC
:10311000508838B931B1802904D0D08810B9204600
:10312000FFF7A6FD2046FFF7D6FA5CE094F89C0274
:103130000228E2D0032852D1508898BB4806F1D02B
:103140002046FFF7FEFBEDE7FFE794F89C02002620
:10315000022803D0032842D112E040E009B18029BF
:103160003DD1080601F07F0000EB800004EB8001F8
:1031700001D5143101E001F5AA7102220E602AE0A6
:10318000080601F00F0000EB800004EB80000AD578
:10319000806920B301F07F0000EB800004EB800524
:1031A00014350BE01FE0D0F85801C0B101F07F00EA
:1031B00000EB800004EB800505F5AA7541B180297C
:1031C00006D02046FFF7B8FC10B10120286000E0CF
:1031D0002E60022229462046FFF770FA03E01146CE
:1031E0002046FFF755FA3846BDE8F08170B5054630
:1031F00008780C4610F0600003D0202801D0402849
:1032000016D195F89C02012803D0022801D003288A
:103210000ED1207901280BD8D5F8B402826828464F
:103220009047E188014306D12846FFF754FA02E0AF
:103230002846FFF72DFA002070BD70470048704700
:10324000F40500202DE9F0470C78002630F82430F2
:1032500048F68F121340CA78002A7DD0012A7CD00C
:10326000022A02D0032A7FD0012648F280021343AB
:1032700020F824300D7830F8254048F68F731C4034
:103280002C43144320F825400D7B48F2C00C48F62F
:10329000BF744CF280074BF68F79EDB391F8008044
:1032A000C24630F8285048F280181D4045EA08050B
:1032B00020F82A50B0F8505091F80080054405EBF2
:1032C0000815B1F8088028F00108A5F80084B0F8C6
:1032D000505091F80080054405EB0815B1F80A80BC
:1032E00028F00108A5F808844D78002D0D7830F8F5
:1032F00025804FEA48487DD0B8F1000F07DA30F852
:10330000258008EA030848EA070820F825800F7896
:1033100030F827506D0600E02CE006D530F8275035
:103320001D4045EA0C0520F82750CB780D78012B7D
:1033300030F8253003EA040301D083F0200313435F
:1033400020F825300B7830F8231001EA09011143E9
:1033500020F82310304602E003E008E004E0BDE876
:10336000F08743F4007380E743F4C0637DE743F4E0
:1033700080637AE74D782DB3B0F850500F7805444C
:1033800005EB0715CF8827F00107A5F800740F7823
:1033900030F827506D0606D530F827501D4045EA15
:1033A0000C0520F82750CB78012B06D00B7830F88D
:1033B0002310214081F02001C9E70B7830F8231059
:1033C0002140C4E7B0F850400D78044404EB0514E4
:1033D000CD8825F00105A4F80854B0F850400D78C8
:1033E000044404EB05140D6904F20C4475B13E2D40
:1033F00014D800E030E04FEA550CED0701D00CF195
:10340000010C4FF6FF7505EA8C2511E0258825F49F
:10341000F8452580258845F4004509E04FEA551C0C
:10342000ED0601D1ACF1010C4FF4004545EA8C25C5
:1034300025800D7830F82540640405D530F8254006
:103440001C403C4320F825400B7830F8231001EA5B
:10345000090181F440517AE7B8F1000F07DA30F83A
:10346000258008EA030848EA070820F825800F7835
:1034700030F827506D0606D530F827501D4045EA34
:103480000C0520F827500D7830F8253003EA0903A1
:1034900083F44053134320F825308EE70020704713
:1034A0002DE9F04391F80C804F780A7848F6BF7CFC
:1034B0004BF68F7948F2800348F2C0054CF2800643
:1034C00048F68F74B8F1000F28D0002F30F8227022
:1034D0004FEA474748D0002F05DA30F822702740DE
:1034E000374320F822700A7830F822707F0605D51D
:1034F00030F8227027402F4320F822700D7830F8E2
:1035000025202240324320F825200C7830F8242052
:1035100002EA0C021A4320F824201AE07FB130F8A6
:103520002260760605D530F8226026402E4320F82A
:1035300022600A7830F8221001EA0C010EE030F81F
:1035400022506D0405D530F822502540354320F82F
:1035500022500A7830F8221001EA0901194320F8B4
:1035600022100020BDE8F083002F05DA30F8227029
:103570002740374320F822700A7830F82260760618
:1035800005D530F8226026402E4320F822600E78C0
:1035900030F8262022402A4320F826200C7830F8E4
:1035A000242002EA09021A4320F82420C1E700205F
:1035B000704700207047012120F8401F0021018042
:1035C000818001820846704730F8401F21F43F4156
:1035D0000180002070470020704730B50A7BB2BBE5
:1035E0004A7848F68F7548F28004C2B10B7830F8FB
:1035F0002320520607D530F823202A4048F2C00580
:103600002A4320F82320CA78012A20D00A7830F8EB
:10361000221048F6BF73194081F0200114E00A78A7
:1036200030F822305B0407D530F822302B404CF2C2
:1036300080052B4320F822300A7830F822104BF610
:103640008F73194081F44051214320F8221000204B
:1036500030BD10B54A780978002A48F2800330F866
:10366000212005D048F6BF74224082F0100204E009
:103670004BF68F74224082F480521A4320F82120A6
:10368000002010BD2DE9F0470E464B78097B04461B
:103690004FF0000948F68F7248F2800A4FF6FF7724
:1036A0004FF40048012B09D000296ED0F078022891
:1036B0006CD001286BD00120BDE8F087B569306976
:1036C000854200D90546C9B1F17848F28013022934
:1036D00023D0317834F821001040184324F8210019
:1036E000306A401B3062307834F820104906717817
:1036F0007ED500297DD001297CD03FE1ABB2F28894
:103700002046716900F0FAFAB4F85000317820448C
:1037100000EB0110A0F80454EAE0316A81426AD952
:10372000317834F821001040184324F82100306A21
:10373000401B3062307834F82010490671786CD51F
:1037400011B1012924D02AE0B4F85010214401EB32
:10375000001000F20C404DB13E2D0FD86908EA0769
:1037600000D0491C07EA8121018018E0018821F47A
:10377000F8410180018841F40041F5E76909EA0652
:1037800000D1491E48EA8121EEE79CE1BCE126E236
:10379000B4F85020111901EB0010A0F80C547289F4
:1037A000ABB22046716900F0A9FA706928447061D3
:1037B0003169306A884202D9401B306202E0054616
:1037C000C6F82090707800287CD1B4F85000317889
:1037D000204400EB011000F204406DB13E2D13D8DF
:1037E0006908EA0700D0491C07EA8121018012E03C
:1037F00001E19BE0BBE084E0018821F4F841018015
:10380000018841F40041F1E76909EA0600D1491E47
:1038100048EA8121EAE7328965E011B1012921D026
:1038200027E0B4F85010214401EB001000F20440EE
:103830004DB13E2D0FD86908EA0700D0491C07EAB0
:103840008121018015E0018821F4F841018001887F
:1038500041F40041F5E76909EA0600D1491E48EA4A
:103860008121EEE7B4F85010214401EB0010A0F8DC
:1038700004543289ABB22046716900F03FFA706996
:10388000284470613169306A884202D9401B306235
:1038900002E00546C6F82090707800287ED1B4F882
:1038A00050003178204400EB011000F20C4055B17B
:1038B0003E2D10D86908EA0700D0491C07EA81218B
:1038C00001800FE072E0018821F4F8410180018855
:1038D00041F40041F4E76909EA0600D1491E48EACB
:1038E0008121EDE77289ABB22046716900F006FADA
:1038F000317834F8210048F6BF72104080F0300073
:10390000C0E1327834F8220048F68F63184040EA6C
:103910000A0024F82200B4F850003278204400EB6A
:1039200002108BB2A0F804343289DDE7B4F85010ED
:10393000214401EB001000F20C404DB13E2D0FD898
:103940006908EA0700D0491C07EA8121018015E0D7
:10395000018821F4F8410180018841F40041F5E734
:103960006909EA0600D1491E48EA8121EEE7B4F868
:103970005020111901EB0010A0F80C547289ABB261
:103980002046716900F0BAF97069284470613169A4
:10399000306A884203D9401B306203E06EE005467E
:1039A000C6F82090002DA3D0707858B101287FF47C
:1039B0001EAFB4F850003178204400EB0110A0F89D
:1039C000045428E7B4F850003178204400EB01118A
:1039D00001F204413E2D06D86808EA0700D0401CD9
:1039E00007EA802005E06809EA0600D1401E48EA9F
:1039F000802008800FE711B1012921D027E0B4F819
:103A00005010214401EB001000F204404DB13E2D56
:103A10000FD86908EA0700D0491C07EA8121018014
:103A200015E0018821F4F8410180018841F400414A
:103A3000F5E76909EA0600D1491E48EA8121EEE767
:103A4000B4F85010214401EB0010A0F8045432895E
:103A5000ABB22046716900F051F970692844706179
:103A60003169306A884202D9401B306202E0054663
:103A7000C6F82090002D96D0707858B101287FF4B8
:103A800020AFB4F850100819317800EB0110A0F8FD
:103A90000C5427E7B4F850003178204400EB0111B2
:103AA00001F20C413E2D06D86808EA0700D0401C00
:103AB00007EA802005E06809EA0600D1401E48EACE
:103AC000802008800EE7B1693069814202D9091A65
:103AD000B161B5E00846C6F81890B1E0088820F456
:103AE000F8400880088840F400400BE03E2875D874
:103AF0004208C00700D0521C07EA822002E000BF43
:103B000048EA82200880B5E093B9B4F850003178D3
:103B1000204400EB0110316900F2044069B13E29F4
:103B200013D84B08C90700D05B1C07EA832101802A
:103B3000707888B1012832D03AE0018821F4F84148
:103B40000180018841F40041F1E74B09C90600D129
:103B50005B1E48EA8321EAE7B4F85000317820443C
:103B600000EB0110316900F20C4049B13E290FD839
:103B70004B08C90700D05B1C07EA8321018017E0CE
:103B8000018821F4F8410180018841F40041F5E702
:103B90004B09C90600D15B1E48EA8321EEE7B4F861
:103BA00050100819317800EB0110318AA0F80C147C
:103BB000F069A8B3317834F82100430401D54306F5
:103BC00003D444F24003184254D134F82100104089
:103BD00048F2C002104324F821004BE03CE0B169F8
:103BE0003069814202D9091AB16102E00846C6F87B
:103BF00018908BB9B4F850103278214401EB0211BF
:103C000001F2044168B13E2813D84208C30700D02E
:103C1000521C07EA82220A80717889B1012921D0D9
:103C200028E00A8822F4F8420A800A8842F4004216
:103C3000F1E74209C30600D1521E48EA8222EAE7B0
:103C4000B4F850103278214401EB021101F20C411A
:103C500000287FF44BAF41E74209C0067FF450AF24
:103C6000521E4DE7B4F850201119327801EB0211C1
:103C7000A1F80C04317834F821004BF68F72104013
:103C800080F4405040EA0A0024F82100002013E5A7
:103C90000021A0F844104FF43F41A0F8401000204C
:103CA0007047002070470020704700000148FDF772
:103CB000BDB90000640A0020B0F84400704700005D
:103CC00010B500EB42005C0800F5806009D000BF31
:103CD00030F8042B01F8012B120A01F8012B641EA5
:103CE000F6D1DA0701D00088087010BD00207047B7
:103CF00011B98021A0F84C100020704710B55B1C52
:103D000000EB42005B0800F5806009D011F8012B40
:103D100011F8014B42EA042220F8042B5B1EF5D176
:103D200010BDFEE70907090E002804DB00F1E020C2
:103D300080F80014704700F00F0000F1E02080F8D8
:103D4000141D7047FCF792FDFEF74FFCFDF730FFA6
:103D50004FF400610448FCF775FD10B1FEF716F949
:103D600001E0FDF75BFFFEE7000C0140008002026E
:103D70001F00000053544D202020202050726F64FB
:103D8000756374202020202020202020302E303108
:103D900000000000000000000102030406070809FB
:103DA000000000030080830000000000000000000D
:103DB0000600000000000000D83D000800000020C0
:103DC00030010000280100087C3E0008300100207E
:103DD000A01200008401000881130D271B083D0478
:103DE0001A49041A71041A990413ED261B081908BC
:103DF000170403090412013202164083042A5726CD
:103E00000201020301031A1A031353251B0841047C
:103E10001A57041A5B041A61041A85041A4F041312
:103E20006C3D1A083F1182105324F413312D1408ED
:103E3000CD2C1B089708811AB9101AC304C11A198E
:103E4000201A0D041A25041A01041409022020085E
:103E5000010104C0320904180A02080650050705CA
:103E60008102B02C070501070914202240292019DE
:0C3E7000070B1C0907204B0A06FC29B4B4
:04000005080000ED02
:00000001FF
