:020000040800F2
:1000000008220020C9010008BF1C00082B190008A5
:10001000BD1C0008330300087B3F000800000000FF
:100020000000000000000000000000003D28000863
:100030003503000800000000D51F00083F28000815
:10004000E3010008E3010008E3010008E301000800
:10005000E3010008E3010008E3010008E3010008F0
:10006000E3010008E3010008E3010008E3010008E0
:10007000E3010008E3010008E3010008E3010008D0
:10008000E3010008E3010008E3010008E3010008C0
:10009000053F0008E3010008E3010008E301000850
:1000A000E3010008E3010008E3010008E3010008A0
:1000B000E3010008E3010008E3010008E301000890
:1000C000E3010008E3010008E3010008E301000880
:1000D000E3010008E3010008E3010008E301000870
:1000E000E3010008E3010008E301000800F002F862
:1000F00000F05AF80AA090E8000C82448344AAF168
:100100000107DA4501D100F04FF8AFF2090EBAE865
:100110000F0013F0010F18BFFB1A43F0010318473B
:10012000003F0000203F00000A444FF0000C10F890
:10013000013B13F0070408BF10F8014B1D1108BF65
:1001400010F8015B641E05D010F8016B641E01F805
:10015000016BF9D113F0080F1EBF10F8014BAD1C55
:100160000C1B09D16D1E58BF01F801CBFAD505E073
:1001700014F8016B01F8016B6D1EF9D59142D6D3CD
:10018000704700000023002400250026103A28BFF5
:1001900078C1FBD8520728BF30C148BF0B607047F9
:1001A0001FB51FBD10B510BD00F08AF81146FFF74E
:1001B000F7FF03F0F3FE00F0A8F803B4FFF7F2FF37
:1001C00003BC00F0AFF80000094880470948004729
:1001D000FEE7FEE7FEE7FEE7FEE7FEE7FEE7FEE7F7
:1001E000FEE7FEE704480549054A064B7047000054
:1001F000B9280008ED000008080C002008220020A3
:10020000080E0020080E002010B5203AC0F00B8028
:10021000B1E81850203AA0E81850B1E81850A0E80A
:100220001850BFF4F5AF5FEA027C24BFB1E8185064
:10023000A0E8185044BF18C918C0BDE810405FEAD4
:10024000827C24BF51F8043B40F8043B08BF704750
:10025000D20728BF31F8023B48BF11F8012B28BF55
:1002600020F8023B48BF00F8012B70474FF0000216
:1002700000B5134694469646203922BFA0E80C509C
:10028000A0E80C50B1F12001BFF4F7AF090728BF77
:10029000A0E80C5048BF0CC05DF804EB890028BFF3
:1002A00040F8042B08BF704748BF20F8022B11F01C
:1002B000804F18BF00F8012B704770477047704798
:1002C000754600F02BF8AE4605006946534620F00F
:1002D0000700854618B020B5FFF784FFBDE8204031
:1002E0004FF000064FF000074FF000084FF0000BF2
:1002F00021F00701AC46ACE8C009ACE8C009ACE8A5
:10030000C009ACE8C0098D46704710B50446AFF38C
:1003100000802046BDE81040FFF74FBF00487047FF
:10032000A40B002001491820ABBEFEE72600020006
:100330007047FEE7704772B6FEE7000070B50446EE
:1003400000F004F90546601C02D00448007804441B
:1003500000F0FCF8401BA042FAD370BD74000020EE
:100360002DE9F84FDFF8B891002409F1040A0AF1E9
:10037000040B23460F270BF1040EC9E00125A5400D
:100380002A40AA427DD1674ED1F804C0ACEB0608E2
:10039000B44532D014DCBCF1030F3AD009DCBCF117
:1003A000000F2AD0BCF1010F1CD0BCF1020F31D1DB
:1003B0001DE0BCF1110F17D0BCF1120F2AD119E0CA
:1003C000B8F5881F19D006DCB8F5803F15D0B8F510
:1003D000801F1FD111E0B8F5001F0ED0B8F5041F23
:1003E00018D10AE0CB6815E0CB681B1D12E0CB6882
:1003F00008330FE0CB680C330CE08B682BB1012B7A
:100400004FF0080303D0456104E0042302E00561D6
:1004100000E00023FF2A01D8064601E000F10406AF
:100420004FEA840501D9A5F12005D6F8008007FA26
:1004300005FC28EA0C0803FA05F548EA0508C6F8A1
:1004400000804D68ED0062D5374DAE6946F001067B
:10045000AE61AD6924F0030605F001050095334D4A
:1004600006EB050CDCF80850A607360F07FA06F86D
:1004700025EA0805DFF8B880404503D14FF00008B1
:1004800017E044E0DFF8AC80404502D14FF00108AE
:100490000FE0DFF8A480404502D14FF0020808E0E9
:1004A000DFF89880404502D14FF0030801E04FF09B
:1004B000040808FA06F848EA0508CCF808804D68F0
:1004C000D9F80060ED034D4601D5164300E0964390
:1004D0002E604D68DAF80060AD03554601D516432D
:1004E00000E096432E604D68DBF80060ED025D464B
:1004F00001D5164300E096432E604D68DEF800609B
:10050000AD02754601D5164300E096432E60641C8B
:100510000D682A46E5407FF431AFBDE8F88F000052
:1005200000040140000011100010024000000140D2
:1005300000080140000C014000100140001401407F
:100540000AB1016170470904FBE7000001488068B7
:10055000704700007400002002488168027811444E
:100560008160704774000020074810B5016841F0B1
:1005700010010160032000F075F80F2000F006F86C
:1005800000F024F8002010BD0020024070B50D4D91
:1005900004464FF47A712878B1FBF0F00A490968F3
:1005A000B1FBF0F001F0ADF948B9102C07D20022F0
:1005B0002146501E00F036F800206C6070BD01200E
:1005C00070BD000074000020800000200C4808B5B9
:1005D000816941F001018161816901F001010091AE
:1005E000C16941F08051C161C06900F08050009044
:1005F0000448416821F0E06141F00071416008BDAC
:100600000010024000000140002809DB00F01F023A
:10061000012191404009800000F1E020C0F8001164
:1006200070470000F0B40E4B1B680C46C3F3022366
:10063000C3F10705042D00D90425191D072901D28E
:10064000002300E0DB1E012606FA05F1491E2140C9
:1006500099409E40761E16403143F0BC03F08EBC9C
:100660000CED00E0064900F0070208684FF6FF03B2
:10067000184040EA0220034A104308607047000017
:100680000CED00E00000FA0510B50C0607D501F0EE
:10069000070101EB810100EBC100283005E001EB0F
:1006A000810100EBC10000F5B47099B232B10122B2
:1006B00002730181190C4181002010BD00220273D8
:1006C000C180F9E7704701EB810200EBC202D0F86C
:1006D000E802D26B02F073BA01EB810200EBC202B6
:1006E000D0F8E802D2F87C2102F0CCBA70B504460A
:1006F0000B0601F0070000EB800104EBC1014FF095
:1007000001024FF0000503D581F82920283103E0CC
:1007100081F8695101F5B471087094F8A8020128B4
:1007200008D084F8A822206802F0E6FF84F8A852D6
:10073000002070BD022070BD70B5044601F00F00AE
:100740006268904201D9012070BD0B0601F00700DC
:1007500000EB800104EBC1014FF001024FF00005F6
:1007600003D581F82920283103E081F8695101F58A
:10077000B4718D70087094F8A802012808D084F82C
:10078000A822206803F055F884F8A852002070BD14
:10079000022070BD2DE9F05F04685FEA424C0B78DF
:1007A0008D69B4F850C04FF000064BF68F7948F2CF
:1007B000800A48F68F7B48F2C00E4FF480672AD536
:1007C0004FF0020808EBC308C44407EB4C07E45B96
:1007D000C4F30904A54203D32D1B8D6101D00BE0A6
:1007E0008E61066836F8235005EA090585F4005540
:1007F00045EA0A0526F82350520609D50D78036804
:1008000033F8252002EA0B0242EA0E0223F82520E3
:1008100084B30A8929E04FF0060808EBC308C444F2
:1008200007EB4C07E45BC4F30904A54203D32D1B7B
:100830008D6101D00BE08E61066836F8235005EA21
:10084000090585F4005545EA0A0526F823505206A5
:1008500009D40B78056835F8232002EA0B0242EA36
:100860000E0225F823202CB14A89496900682346E5
:1008700003F052FB2046BDE8F09F2DE9F05F0546EE
:1008800000680C465FEA426C16468B692278B0F825
:1008900050C048F68F774CF280094FF6FF7B4FF43B
:1008A000004E4FF4806A4FF000017BD54FF00208F4
:1008B00008EBC208E0440AEB480C30F80C00C0F327
:1008C0000900834211D91B1AA3610FD0730407D505
:1008D0002E6836F822303B4043EA090326F82230DE
:1008E00094F82420012A50D04EE1A161607810B123
:1008F000012813D01AE02868B0F85030184400EBF3
:100900000210B0F8042422F4F842A0F80424B0F84D
:10091000042442F40042A0F8042407E02868B0F858
:100920005030184400EB0210A0F8041462782868D4
:1009300012B1012A11D018E0B0F850100844217803
:1009400000EB0110B0F80C1421F4F841A0F80C14DD
:10095000B0F80C1441F4004105E0B0F85020104408
:10096000227800EB0210A0F80C1421782846FFF73B
:10097000AAFE7004B8D521782A6832F821003840E0
:1009800040EA090022F82100FEE062690244626147
:10099000E2690244E2612369226A9A4203D318465B
:1009A000111A04E038E084F824100AB110462162DC
:1009B000617811B1012923D02BE02968B1F85020CA
:1009C0001144227801EB021101F2044148B13E28A2
:1009D0000FD84208C30700D0521C0BEA82220A80BB
:1009E00017E00A8822F4F8420A800A8842F400429A
:1009F000F5E74209C30600D1521E4EEA8222EEE715
:100A00002968B1F850201144227801EB0211A1F8B5
:100A1000040483B22289B3E04FF0060808EBC20851
:100A2000E0440AEB480C30F80C00C0F309008342A4
:100A300011D31B1AA3610FD0730407D42E6836F8A4
:100A400022303B4043EA090326F8223094F8242060
:100A5000012A50D098E0A161607810B1012813D02C
:100A60001AE02868B0F85030184400EB0210B0F8D3
:100A7000042422F4F842A0F80424B0F8042442F438
:100A80000042A0F8042407E02868B0F85030184469
:100A900000EB0210A0F804146278286812B1012A51
:100AA00011D018E0B0F850100844217800EB011084
:100AB000B0F80C1421F4F841A0F80C14B0F80C14A0
:100AC00041F4004105E0B0F850201044227800EBDA
:100AD0000210A0F80C1421782846FFF7F4FD7004EA
:100AE00052D42278296831F82200384040EA0900BF
:100AF00021F8220048E0626902446261E26902442E
:100B0000E2612369226A9A4203D31846111A2162CC
:100B100004E00AB11046216284F824106278296842
:100B200012B1012A22D029E0B1F8502011442278D4
:100B300001EB021101F20C4148B13E280FD84208E6
:100B4000C30700D0521C0BEA82220A8016E00A88F2
:100B500022F4F8420A800A8842F40042F5E742098A
:100B6000C30600D1521E4EEA8222EEE7B1F85020B1
:100B70001144227801EB0211A1F80C04628983B2BE
:100B80006169286803F0E6F921782A6832F82100C3
:100B900048F6BF73184080F0300048F280031843D5
:100BA00022F821000020BDE8F09F10B5044690F81F
:100BB000A80201280AD0012084F8A802080607D557
:100BC00001F00701206803F09AF904E0022010BD4B
:100BD000206803F092F9002084F8A80210BD01F00B
:100BE000070101EB810100EBC100D0F884017047DF
:100BF0002DE9F04104460F0601F0070000EB8001EB
:100C000004EBC1014FF001064FF0000503D581F858
:100C10002960283103E081F8695101F5B471087049
:100C20000A61CB704A7802B1C881022B00D10D71E4
:100C300094F8A802012809D084F8A862206802F07C
:100C40002DFC284684F8A852BDE8F0810220FBE77D
:100C500070B50C4601F0070505EB850100EBC101FD
:100C6000C1E95F230022C1F8842181F8692181F85C
:100C7000685101F5B4716207006802F02FFE002090
:100C800070BD70B504460D4601F0070061688842EA
:100C900001D9012070BD29064FF000064FF0010276
:100CA00007D500EB800104EBC10181F82920283130
:100CB00007E005EB850104EBC10181F8696101F5ED
:100CC000B4718A70087094F8A802012807D084F8DB
:100CD000A822206802F0E9FD680702D006E00220A1
:100CE00070BD04F52C71206802F0A1FD84F8A862A3
:100CF000002070BD70B50C4601F0070505EB8501BD
:100D000000EBC101C1E90F23012281F84C208B6463
:100D100000234B6481F8292001F8285F62070068EE
:100D200002F0DCFD002070BD1FB50446006803F032
:100D3000EFF8000402D5204600F0C2FF206803F05F
:100D4000E7F840050CD5206830F8441F21F4806195
:100D50000180204600F01EF90021204600F035F900
:100D6000206803F0D5F8400405D5206830F8441F0A
:100D700021F480410180206803F0CAF8800405D581
:100D8000206830F8441F21F400510180206803F0EE
:100D9000BFF8C00414D5206830F8401F21F00401CA
:100DA0000180206830F8401F21F0080101802046B2
:100DB00000F003F9206830F8441F21F480510180CD
:100DC000206803F0A5F800053ED52268002069469A
:100DD00032F8203021F81030401CC0B20828F7D378
:100DE00032F8400F40F001001080206830F8402FAA
:100DF00022F0010202802068B0F844205205FBD5A1
:100E000030F8442F22F4806202800020236831F8F9
:100E1000102023F82020401CC0B20828F6D32068F8
:100E200030F8401F41F008010180206830F8441F6D
:100E300021F400610180206830F8401F41F0040176
:100E40000180204600F0F6F8206803F061F8800584
:100E500008D5206830F8441F21F400710180204635
:100E600000F0AFF8206803F053F8C00505D52068FE
:100E700030F8441F21F4807101801FBD2DE9F0413D
:100E800086B0040004D094F8A902002520B108E03F
:100E9000012006B0BDE8F08184F8A852204600F099
:100EA0005BF8032084F8A902206802F0B9FC04F181
:100EB0001001142288466846FFF7A6F994E80F004F
:100EC00002F018FC0226D0BB0021206803F03AF89B
:100ED000002001270FE000BF00EB800104EBC101FF
:100EE00081F8297001F8280FC881CD700D614D611E
:100EF000401CC0B28D6161688142EDD8002011E0D4
:100F000000EB800104EBC10181F8695181F86801AF
:100F100081F86B51C1F87851C1F87C51401CC0B2C6
:100F2000C1F8805161688142EAD81422414668467E
:100F3000FFF76AF994E80F0002F069FC10B184F839
:100F4000A962A5E784F8245084F8A972206802F009
:100F50005CFC00209DE7000008B500680B49884252
:100F600012D10B48C16941F40001C161C06900227E
:100F700000F40000009011461420FFF753FBBDE879
:100F800008401420FFF740BB08BD0000005C004093
:100F90000010024070B5044680680125022801D087
:100FA000FFF7C9F92946D4F8E80201F054FFD4F854
:100FB000E802BDE8704001F010BFD0F8E80201F08F
:100FC00034BFD0F8E80201F03ABF10B5044690F8FB
:100FD000A80201280BD0012084F8A80284F824106C
:100FE000206802F0B1FF002084F8A80210BD0220A2
:100FF00010BDD0F8E82200F52C71104601F037BF83
:1010000010B5044690F8A802012810D0012084F8F9
:10101000A802206802F068FF01212046FFF752FB7A
:10102000206802F0F0FB002084F8A80210BD022026
:1010300010BD000010B50446D0F8E80201F056FFDC
:10104000A069002804D00348016841F0060101604E
:1010500010BD000010ED00E02DE9F84305460078D2
:10106000354CC00754D0E0690026C00008D4E069C0
:1010700040F08050E061E069012600F0805000906F
:101080002E480168C90512D40168804641F4807178
:101090000160FFF75BFA074605E000BFFFF756FA6D
:1010A000C01B642823D8D8F80000C005F6D5206AF4
:1010B00010F4407021D0A98801F4407181421CD005
:1010C000206A1F49012220F440700A6000220A6051
:1010D0002062C00711D0FFF739FA074641F288387D
:1010E00008E000BFFFF732FAC11B414502D90320D7
:1010F000BDE8F883206A8007F4D5206A696820F487
:101100004070084320621EB1E06920F08050E06129
:101110002878800705D56068A96820F44040084316
:1011200060602878C00605D56068E96820F4800012
:10113000084360600020DBE70010024000700040C0
:10114000400442422DE9F0470F46050061D0434E6E
:10115000306800F00700B84209D2306820F007007C
:1011600038433060306800F00700B84251D1286839
:101170003B4C810712D5400703D5606840F4E0601E
:1011800060602878000703D5606840F460506060B4
:101190006068A96820F0F000084360602878C00704
:1011A00028D06868012810D02168022810D089074B
:1011B00000292EDA616821F0030101436160FFF725
:1011C000C5F9804641F288390DE021688903EFE7CF
:1011D0008901EDE7FFF7BAF9A0EB0801494502D90B
:1011E0000320BDE8F0876068696800F00C00B0EB90
:1011F000810FEFD1306800F00700B8420BD930689A
:1012000020F0070038433060306800F00700B84233
:1012100001D00120E5E72878400705D56068E96836
:1012200020F4E060084360602878000706D5606815
:10123000296920F4605040EAC100606000F018F8AD
:101240006168084AC1F30311515CC840064908604F
:1012500006480068FFF79AF90020C2E70020024024
:1012600000100240F83F00088000002078000020B5
:1012700012A185B00FC98DE80F0014A0144A0068B0
:1012800004905168134801F00C03042B10D0082B74
:101290000ED1C1F38343C9031DF803000AD5516879
:1012A00004AAC1F34041515C0A4A5043B0FBF1F03B
:1012B00005B0704708494843FAE7000002030405F7
:1012C000060708090A0B0C0D0E0F10100102000092
:1012D0000010024000127A0000093D002DE9F84F8D
:1012E000040070D02078C04DC00749D06868C0F3B2
:1012F0008100012807D06868C0F38100022809D165
:101300006868C00306D52868800339D5606800285E
:10131000E7D035E06068B0F5803F0BD010B1B0F594
:10132000A02F11D0286820F480302860286820F48D
:10133000802002E0286840F480302860606890B126
:10134000FFF704F906460AE0286840F48020286088
:10135000F0E700BFFFF7FAF8801B642873D828680D
:101360008003F7D50CE0FFF7F1F8064605E000BF73
:10137000FFF7ECF8801B6428F0D828688003F7D4C6
:1013800020789A4E80074FF001094FF0000839D5B8
:10139000686810F00C0F07D06868C0F3810002285D
:1013A00009D16868C00306D42868800714D520696D
:1013B000012808D110E02069B0B1C6F80090FFF70D
:1013C000C5F8074605E00AE1FFF7C0F8C01B022890
:1013D000C4D828688007F7D52868616920F0F8002C
:1013E00040EAC10028600DE0C6F80080FFF7AEF8C3
:1013F000074604E0FFF7AAF8C01B022823D8286894
:101400008007F7D4207800072CD57948A169D9B195
:10141000C0F80090FFF79AF8074604E0FFF796F847
:10142000C01B02280FD8686A8007F7D571484FF4AF
:10143000FA510068B0FBF1F0009000BF0098411E27
:101440000091FAD20EE080E0C0F80080FFF77EF84D
:10145000074604E0FFF77AF8C01B022875D8686ACF
:101460008007F7D42078400760D5E8690027C000DE
:1014700008D4E86940F08050E861E869012700F08D
:10148000805000905C480168C90513D40168834608
:1014900041F480710160FFF759F8824606E000BF11
:1014A000FFF754F8A0EB0A0064284ED8DBF80000E0
:1014B000C005F5D5E06801280AD008B1052813D089
:1014C000286A20F001002862286A20F0040002E067
:1014D000286A40F001002862E06841F2883B98B138
:1014E000FFF734F882460BE0286A40F004002862D7
:1014F000EEE700BFFFF72AF8A0EB0A0159455AD8DA
:10150000286A8007F6D50CE0FFF720F8824605E050
:10151000FFF71CF8A0EB0A0159454CD8286A800750
:10152000F6D41FB1E86920F08050E861E06988B323
:101530006968C1F38101022944D00228C6F860809D
:1015400004D0FFF703F8044638E034E0FEF7FEFF6E
:10155000074604E0FEF7FAFFC01B02282BD82868D4
:101560008001F7D4206AB0F5803F05D16868A16892
:1015700020F4003008436860D4E908010843696832
:1015800021F4741108436860C6F86090FEF7DEFF2E
:10159000044606E025E000BFFEF7D8FF001B022846
:1015A00009D828688001F7D51BE000BFFEF7CEFF01
:1015B000001B022802D90320BDE8F88F28688001AB
:1015C000F4D40EE00128F7D06868226A00F4803174
:1015D000914204D1616A00F47010884201D0012068
:1015E000EAE70020E8E70000001002400000424265
:1015F00080044242800000200070004070B504006A
:1016000009D0606A002540B125616561A56294F842
:10161000510040B10CE0012070BD6068B0F5827FE0
:10162000F4D0E561F2E784F85050204600F040F82D
:10163000022084F851002068016821F04001016017
:10164000A088218900F4827001F404410843A18933
:1016500001F400610843217C01F002010843217D6F
:1016600001F001010843218B01F400710843217F3F
:1016700001F03801084394F8201001F0800108437C
:10168000218D01F40051084321680860A0690421FC
:1016900001EA1040216848602068C16921F40061B6
:1016A000C1616565012084F85100002070BD000013
:1016B00030B585B00024009401940294039400682E
:1016C0001449884223D11448816941F480518161D1
:1016D000816901F480510491816941F004018161C3
:1016E00080690E4D00F004000490A02000900220BC
:1016F00001900320039069462846FEF731FE402002
:10170000CDE90004694628460294FEF729FE05B09B
:1017100030BD0000003001400010024000080140D0
:101720002DE9F84F044690F8500000270A9E1D4608
:1017300092468B464FF0010901280ED0012084F813
:101740005000FEF703FF804694F8510061680128BD
:101750000CD0B1F5827F07D102E00220BDE8F88FFE
:10176000A16809B9042801D00227C2E0BBF1000F2B
:1017700027D0BAF1000F24D01DB394F851000428EB
:1017800002D0052084F8510000206065C4F838A01C
:10179000E587A587C4F830B0E586A5862064606437
:1017A00020680168490603D4016841F040010160E6
:1017B000E068B0F5006F606805D0E8B3012D46D051
:1017C0007FE0012795E008B1012D39D1206B216818
:1017D0000088C860206B801C2063E08E401EE0867D
:1017E0002EE02068816889070FD5E18E69B1B9F1D3
:1017F000010F0AD1216B0988C160206B801C206316
:10180000E08E401EE0864FF0000920688168C9071D
:101810000CD0E18F51B1C068A16B0880A06B801C17
:10182000A063E08F401EE0874FF00109FEF78EFEB7
:10183000A0EB0800B04200E009E001D3701C50D1D9
:10184000E08E0028CDD1E08F0028CAD13FE0206B88
:10185000216800780873206B401C2063E08E401ED6
:10186000E0862EE02068816889070FD5E18E69B196
:10187000B9F1010F0AD1216B09780173206B401C6B
:101880002063E08E401EE0864FF0000920688168EA
:10189000C9070CD0E18F51B1C068A16B0870A06B73
:1018A000401CA063E08F401EE0874FF00109FEF767
:1018B0004DFEA0EB0800B04202D3701C01D010E036
:1018C0007EB1E08E0028CDD1E08F0028CAD14246FB
:1018D0003146204600F030FF28B101272020606506
:1018E00007E0032705E0A06818B92068C168806890
:1018F0000090012084F85100002084F85000384600
:101900002CE710B5401EB0F1807F01D3012010BD3F
:101910004FF0E02460610F21601702F02FFB0020E0
:10192000A06107202061002010BDFEE7F0B5002374
:101930000A24302537261F4611E000BFB4EB107F84
:1019400002D905EB107C01E006EB107C01F813C016
:1019500001EB430C00015B1C8CF80170DBB293427D
:10196000ECD3F0BD70B5D0F8B842054694F8180233
:1019700040B9D4F8140228B1607A18B90121284678
:1019800001F0A2FA8121284601F09EFA607A02282D
:1019900008D104F503722846BDE870401F230121D9
:1019A00001F012BA70BD000070B5D0F8B84205461B
:1019B0000121D4F81002C4F83002D4F81402C4F89B
:1019C0003402284601F0A8F91F280DD12849D4F87F
:1019D0000C02884208D194F81912012904D894F80D
:1019E0001A0208B1102809D994F8191220230522E7
:1019F000284600F036FD0220607209E004F21B2246
:101A0000284600F0F9FA0028207A08DA052804D0E0
:101A10002846BDE87040FFF7A5BF012122E002285B
:101A200025D0012823D0032821D06689CEB1D5F84E
:101A3000B812284604F10C02D1F81432B34200D394
:101A40003346D1F834429BB2A41BC1F8344200247F
:101A500081F8384204240C72BDE87040812101F005
:101A60004EBA00212846BDE8704000F083B870BD32
:101A70005553424310B5D0F8B842627A022A08D0D2
:101A800009060BD5012A09D0BDE81040012100F05C
:101A900071B8812101F018FA0020607210BD10B5F4
:101AA000D0F8B8220446107A022805D0032801D0C5
:101AB000042810D1002109E092F81912204602F200
:101AC0001B2200F099FA002805DA01212046BDE822
:101AD000104000F04FB810BD10B5D0F8B822044641
:101AE000107A80B1012813D192F81912204602F21F
:101AF0001B2200F081FA00280ADA2046BDE81040D7
:101B0000012100F037B82046BDE81040FFF74CBF78
:101B100010BDD0F8B80200210172704770B5D0F83E
:101B2000B842002105462172617284F85D1284F882
:101B30005C12D0F8BC0201680020884701212846C9
:101B400001F0E1F88121284601F0DDF804F5037287
:101B50002846BDE870401F23012101F035B9D0F8B7
:101B6000B82200211172012151721F2302F5037264
:101B700001F02AB970B5D0F8B84205460B48C4F850
:101B80002C0284F83812002020720D2304F50B7209
:101B90008121284601F0B3F904F503722846BDE817
:101BA00070401F23012101F00FB90000555342532B
:101BB00030B585B000241848009401940294039431
:101BC000816941F010018161816901F01001049186
:101BD000816941F020018161816901F02001049156
:101BE000816941F00401816180690C4D00F00400BD
:101BF0000490002210212846FEF7A2FC102000903D
:101C00000120CDE901040320039069462846FEF730
:101C1000A7FB05B030BD00000010024000080140E5
:101C2000104810B50E4901604FF4827141600021E7
:101C30008160C1604FF400720161C0E905120822A1
:101C4000C0E90721416281620A21C162FFF7D6FC27
:101C5000002803D0BDE81040FEF76DBB10BD0000AA
:101C6000003001402C01002010B500220F4910481F
:101C700000F07EFF08B1FEF75EFB0E490C4801F054
:101C800055FA08B1FEF757FB0B49094801F0AAF9CC
:101C900008B1FEF750FB064801F09EFA002803D079
:101CA000BDE81040FEF747BB10BD00000400002057
:101CB000840100208800002054000020FEE7FEE799
:101CC0002DE9F84F044640F68F7B48F60F7A4FF027
:101CD00002094FF4806874E1B0F8441011F00F0667
:101CE0003AD030F8267039047DD530F8261001EA54
:101CF0000B0141F0800120F8261006EB860004EB72
:101D0000C00595F8740105F5B47500286CD0E87825
:101D100002286AD02878226832F8201048F68F739B
:101D2000194048F2C003194322F820102878D4F84B
:101D300000C03CF82010BCF8502049047ED509EBC7
:101D4000C000111808EB41003CF800008005800D30
:101D5000009074D02A89D8E0C9062DD4018801EA00
:101D60000A0141F400410180216804F12805B1F81D
:101D700050202B7809EBC300024408EB4200085ABC
:101D8000C0F309006064E16B0844E0630021204671
:101D9000FEF799FC94F8240000289CD0A86900283C
:101DA00099D194F82400216840F08000A1F84C00FB
:101DB000002084F8240004E1018804F5B4750A05C4
:101DC00021D5B0F850202B78062101EBC3010A443D
:101DD00008EB4201405A04F52C71C0F30903EB6192
:101DE000EA88206802E0ACE068E07AE002F094F86B
:101DF0002168088800EA0B0040F080000880204637
:101E0000FFF7F7F8DDE00904D5D5018801EA0B01F9
:101E100041F0800101802068B0F850202B78062125
:101E200001EBC3010A4408EB4201405A83059B0DB4
:101E3000EB6110D0696971B1EA8801E058E056E0C1
:101E4000206802F069F8E96968690844686100215E
:101E50002046FEF741FC2068018809052DD4B0F822
:101E600050100844296900F20C4051B13E2910D8A5
:101E70004A08C90700D0521C4FF6FF7101EA8221BF
:101E80000FE0018821F4F8410180018841F400410C
:101E900007E04A09C90600D1521E4FF4004141EA49
:101EA00082210180206801884BF68F72114081F4F5
:101EB000405148F280021143018082E0D4F800C012
:101EC000BCF850102A78062000EBC200014408EB51
:101ED00041003CF800008005800D00901AD0EA888F
:101EE00013E03A4629462046FEF754FC009011E0E4
:101EF000062101EBC000111808EB41003CF800007E
:101F00008005800D009005D06A89034660466969A6
:101F100002F002F8E96900980844E86169690098EC
:101F200008446861A86918B129690098814204D9F8
:101F300029782046FEF7D0FB03E02946206801F00F
:101F4000CDFC38063DD506EB860004EBC0012068C9
:101F500030F8262002EA0A0242F4004220F8262045
:101F600091F82B002831032804D018B1022824D17D
:101F7000F80522D42368B3F850200D7809EBC5008A
:101F8000024408EB4200185A8A69C0F309008242F1
:101F90000CD9121A8A610BD04A6902444A61CA6993
:101FA0001044C861206801F099FC0AE000208861B3
:101FB000E9B22046FEF787FB03E03A462046FEF7EB
:101FC0005CFC2068B0F8441009043FF585AE0020A1
:101FD000BDE8F88F704710B5D0F8B8421A44D4F86D
:101FE00060329A4206D92123052200F03AFA4FF0D6
:101FF000FF3010BD002010BD2DE9F0411378002402
:10200000232B7DD00DDC1A2B7BD005DCEBB1032B11
:1020100039D0122B11D163E01B2B01D01E2B0CD118
:102020008DE02A2B6ED004DC252B6CD0282B04D11C
:10203000ABE02F2B68D05A2B67D02023052200F06D
:1020400010FA4FF0FF30BDE8F081D0F8B8720546C5
:102050000E46D7F8140228B1202397F8191205224A
:1020600028469FE0D5F8BC0281683046884740B1D9
:102070003A2302223146284600F0F3F9052038724F
:102080009AE07C8198E0D0F8B80200214318491CFE
:10209000C9B21C731229F9D3702101730C21C174C8
:1020A00090F85C1290F85D32994212D000EBC103B7
:1020B000491C93F83C52857393F84152057693F886
:1020C0004032C9B2437680F85C12042901D180F80D
:1020D0005C4212214181117912296DD841816BE056
:1020E0005478D0F8B832E40712D007203349588129
:1020F000401E0004000C03EB00040A5C227305E0A0
:102100003DE020E044E03DE045E02AE0F0D153E04E
:10211000D0F8BC0201EBC1011279C06900EB81016A
:102120000879401D824200D81046588104E0401EC4
:1021300080B21C180A5C22730028F8D13CE0D0F869
:10214000B802448138E0D0F8B81208201C4A48810F
:10215000401E0004000C01EB0004135C2373F7D154
:102160002AE0D0F8B8020821164A4181491E090424
:10217000090C00EB0104535C2373F7D11CE000F061
:1021800039F919E000F00BF916E000F0BAF813E0A5
:1021900000F081F910E05278D0F8B852920704D5D7
:1021A0002423052200F05DF906E0D5E99923FFF725
:1021B00012FF002800DB6C81002044E70840000883
:1021C0000F400008174000082DE9F041D0F8B84250
:1021D00006460F46B4F85E02D4F868524FF4007118
:1021E00045438D4200D30D46B5FBF0F083B2D6F8DF
:1021F000BC0204F10C01D4F86422D0F810C0884667
:102200003846E047002809DA1123042239463046CF
:1022100000F027F94FF0FF30BDE8F081ABB2424645
:102220008121304600F06BFEB4F85E02D4F86422DF
:10223000B5FBF0F1B5FBF0F01144C4F86412D4F82A
:102240006812081AC4F86802D4F83412A1EB050128
:10225000C4F8341201D1032020720020DCE72DE9FC
:10226000F047D0F8B84207464FF40075B4F85E0264
:10227000D4F8686288464643AE4200D32E46B6FB89
:10228000F0F083B2D7F8BC0204F10C01D4F8642258
:10229000D0F814C089464046E047002809DA0323F5
:1022A00004224146384600F0DCF84FF0FF30BDE82C
:1022B000F087B4F85E12D4F86422B6FBF1F0104453
:1022C000C4F86402B6FBF1F0D4F86822101AC4F81E
:1022D0006802D4F83422A2EB0602C4F834220BD0F0
:1022E0004843A84200D3284683B24A4601213846D3
:1022F00000F06AFD0020DAE700213846FFF73AFCDB
:10230000F8E72DE9F041D0F8B84206461546207AA4
:102310008846D0BB94F818024FF0FF3700062FD53F
:10232000D6F8BC0281684046884730B13A23022281
:102330004146304600F095F814E06888297940BAA3
:10234000000440EA0122687941460243C4F864224D
:10235000B5F8070043BA3046C4F86832FFF73BFED1
:10236000002802DA3846BDE8F08102202072B4F875
:102370005E12D4F868024843D4F81412884205D09B
:10238000202394F819120522D3E7FFE74FF40070D9
:10239000608141463046BDE8F041FFF715BF70B59A
:1023A00005460E46D5E9AE4004F25E224368911C14
:1023B0003046984740B13A2302223146284600F081
:1023C00050F84FF0FF3070BDD4F86002401E010E8F
:1023D0002173010C6173010AA173E0730020207462
:1023E0006074B4F85E02010AA174E0740820608190
:1023F000002070BD2DE9FC410546D0F8B842002010
:102400000F4606462118401C80B20E730C28F9D3E3
:10241000D5F8BC026A4601A943683846984748B1D6
:102420003A2302223946284600F01BF84FF0FF30CD
:10243000BDE8FC810820E0730198401E010E217464
:10244000010C6174010AA174E074022020756675A4
:10245000BDF80000010AA175E0750C206081002024
:10246000E6E7D0F8B80290F85D1200EBC10181F800
:102470003C2290F85D22002100EBC20282F840125B
:1024800090F85D22521CD2B280F85D22042A01D15C
:1024900080F85D1270472DE9F041D0F8B842064649
:1024A0001546207A884620B13046BDE8F041FFF756
:1024B000D6BE94F818024FF0FF37000636D4D6F88F
:1024C000BC0281684046884728B13A230AE030467A
:1024D000FFF7C7FF1EE0D6F8BC02C1684046884738
:1024E00018B1272302224146F1E76888297940BACA
:1024F000000440EA0122687941460243C4F864229C
:10250000B5F8070043BA3046C4F86832FFF763FDF8
:10251000002802DA3846BDE8F081B4F85E12D4F83B
:1025200068024843D4F81412814204D0202394F85E
:1025300019120522CBE74FF40071884200D30846F8
:10254000012183B2217204F10C02304600F03CFC00
:102550000020E0E7044B20B1002210211846FDF7CF
:10256000EFBF0122F9E70000000801402DE9FC411E
:102570000027DFF84C81009738200197C8F81C002D
:102580003846FFF7E7FF4F4D0024287801F012FD91
:10259000641CA4B20A2CF8D300219522084600F04E
:1025A00093F8C0B20128F7D16F7087224FF4D5712C
:1025B000082000F089F8C0B2012873D100246E46CB
:1025C000287801F0F7FC3055641CE4B2042CF7D3F2
:1025D0009DF802004FF6FE74012803D19DF8030018
:1025E000AA281FD001220021372000F06DF8012217
:1025F0000021292000F068F8C0B201283DD802204F
:10260000687001220021372000F05EF801220021CD
:10261000292000F059F810F0FF0F3BD0641EA4B23F
:10262000EFD237E04FF0804701220021372000F041
:102630004BF801223946292000F046F810F0FF0F30
:1026400002D0641EA4B2EFD2B4B1012200213A201C
:1026500000F03AF880B90024FF2001F0ABFC3055BF
:10266000641CE4B2042CF7D39DF80000400601D5A9
:10267000062000E00420687014E001206870012248
:102680000021104600F020F810F0FF0F02D0641E69
:10269000A4B2F4D22CB101225102102000F014F89F
:1026A00000B16F700020FFF755FF0020C8F81C0034
:1026B000687810B10020BDE8FC810120FBE7000034
:1026C0002C010020000000202DE9F04105461746AE
:1026D0000C460020FFF73EFF1420FDF72FFE0120DF
:1026E000FFF738FF134E307801F064FCFF28FAD171
:1026F00045F0400001F05EFC200E01F05BFCC4F3ED
:10270000074001F057FCC4F3072001F053FCE0B28E
:1027100001F050FC384601F04DFC0C2D02D1307810
:1027200001F048FCFF2001F045FC0106FAD4BDE8A9
:10273000F08100000000002038B50B4600920446EE
:102740000022802100F008F8002804D0606D40F0DD
:1027500020006065032038BD2DE9F8431E469146F0
:1027600088460446089DFDF7F1FE401B351AFDF72B
:10277000EDFE074625480068C0F3CB30684338E0DB
:10278000701C37D0FDF7E2FEC01BA84203D215B182
:10279000009860B32CE02068416821F0E0014160BE
:1027A0006068B0F5827F0BD1A068B0F5004F02D011
:1027B000B0F5806F04D12068016821F0400101600C
:1027C000A06AB0F5005F09D12068016821F40051CA
:1027D00001602068016841F400510160012084F823
:1027E0005100002084F850000320BDE8F883002544
:1027F000401E00902068816838EA010004D0002162
:102800004945BDD10020F0E70121F9E78000002013
:102810004FF480300860C011108000207047002005
:10282000704710B5FFF7A2FE002010BD00207047D2
:102830000020704700207047002070477047FDF768
:102840008BBE30B593B028216846FDF70FFD1421EB
:102850000AA8FDF70BFD002401200F941094119499
:10286000010412948DE8130004900005CDE90810CE
:10287000022507956846FEF731FD08B172B6FEE7FE
:102880000F20CDE90A054FF48060CDE90C4001210D
:102890000AA80E94FEF756FC08B172B6FEE71020A7
:1028A0000F90800412900FA8FEF7D6FB002801D0ED
:1028B00072B6FEE713B030BD704710B5D0F8B42241
:1028C00052689047002010BD134610B50A460021FB
:1028D00000F07AFA002010BD134610B50A46002118
:1028E00000F00DFB002010BD10B50446802100F063
:1028F000EBFA2046BDE81040002100F0E5BA10B523
:1029000005210023C0F894121A46194600F05CFA1B
:10291000002010BD10B50223C261C0F894320262DB
:1029200013460A46002100F0EAFA002010BD10B557
:1029300004210023C0F894121A46194600F0DFFA69
:10294000002010BD10B50A46024903A000F0E0F8CF
:10295000004810BD480400204D534320436F6E666D
:10296000696700001220088000487047240000209A
:1029700010B50A46024903A000F0CAF8004810BD8D
:10298000480400204D534320496E746572666163AC
:1029900065000000042008800048704720000020E7
:1029A00010B50A46024903A000F0B2F8004810BD75
:1029B0004804002053544D6963726F656C656374FD
:1029C000726F6E696373000010B50A46024903A076
:1029D00000F09EF8004810BD4804002053544D33C9
:1029E00032204D6173732053746F7261676500000C
:1029F00010B51A2008800A480168001D0468001DEF
:102A00000068081809D008220649FEF78FFF05491B
:102A1000042210312046FEF789FF0248801E10BDB7
:102A2000E8F7FF1F3A000020F8B504460020ADF893
:102A3000000048880D46010A082948D2DFE801F065
:102A40004704091747473C45D4F8B012207C0A6870
:102A500019E0207C02260028D4F8B40205D0C16A0F
:102A600068468847014646703EE0816AF8E7C0B292
:102A700006282CD2DFE800F0030A1014181CD4F842
:102A8000B002426805E0694690471CE0D4F8B00205
:102A90008268E2B1207CF6E7D4F8B002C268F8E7B9
:102AA000D4F8B0020269F4E7D4F8B0024269F0E762
:102AB000D4F8B0028269ECE7207C40B9D4F8B402C3
:102AC000416B6846884701460EE0207C20B12946CC
:102AD0002046FFF709FFF8BDD4F8B402016B684641
:102AE0008847014607204870BDF8000048B1EA88D1
:102AF00052B1824200D90246ADF800202046FFF7CD
:102B000009FFE8880028E6D12046FFF710FFF8BD4E
:102B100070B5002300281ED00446002502E06D1C7D
:102B2000EDB2641C2678002EF9D1022404EB450492
:102B300014801278CA545B1C0322CA5400245B1C04
:102B400006E0CA545B1CDAB28C54521CD3B2401C4F
:102B50000278002AF5D170BD01004FF0000004D0CA
:102B6000012901D0022901D00220704701207047BD
:102B700010B580B1D0F8B43213B10023C0F8B4322C
:102B800009B1C0F8B012012180F89C12027000F067
:102B9000C7F8002010BD022010BD10B5D0F8C0024B
:102BA000FDF7CAFDBDE81040FFF7D6BF10B5D0F85D
:102BB000C002FDF79BFDBDE81040FFF7CDBF2DE93A
:102BC000F0411746044651B1D4F8B40242691AB133
:102BD00094F89C02032851D00220BDE8F081D4F87B
:102BE0009432002504F11400022B03D0042B3AD0B8
:102BF000C3B33CE0D0E903639E4207D9F11AC16038
:102C00008AB239462046FFF767FE12E08068B0FBC3
:102C1000F3F103FB110199B9984211D3D4F898123A
:102C200088420DD2002211462046FFF755FEC4F817
:102C3000985200231A461946204600F0C5F816E0BF
:102C4000D4F8B402C16829B194F89C02032801D1D8
:102C5000204688478021204600F036F92046FFF7BD
:102C60004EFE04E0FFE78021204600F02DF994F8A5
:102C7000A002012804D184F8A05201E02046904728
:102C80000020AAE770B51546044649B1D4F8B4024D
:102C900082691AB194F89C02032830D0022070BDDA
:102CA000D4F8941204F5AA70032902D005291ED085
:102CB00027E0D0E903218A420BD9531AC3600846A2
:102CC000834200D303469AB229462046FFF7FCFD13
:102CD00017E0D4F8B402016929B194F89C020328E2
:102CE00001D1204688472046FFF721FE09E0002059
:102CF0000146C4F89402204600F0E6F801E02046C0
:102D00009047002070BD10B5D0F8C002FDF74DFF10
:102D1000BDE81040FFF720BFD0F8C002FDF75FBF4D
:102D200010B519490446C1F8E802C0F8C0121748A6
:102D30000860082048600220886000208861C8611F
:102D400008620846FEF79AF808B1FDF7F4FA002287
:102D5000D4F8C0021823114604F53074FDF794FC32
:102D60005823002280212068FDF78EFC9823002242
:102D700081212068FDF788FCD823002201212068EA
:102D8000FDF782FC002010BDB8080020005C004068
:102D90000A0601F07F01D0F8C00201EB810100EBCF
:102DA000C10002D590F82A00704790F86A01704778
:102DB00010B51C461346D0F8C0022246FDF718FF96
:102DC000BDE81040FFF7C8BE10B5D0F8C002FDF74F
:102DD0003FFFBDE81040FFF7BFBE70B500220446BC
:102DE00040231146FFF7E4FF40260125C4F8646143
:102DF0003346002280212046C4F85851FFF7D8FFFF
:102E00006662A56184F89C520020C4F89402606058
:102E1000C4F8A402D4F8B80228B1D4F8B40200214E
:102E2000426820469047002070BD90F89C1204290B
:102E300003D190F89D1280F89C120020704710B5C5
:102E400090F89C12032904D1D0F8B412C96901B1D9
:102E50008847002010BD01740020704710B5D0F8DD
:102E6000C002FEF7B2F8BDE81040FFF775BE70B5BE
:102E7000044600F52A70054600F044F90120C4F824
:102E80009402B4F8AE02C4F8980294F8A80210F0C4
:102E90001F010AD001290DD0022910D000F08001B5
:102EA000204600F011F8002070BD2946204600F0B1
:102EB00098F9F8E72946204600F0C4FAF3E72946D6
:102EC000204600F017FAEEE710B5D0F8C002FDF783
:102ED000D8FEBDE81040FFF73FBE10B5D0F8C002E5
:102EE000FEF78EF8BDE81040FFF736BE90F89C1252
:102EF00080F89D12042180F89C120020704710B5C4
:102F0000D0F8C002FDF7F6FEBDE81040FFF724BE82
:102F100010B5FEF7C4FD002010BD10B5FEF7DCFDB6
:102F2000002010BD70B504460121FFF73FFE0025CB
:102F300081212046C4F86C51FFF738FE2046E56237
:102F4000FEF7E7FDD4F8B80218B100F0A2FAC4F811
:102F5000B852002070BD00000A210180004870476F
:102F6000200100202021018000487047E00000205F
:102F70002021018000487047C000002020210180EE
:102F8000004870470001002070B50446007C012510
:102F9000D0B14023022201212046FFF709FF402340
:102FA000C4F86C51022281212046FFF701FF4FF443
:102FB0001B70E56200F06EFAC4F8B80280B12046DA
:102FC000FEF7ACFD002070BD4FF4007633460222C0
:102FD00001212046FFF7ECFE3346C4F86C51E1E7CF
:102FE000022070BD09B1C0F8BC12002070472DE965
:102FF000F8430026D0F8B8720546ADF800600878AE
:103000000C46B04610F0600120D020293DD16178F7
:10301000FE2902D0FF2938D10EE0618881BBE1880A
:10302000012932D1000630D5D5F8BC02806980472D
:103030000122394638601FE0618809BBE188F9B98F
:10304000000622D42846FEF78AFD23E0607830B1DE
:10305000012825D00A2809D00B2816D111E095F8AF
:103060009C02032811D10222694605E095F89C02D2
:1030700003280AD10122391D2846FFF74BFC09E03D
:1030800003E095F89C02032807D021462846FFF765
:103090002BFC02263046BDE8F883A0787860F9E77B
:1030A00021792846FFF72FFE21792846FFF77EFD7C
:1030B000A0884FF00107010600F00F0000EB800030
:1030C0004FF4007305EB80000BD5C0F81880287C06
:1030D00000B14023022281212846FFF769FEEF62FA
:1030E0000BE0C0F85881287C00B140230222012166
:1030F0002846FFF75DFEC5F86C7121792846FEF77A
:10310000B9FCC7E70A7802704A7842708A78CB78AF
:1031100002EB032242800A794B7902EB0322828080
:103120008A79C97902EB0121C180704702460020EB
:1031300011B1C2F8B41270470220704710B5D0F830
:10314000B42202241AB11268904700B90024204624
:1031500010BD000070B50E461E4D897804462970DA
:10316000012931D894F89C0202280BD003280FD0F3
:1031700031462046FFF7B8FB29782046BDE870406D
:10318000FFF79BBBD9B10320616084F89C0209E082
:1031900071B16068884212D0C1B22046FFF78DFB42
:1031A000297861602046FFF7C9FF02280CD006E0AD
:1031B000022084F89C0220466160FFF77EFB2046D7
:1031C000BDE87040FFF7B3BB31462046BDE8704014
:1031D000FFF78ABB8400002010B5FFF77EFE0020B9
:1031E00010BD2DE9F0410A78002612F0600208D0E7
:1031F000202A01D0402A70D1D0F8B422926890479A
:103200006DE04B78002201250A2B66D2DFE803F03F
:10321000405D6557650805652C29FFF705FC5EE0F4
:1032200004468888D8B9C888C8B94888802816D282
:1032300000F07F0794F89C02032810D084F89E7257
:1032400039462046FFF70AFE2046FFF770FB1FB104
:10325000022084F89C0242E084F89C523FE0204621
:103260003BE0FFF777FF3AE0CB88012B35D190F8B0
:103270009C32012B04D0022B02D0032B2DD104E071
:103280008260012200F1080116E00122011D13E015
:1032900090F89C22012A03D0022A01D0032A1CD1D3
:1032A000CA88022A19D1C560D0F8A41209B1032135
:1032B000C160022200F10C01FFF72CFB0FE04988EE
:1032C00001290CD1C0F8A45211E090F89C32012BD6
:1032D00008D0022B06D0032B04D0FFF705FB3046A5
:1032E000BDE8F08149880129F9D1C0F8A422FFF78F
:1032F0001EFBF4E72DE9F0410A460446107800274A
:10330000097910F060030AD0202B01D0402B50D156
:10331000D4F8B40211468368204698478FE0C0F382
:103320004110012806D05078D0B301282AD00328B4
:103330003FD107E0D4F8B402114683682046BDE8C7
:10334000F041184794F89C02022802D0032872D159
:103350000AE071B380296ED02046FFF7B5FD8021C9
:103360002046FFF7B1FD6AE0508838B931B18029B5
:1033700004D0D08810B92046FFF7A6FD2046FFF7FD
:10338000D6FA5CE094F89C020228E2D0032852D1DD
:10339000508898BB4806F1D02046FFF7FEFBEDE7CA
:1033A000FFE794F89C020026022803D0032842D1AC
:1033B00012E040E009B180293DD1080601F07F000C
:1033C00000EB800004EB800101D5143101E001F530
:1033D000AA7102220E602AE0080601F00F0000EB3D
:1033E000800004EB80000AD5806920B301F07F00E3
:1033F00000EB800004EB800514350BE01FE0D0F8F3
:103400005801C0B101F07F0000EB800004EB8005A3
:1034100005F5AA7541B1802906D02046FFF7B8FC12
:1034200010B10120286000E02E60022229462046CB
:10343000FFF770FA03E011462046FFF755FA3846C9
:10344000BDE8F08170B5054608780C4610F06000C4
:1034500003D0202801D0402816D195F89C020128DD
:1034600003D0022801D003280ED1207901280BD8DF
:10347000D5F8B402826828469047E188014306D116
:103480002846FFF754FA02E02846FFF72DFA0020FD
:1034900070BD704700487047480600202DE9F0478E
:1034A0000C78002630F8243048F68F121340CA7882
:1034B000002A7DD0012A7CD0022A02D0032A7FD0A4
:1034C000012648F28002134320F824300D7830F8AA
:1034D000254048F68F731C402C43144320F82540A8
:1034E0000D7B48F2C00C48F6BF744CF280074BF6D7
:1034F0008F79EDB391F80080C24630F8285048F239
:1035000080181D4045EA080520F82A50B0F85050B0
:1035100091F80080054405EB0815B1F8088028F003
:103520000108A5F80084B0F8505091F800800544D7
:1035300005EB0815B1F80A8028F00108A5F8088401
:103540004D78002D0D7830F825804FEA48487DD021
:10355000B8F1000F07DA30F8258008EA030848EAD6
:10356000070820F825800F7830F827506D0600E016
:103570002CE006D530F827501D4045EA0C0520F810
:103580002750CB780D78012B30F8253003EA04035F
:1035900001D083F02003134320F825300B7830F856
:1035A000231001EA0901114320F82310304602E0FC
:1035B00003E008E004E0BDE8F08743F4007380E72F
:1035C00043F4C0637DE743F480637AE74D782DB31D
:1035D000B0F850500F78054405EB0715CF8827F059
:1035E0000107A5F800740F7830F827506D0606D54E
:1035F00030F827501D4045EA0C0520F82750CB78BD
:10360000012B06D00B7830F82310214081F02001E7
:10361000C9E70B7830F823102140C4E7B0F85040D8
:103620000D78044404EB0514CD8825F00105A4F8B9
:103630000854B0F850400D78044404EB05140D69AB
:1036400004F20C4475B13E2D14D800E030E04FEA8E
:10365000550CED0701D00CF1010C4FF6FF7505EA92
:103660008C2511E0258825F4F8452580258845F42A
:10367000004509E04FEA551CED0601D1ACF1010C03
:103680004FF4004545EA8C2525800D7830F825401B
:10369000640405D530F825401C403C4320F8254003
:1036A0000B7830F8231001EA090181F440517AE7E0
:1036B000B8F1000F07DA30F8258008EA030848EA75
:1036C000070820F825800F7830F827506D0606D5BA
:1036D00030F827501D4045EA0C0520F827500D789A
:1036E00030F8253003EA090383F44053134320F8EC
:1036F00025308EE7002070472DE9F04391F80C80CB
:103700004F780A7848F6BF7C4BF68F7948F28003F1
:1037100048F2C0054CF2800648F68F74B8F1000FED
:1037200028D0002F30F822704FEA474748D0002FAA
:1037300005DA30F822702740374320F822700A78E3
:1037400030F822707F0605D530F8227027402F43CD
:1037500020F822700D7830F825202240324320F8DE
:1037600025200C7830F8242002EA0C021A4320F8B5
:1037700024201AE07FB130F82260760605D530F8B3
:10378000226026402E4320F822600A7830F822106A
:1037900001EA0C010EE030F822506D0405D530F836
:1037A00022502540354320F822500A7830F8221064
:1037B00001EA0901194320F822100020BDE8F08336
:1037C000002F05DA30F822702740374320F82270A6
:1037D0000A7830F82260760605D530F82260264057
:1037E0002E4320F822600E7830F8262022402A430B
:1037F00020F826200C7830F8242002EA09021A4327
:1038000020F82420C1E700207047002070470121E4
:1038100020F8401F00210180818001820846704706
:1038200030F8401F21F43F41018000207047002004
:10383000704730B50A7BB2BB4A7848F68F7548F2BC
:103840008004C2B10B7830F82320520607D530F837
:1038500023202A4048F2C0052A4320F82320CA78B2
:10386000012A20D00A7830F8221048F6BF73194098
:1038700081F0200114E00A7830F822305B0407D58B
:1038800030F822302B404CF280052B4320F82230B8
:103890000A7830F822104BF68F73194081F44051AA
:1038A000214320F82210002030BD10B54A78097855
:1038B000002A48F2800330F8212005D048F6BF7472
:1038C000224082F0100204E04BF68F74224082F412
:1038D00080521A4320F82120002010BD2DE9F04726
:1038E0000E464B78097B04464FF0000948F68F726C
:1038F00048F2800A4FF6FF774FF40048012B09D0B9
:1039000000296ED0F07802286CD001286BD00120FD
:10391000BDE8F087B5693069854200D90546C9B16F
:10392000F17848F28013022923D0317834F821004D
:103930001040184324F82100306A401B3062307870
:1039400034F82010490671787ED500297DD00129F0
:103950007CD03FE1ABB2F2882046716900F0FAFA00
:10396000B4F850003178204400EB0110A0F8045462
:10397000EAE0316A81426AD9317834F82100104096
:10398000184324F82100306A401B3062307834F844
:103990002010490671786CD511B1012924D02AE094
:1039A000B4F85010214401EB001000F20C404DB16E
:1039B0003E2D0FD86908EA0700D0491C07EA81218B
:1039C000018018E0018821F4F8410180018841F468
:1039D0000041F5E76909EA0600D1491E48EA81215C
:1039E000EEE79CE1BCE126E2B4F85020111901EBAE
:1039F0000010A0F80C547289ABB22046716900F037
:103A0000A9FA7069284470613169306A884202D924
:103A1000401B306202E00546C6F82090707800280E
:103A20007CD1B4F850003178204400EB011000F252
:103A300004406DB13E2D13D86908EA0700D0491C37
:103A400007EA8121018012E001E19BE0BBE084E014
:103A5000018821F4F8410180018841F40041F1E737
:103A60006909EA0600D1491E48EA8121EAE732895C
:103A700065E011B1012921D027E0B4F850102144AC
:103A800001EB001000F204404DB13E2D0FD8690843
:103A9000EA0700D0491C07EA8121018015E001886E
:103AA00021F4F8410180018841F40041F5E76909FA
:103AB000EA0600D1491E48EA8121EEE7B4F8501029
:103AC000214401EB0010A0F804543289ABB2204627
:103AD000716900F03FFA7069284470613169306A99
:103AE000884202D9401B306202E00546C6F82090A9
:103AF000707800287ED1B4F850003178204400EB73
:103B0000011000F20C4055B13E2D10D86908EA07AB
:103B100000D0491C07EA812101800FE072E0018892
:103B200021F4F8410180018841F40041F4E769097A
:103B3000EA0600D1491E48EA8121EDE77289ABB25D
:103B40002046716900F006FA317834F8210048F611
:103B5000BF72104080F03000C0E1327834F82200AB
:103B600048F68F63184040EA0A0024F82200B4F8AF
:103B700050003278204400EB02108BB2A0F80434DD
:103B80003289DDE7B4F85010214401EB001000F257
:103B90000C404DB13E2D0FD86908EA0700D0491CF2
:103BA00007EA8121018015E0018821F4F8410180B4
:103BB000018841F40041F5E76909EA0600D1491E90
:103BC00048EA8121EEE7B4F85020111901EB00100A
:103BD000A0F80C547289ABB22046716900F0BAF9B2
:103BE0007069284470613169306A884203D9401B8A
:103BF000306203E06EE00546C6F82090002DA3D0A9
:103C0000707858B101287FF41EAFB4F850003178B5
:103C1000204400EB0110A0F8045428E7B4F8500049
:103C20003178204400EB011101F204413E2D06D809
:103C30006808EA0700D0401C07EA802005E0680910
:103C4000EA0600D1401E48EA802008800FE711B143
:103C5000012921D027E0B4F85010214401EB0010D5
:103C600000F204404DB13E2D0FD86908EA0700D09C
:103C7000491C07EA8121018015E0018821F4F841FF
:103C80000180018841F40041F5E76909EA0600D1A5
:103C9000491E48EA8121EEE7B4F85010214401EBB7
:103CA0000010A0F804543289ABB22046716900F0CC
:103CB00051F97069284470613169306A884202D9CB
:103CC000401B306202E00546C6F82090002D96D0D9
:103CD000707858B101287FF420AFB4F8501008195B
:103CE000317800EB0110A0F80C5427E7B4F850002D
:103CF0003178204400EB011101F20C413E2D06D831
:103D00006808EA0700D0401C07EA802005E068093F
:103D1000EA0600D1401E48EA802008800EE7B1691B
:103D20003069814202D9091AB161B5E00846C6F886
:103D30001890B1E0088820F4F8400880088840F422
:103D400000400BE03E2875D84208C00700D0521C46
:103D500007EA822002E000BF48EA82200880B5E03E
:103D600093B9B4F850003178204400EB0110316968
:103D700000F2044069B13E2913D84B08C90700D0AE
:103D80005B1C07EA83210180707888B1012832D05A
:103D90003AE0018821F4F8410180018841F40041B2
:103DA000F1E74B09C90600D15B1E48EA8321EAE727
:103DB000B4F850003178204400EB0110316900F272
:103DC0000C4049B13E290FD84B08C90700D05B1CF5
:103DD00007EA8321018017E0018821F4F84101807E
:103DE000018841F40041F5E74B09C90600D15B1E8B
:103DF00048EA8321EEE7B4F850100819317800EB57
:103E00000110318AA0F80C14F069A8B3317834F8A5
:103E10002100430401D5430603D444F24003184271
:103E200054D134F82100104048F2C002104324F865
:103E300021004BE03CE0B1693069814202D9091AA6
:103E4000B16102E00846C6F818908BB9B4F850107A
:103E50003278214401EB021101F2044168B13E289D
:103E600013D84208C30700D0521C07EA82220A80F6
:103E7000717889B1012921D028E00A8822F4F8421A
:103E80000A800A8842F40042F1E74209C30600D1E1
:103E9000521E48EA8222EAE7B4F8501032782144F0
:103EA00001EB021101F20C4100287FF44BAF41E716
:103EB0004209C0067FF450AF521E4DE7B4F85020BF
:103EC0001119327801EB0211A1F80C04317834F8A1
:103ED00021004BF68F72104080F4405040EA0A00F7
:103EE00024F82100002013E50021A0F844104FF42D
:103EF0003F41A0F84010002070470020704700208C
:103F0000704700000148FCF70FBF0000B808002010
:103F1000B0F844007047000010B500EB42005C08A8
:103F200000F5806009D000BF30F8042B01F8012BA8
:103F3000120A01F8012B641EF6D1DA0701D00088BD
:103F4000087010BD0020704711B98021A0F84C10F6
:103F50000020704710B55B1C00EB42005B0800F5C9
:103F6000806009D011F8012B11F8014B42EA0422BC
:103F700020F8042B5B1EF5D110BDFEE70907090EE2
:103F8000002804DB00F1E02080F80014704700F006
:103F90000F0000F1E02080F8141D7047FCF7E4FAF0
:103FA000FEF74FFCFDF704FEFDF75EFEFDF738FE61
:103FB000FEE7000001B582B064200090012301AA51
:103FC00002A90348FDF7ACFB9DF804000EBD0000FC
:103FD0002C010020008002021F00000053544D20DD
:103FE0002020202050726F647563742020202020D0
:103FF00020202020302E3031000000000000000082
:104000000102030406070809000000030080830082
:10401000000000000000000006000000000000009A
:1040200040400008000000202C010000280100088A
:10403000E44000082C010020DC200000840100087E
:1040400032FF1365291B0895041AA1041AC9041A22
:10405000F1041A45041A7104170403090412013209
:1040600002164083042A57260201020301031A1A8A
:10407000031323281B0811041A2D041A31041A35BE
:10408000041A39041A1F0413D43F1A083F1182106E
:104090005324F413892F1B0825041AEF04811A11E5
:1040A0000C9A1B10411A71101A65041A7D041A59D2
:1040B00004140902202008010104C0320904180A6E
:1040C000020806500507058102B02C070501070903
:1040D00014202240292019070B1C0907204B0A062F
:0440E000FC29B40003
:04000005080000ED02
:00000001FF
