:020000040800F2
:10580000381E002089590008977400080D7300089D
:10581000957400081B5B0008238F0008000000003F
:10582000000000000000000000000000AF7700084A
:10583000055E000800000000AD770008B1770008A1
:10584000A3590008A3590008A3590008A359000848
:10585000A3590008A3590008A3590008A359000838
:10586000A3590008A3590008A3590008A359000828
:10587000A3590008A3590008A3590008A359000818
:10588000A3590008A3590008A3590008A359000808
:10589000AD8E0008A3590008A3590008A3590008B9
:1058A000A3590008A3590008A3590008A3590008E8
:1058B000A3590008A3590008A3590008A3590008D8
:1058C000A3590008A3590008A3590008A3590008C8
:1058D000A3590008A3590008A3590008A3590008B8
:1058E000A3590008A3590008A359000800F002F8C2
:1058F00000F03AF80AA090E8000C82448344AAF130
:105900000107DA4501D100F02FF8AFF2090EBAE82D
:105910000F0013F0010F18BFFB1A43F001031847E3
:10592000AC360000CC360000103A24BF78C878C1ED
:10593000FAD8520724BF30C830C144BF04680C6095
:10594000704700000023002400250026103A28BFDD
:1059500078C1FBD8520728BF30C148BF0B607047E1
:105960001FB51FBD10B510BD00F09DF81146FFF723
:10597000F7FF03F0E7FA00F0BBF803B4FFF7F2FF1C
:1059800003BC00F0C3F800000948804709480047FD
:10599000FEE7FEE7FEE7FEE7FEE7FEE7FEE7FEE7DF
:1059A000FEE7FEE704480549054A064B704700003C
:1059B0002B780008ED580008380E0020381E002013
:1059C0003816002038160020B2F120030AD5C2F1A3
:1059D000200320FA02F001FA03F321FA02F140EA6F
:1059E0000300704721FA03F04FF00001704710B533
:1059F000203AC0F00B80B1E81850203AA0E81850C7
:105A0000B1E81850A0E81850BFF4F5AF5FEA027C87
:105A100024BFB1E81850A0E8185044BF18C918C0F6
:105A2000BDE810405FEA827C24BF51F8043B40F897
:105A3000043B08BF7047D20728BF31F8023B48BF7C
:105A400011F8012B28BF20F8023B48BF00F8012BBA
:105A500070474FF0000200B5134694469646203931
:105A600022BFA0E80C50A0E80C50B1F12001BFF417
:105A7000F7AF090728BFA0E80C5048BF0CC05DF87D
:105A800004EB890028BF40F8042B08BF704748BFCB
:105A900020F8022B11F0804F18BF00F8012B70473F
:105AA000704770477047754600F02CF8AE46050009
:105AB0006946534620F00700854618B020B5FFF729
:105AC00071FFBDE820404FF000064FF000074FF097
:105AD00000084FF0000B21F00701AC46ACE8C0090C
:105AE000ACE8C009ACE8C009ACE8C0098D46704715
:105AF00010B50446AFF300802046BDE81040FFF724
:105B00003CBF000000487047D80D00200149182014
:105B1000ABBEFEE7260002007047FEE710B5D0F8E6
:105B2000B822044692F81834022B07D0032B05D074
:105B3000052B03D0062B01D0092B13D1022082F8AC
:105B40001804002382F8103482F8113482F81234D9
:105B500082F8133482F8140482F81534C2F8003441
:105B6000C2F804340848407DC00607D5204602F03C
:105B7000E0FC2046BDE8104002F07EBB4888BDE84E
:105B8000104000F0CDB90000BC00002030B40B463E
:105B9000D0F8B812DC8891F818248CB1022A01D010
:105BA000052A11D15A88C1F80024DA880323C1F8E4
:105BB000042481F8183481F8143430BC01F058BE44
:105BC000052A05D0022A03D030BC194601F045BE93
:105BD000012081F81904062281F81824002081F898
:105BE000110481F8120481F8130481F8142430BCE4
:105BF0007047000070B5D0F8B8420546002194F80F
:105C00001804032802D0062845D128E0D4F804045B
:105C100018B3042084F8180484F8111484F81214BA
:105C200084F8131484F81404D4F8000410B920780C
:105C3000412809D0D5F8BC12D4F8080404F58262D2
:105C40008B690121984726E0D5F8BC12D4F80804E6
:105C500004F582628B690021F4E7052011E094F8D5
:105C60001904012801D038B115E0072084F8180480
:105C7000012284F8112408E00B48007D40070AD572
:105C8000022084F8180484F8111484F8121484F89B
:105C9000131484F8140404F582612846BDE87040AA
:105CA000062201F0FFBD0000BC00002010B5044634
:105CB000D0F8B8121848002281F81924007D400756
:105CC0000BD5062081F8180481F8112481F81224DC
:105CD00081F8132481F8140410BD082081F81804F9
:105CE00081F8112481F8122481F8132481F8140416
:105CF000204602F01EFCD4F8BC0280688047BFF347
:105D00004F8F06480168064A01F4E06111430160C3
:105D1000BFF34F8F00BFFDE7BC0000200CED00E09B
:105D20000400FA0570B50B460546C988D0F8B8429C
:105D30000020B1B394F81814022906D0092904D020
:105D4000C4F80404C4F800044AE05988C4F80014F4
:105D5000DA88C4F8042401B3012936D9092384F868
:105D6000183484F8110484F8120484F8130484F8B5
:105D700014348802D4F80814A0F500600844D5F85B
:105D8000BC124B69214698470146B4F8040482B21C
:105D90002846BDE8704001F085BD032A02D90221E2
:105DA00001E023E0092184F8181484F8110484F830
:105DB000120484F8130484F81414207021206070F5
:105DC0004120A07003222146E2E70F2184F8181435
:105DD00084F8110484F8120484F8130484F8141469
:105DE0002846BDE87040194601F037BD022184F80D
:105DF000181484F8110484F8120484F8130484F845
:105E0000141470BD704772B6FEE70000064900200A
:105E1000C8610648016941F004010161016941F06E
:105E20004001016170470000B80C002000200240D2
:105E3000064A0021D16106490A6942F002020A615C
:105E40004861086940F0400008617047B80C0020C4
:105E500000200240044B0022DA61044A136943F037
:105E60000103136101807047B80C0020002002403C
:105E700014480022C168CB06134904D5CA6942F010
:105E80000202CA611022C3685B0705D5CB6943F0E3
:105E90000103CB6142F00402C369DB0707D0CB6981
:105EA00043F00403CB61C16921F00101C161A2F596
:105EB0008071013901D0C2607047C16921F00101D0
:105EC000C161704700200240B80C002070B5054643
:105ED00000F0E0F90646114C09E0681C07D025B136
:105EE00000F0D8F9801BA84201D9032070BDE068FA
:105EF000C007F2D1E068800601D52020E060E068AC
:105F0000C00605D4E069C00702D1E068400703D5A8
:105F1000FFF7AEFF012070BD002070BD00200240E1
:105F200070B5044600F0B6F90546601C02D004487E
:105F30000078044400F0AEF9401BA042FAD370BDD3
:105F40006C0000202DE9F047054626480F46012643
:105F5000017E01290FD00121814601762868DFF8F2
:105F600088804CF25034022808D0A2462046FFF721
:105F7000ADFFA8B131E00220BDE8F0872046FFF771
:105F8000A5FF08BB0120FFF741FF2046FFF79EFF5A
:105F9000D8F81010064621F00401C8F810101CE0D3
:105FA0004FF0FF303860AC6811E02046FFF740FF4B
:105FB0005046FFF78BFFD8F81010060021F00201C1
:105FC000C8F8101001D03C6007E004F58064D5E902
:105FD000020100EB8120A042E7D8002189F81810C7
:105FE0003046C9E7B80C0020002002400348016990
:105FF00041F0800101610020704700000020024054
:106000002DE9F05F07461C4888460024017E1546AE
:106010001E46012909D00121814601764CF2503AF1
:106020005046FFF753FF18B122E00220BDE8F09F71
:10603000012F02D0022F00D00427D346DFF83CA066
:10604000220128463146FFF7BFFC81B208EB44002D
:10605000FFF700FF5846FFF739FFDAF8102022F06B
:106060000102CAF8102018B9641CE4B2BC42E7D39C
:10607000002289F81820D9E7B80C0020002002403F
:10608000064900200A69120607D5054A4A60054AF2
:106090004A600969090600D50120704700200240C6
:1060A00023016745AB89EFCD2DE9F84FDFF8B891B3
:1060B000002409F1040A0AF1040B23460F270BF10F
:1060C000040EC9E00125A5402A40AA427DD1674EB1
:1060D000D1F804C0ACEB0608B44532D014DCBCF1F6
:1060E000030F3AD009DCBCF1000F2AD0BCF1010F3C
:1060F0001CD0BCF1020F31D11DE0BCF1110F17D043
:10610000BCF1120F2AD119E0B8F5881F19D006DCAE
:10611000B8F5803F15D0B8F5801F1FD111E0B8F554
:10612000001F0ED0B8F5041F18D10AE0CB6815E0A7
:10613000CB681B1D12E0CB6808330FE0CB680C3333
:106140000CE08B682BB1012B4FF0080303D04561A5
:1061500004E0042302E0056100E00023FF2A01D8E7
:10616000064601E000F104064FEA840501D9A5F1D5
:106170002005D6F8008007FA05FC28EA0C0803FA87
:1061800005F548EA0508C6F800804D68ED0062D5BF
:10619000374DAE6946F00106AE61AD6924F00306E5
:1061A00005F001050095334D06EB050CDCF80850B1
:1061B000A607360F07FA06F825EA0805DFF8B880C3
:1061C000404503D14FF0000817E044E0DFF8AC8011
:1061D000404502D14FF001080FE0DFF8A4804045B0
:1061E00002D14FF0020808E0DFF89880404502D164
:1061F0004FF0030801E04FF0040808FA06F848EAF7
:106200000508CCF808804D68D9F80060ED034D46CC
:1062100001D5164300E096432E604D68DAF8006021
:10622000AD03554601D5164300E096432E604D68F8
:10623000DBF80060ED025D4601D5164300E09643B1
:106240002E604D68DEF80060AD02754601D516433C
:1062500000E096432E60641C0D682A46E5407FF4FA
:1062600031AFBDE8F88F00000004014000001110BC
:10627000001002400000014000080140000C0140F5
:1062800000100140001401408068084000D0012047
:106290007047000001488068704700006C000020D3
:1062A0000248816802781144816070476C000020C8
:1062B000074810B5016841F010010160032000F0AB
:1062C00075F80F2000F006F800F024F8002010BD4B
:1062D0000020024070B50D4D04464FF47A712878C5
:1062E000B1FBF0F00A490968B1FBF0F000F0FAFFE9
:1062F00048B9102C07D200222146501E00F036F873
:1063000000206C6070BD012070BD00006C0000209A
:10631000780000200C4808B5816941F001018161D5
:10632000816901F001010091C16941F08051C161B1
:10633000C06900F0805000900448416821F0E0619D
:1063400041F00071416008BD0010024000000140B2
:10635000002809DB00F01F02012191404009800064
:1063600000F1E020C0F8001170470000F0B40E4BBF
:106370001B680C46C3F30223C3F10705042D00D9A3
:106380000425191D072901D2002300E0DB1E012688
:1063900006FA05F1491E214099409E40761E16409E
:1063A0003143F0BC02F0BEBD0CED00E0064900F048
:1063B000070208684FF6FF03184040EA0220034A2C
:1063C00010430860704700000CED00E00000FA0583
:1063D00010B50C0607D501F0070101EB810100EBB8
:1063E000C100283005E001EB810100EBC10000F5A0
:1063F000B47099B232B1012202730181190C41814A
:10640000002010BD00220273C180F9E7704701EB44
:10641000810200EBC202D0F8E802D26B01F029BD84
:1064200001EB810200EBC202D0F8E802D2F87C2135
:1064300001F082BD70B5044601F00F006268904221
:1064400001D9012070BD0B0601F0070000EB8001AF
:1064500004EBC1014FF001024FF0000503D581F8B4
:106460002920283103E081F8695101F5B4718D705C
:10647000087094F8A802012808D084F8A82220689F
:1064800002F0AEF984F8A852002070BD022070BD61
:106490002DE9F05F04685FEA424C0B788D69B4F82F
:1064A00050C04FF000064BF68F7948F2800A48F64C
:1064B0008F7B48F2C00E4FF480672AD54FF0020858
:1064C00008EBC308C44407EB4C07E45BC4F30904BE
:1064D000A54203D32D1B8D6101D00BE08E610668B0
:1064E00036F8235005EA090585F4005545EA0A0502
:1064F00026F82350520609D50D78036833F8252075
:1065000002EA0B0242EA0E0223F8252084B30A892C
:1065100029E04FF0060808EBC308C44407EB4C071A
:10652000E45BC4F30904A54203D32D1B8D6101D0A4
:106530000BE08E61066836F8235005EA090585F4FC
:10654000005545EA0A0526F82350520609D40B786F
:10655000056835F8232002EA0B0242EA0E0225F80C
:1065600023202CB14A8949690068234602F0A8FC1F
:106570002046BDE8F09F2DE9F05F054600680C4617
:106580005FEA426C16468B692278B0F850C048F634
:106590008F774CF280094FF6FF7B4FF4004E4FF49B
:1065A000806A4FF000017BD54FF0020808EBC2086B
:1065B000E0440AEB480C30F80C00C0F309008342B9
:1065C00011D91B1AA3610FD0730407D52E6836F8B2
:1065D00022303B4043EA090326F8223094F8242075
:1065E000012A50D04EE1A161607810B1012813D08A
:1065F0001AE02868B0F85030184400EB0210B0F8E8
:10660000042422F4F842A0F80424B0F8042442F44C
:106610000042A0F8042407E02868B0F8503018447D
:1066200000EB0210A0F804146278286812B1012A65
:1066300011D018E0B0F850100844217800EB011098
:10664000B0F80C1421F4F841A0F80C14B0F80C14B4
:1066500041F4004105E0B0F850201044227800EBEE
:106660000210A0F80C1421782846FFF7D0FE700421
:10667000B8D521782A6832F82100384040EA09006C
:1066800022F82100FEE0626902446261E26902448C
:10669000E2612369226A9A4203D31846111A04E080
:1066A00038E084F824100AB110462162617811B1F3
:1066B000012923D02BE02968B1F850201144227819
:1066C00001EB021101F2044148B13E280FD8420803
:1066D000C30700D0521C0BEA82220A8017E00A8806
:1066E00022F4F8420A800A8842F40042F5E742099F
:1066F000C30600D1521E4EEA8222EEE72968B1F8A5
:1067000050201144227801EB0211A1F8040483B255
:106710002289B3E04FF0060808EBC208E0440AEB18
:10672000480C30F80C00C0F30900834211D31B1A47
:10673000A3610FD0730407D42E6836F822303B4093
:1067400043EA090326F8223094F82420012A50D085
:1067500098E0A161607810B1012813D01AE0286890
:10676000B0F85030184400EB0210B0F8042422F4C2
:10677000F842A0F80424B0F8042442F40042A0F83F
:10678000042407E02868B0F85030184400EB0210E9
:10679000A0F804146278286812B1012A11D018E018
:1067A000B0F850100844217800EB0110B0F80C1438
:1067B00021F4F841A0F80C14B0F80C1441F4004195
:1067C00005E0B0F850201044227800EB0210A0F849
:1067D0000C1421782846FFF71AFE700452D4227850
:1067E000296831F82200384040EA090021F82200E7
:1067F00048E0626902446261E2690244E26123693D
:10680000226A9A4203D31846111A216204E00AB19F
:106810001046216284F824106278296812B1012A96
:1068200022D029E0B1F850201144227801EB021166
:1068300001F20C4148B13E280FD84208C30700D0EE
:10684000521C0BEA82220A8016E00A8822F4F842DF
:106850000A800A8842F40042F5E74209C30600D1E3
:10686000521E4EEA8222EEE7B1F8502011442278FF
:1068700001EB0211A1F80C04628983B261692868F6
:1068800002F03CFB21782A6832F8210048F6BF73F9
:10689000184080F0300048F28003184322F82100AD
:1068A0000020BDE8F09F2DE9F04104460F0601F0FD
:1068B000070000EB800104EBC1014FF001064FF02F
:1068C000000503D581F82960283103E081F869517A
:1068D00001F5B47108700A61CB704A7802B1C881C1
:1068E000022B00D10D7194F8A802012809D084F878
:1068F000A862206801F030FE284684F8A852BDE85E
:10690000F0810220FBE770B50C4601F0070505EBAE
:10691000850100EBC101C1E95F230022C1F8842198
:1069200081F8692181F8685101F5B4716207006846
:1069300001F0ACFF002070BD70B504460D4601F0BB
:1069400007006168884201D9012070BD29064FF017
:1069500000064FF0010207D500EB800104EBC101F6
:1069600081F82920283107E005EB850104EBC101FE
:1069700081F8696101F5B4718A70087094F8A80211
:10698000012807D084F8A822206801F065FF680775
:1069900002D006E0022070BD04F52C71206801F0E1
:1069A0001DFF84F8A862002070BD70B50C4601F090
:1069B000070505EB850100EBC101C1E90F230122A9
:1069C00081F84C208B6400234B6481F8292001F866
:1069D000285F6207006801F059FF002070BD1FB5F5
:1069E0000446006802F068FA000402D5204600F070
:1069F00053FD206802F060FA40050CD5206830F89D
:106A0000441F21F480610180204600F01FF900211D
:106A1000204600F036F9206802F04EFA400405D511
:106A2000206830F8441F21F480410180206802F082
:106A300043FA800405D5206830F8441F21F4005142
:106A40000180206802F038FAC00414D5206830F8BC
:106A5000401F21F004010180206830F8401F21F020
:106A600008010180204600F004F9206830F8441F36
:106A700021F480510180206802F01EFA00053ED505
:106A800022680020694632F8203021F81030401C7E
:106A9000C0B20828F7D332F8400F40F00100108050
:106AA000206830F8402F22F0010202802068B0F800
:106AB00044205205FBD530F8442F22F48062028036
:106AC0000020236831F8102023F82020401CC0B299
:106AD0000828F6D3206830F8401F41F008010180F3
:106AE000206830F8441F21F400610180206830F8EC
:106AF000401F41F004010180204600F00FF920689A
:106B000002F0DAF9800508D5206830F8441F21F436
:106B100000710180204600F0B0F8206802F0CCF946
:106B2000C00505D5206830F8441F21F4807101802C
:106B30001FBD00002DE9F04186B0040004D094F898
:106B4000A902002520B108E0012006B0BDE8F081CF
:106B500084F8A852204600F05BF8032084F8A902CC
:106B6000206801F034FE04F11001142288466846C2
:106B7000FEF73DFF94E80F0001F01AFE0226D0BB9D
:106B80000021206802F0B2F9002001270FE000BFC9
:106B900000EB800104EBC10181F8297001F8280F96
:106BA000C881CD700D614D61401CC0B28D616168BE
:106BB0008142EDD8002011E000EB800104EBC1011F
:106BC00081F8695181F8680181F86B51C1F87851F9
:106BD000C1F87C51401CC0B2C1F88051616881424B
:106BE000EAD8142241466846FEF701FF94E80F00F8
:106BF00001F0E4FD10B184F8A962A5E784F82450FF
:106C000084F8A972206801F0D7FD00209DE70000FC
:106C100008B500680B49884212D10B48C16941F49C
:106C20000001C161C069002200F40000009011461B
:106C30001420FFF79BFBBDE808401420FFF788BB3A
:106C400008BD0000005C00400010024070B5044622
:106C500080680125022801D0FFF7D5F82946D4F82D
:106C6000E80201F03AFAD4F8E802BDE8704001F019
:106C7000F6B9D0F8E80201F01ABAD0F8E80201F04B
:106C800020BA10B5044690F8A80201280BD00120C4
:106C900084F8A80284F82410206802F029F9002062
:106CA00084F8A80210BD022010BDD0F8E82200F53B
:106CB0002C71104601F01DBA10B5044690F8A802D8
:106CC000012810D0012084F8A802206802F0E4F81E
:106CD00001212046FFF79AFB206801F06BFD0020A0
:106CE00084F8A80210BD022010BD10B5044690F82B
:106CF000A802012810D0012084F8A802206801F021
:106D000066FD00212046FFF781FB206801F054FD5D
:106D1000002084F8A80210BD022010BD10B5044662
:106D2000D0F8E80201F02DFAA069002804D0034849
:106D3000016841F00601016010BD000010ED00E0A7
:106D40002DE9F84305460078354CC00754D0E0697A
:106D50000026C00008D4E06940F08050E061E0699E
:106D6000012600F0805000902E480168C90512D419
:106D70000168804641F480710160FFF78BFA074695
:106D800005E000BFFFF786FAC01B642823D8D8F8B7
:106D90000000C005F6D5206A10F4407021D0A98803
:106DA00001F4407181421CD0206A1F49012220F465
:106DB00040700A6000220A602062C00711D0FFF70D
:106DC00069FA074641F2883808E000BFFFF762FA27
:106DD000C11B414502D90320BDE8F883206A800722
:106DE000F4D5206A696820F44070084320621EB11F
:106DF000E06920F08050E0612878800705D5606860
:106E0000A96820F44040084360602878C00605D592
:106E10006068E96820F48000084360600020DBE7D8
:106E20000010024000700040400442422DE9F0474B
:106E30000F46050061D0434E306800F00700B842AD
:106E400009D2306820F0070038433060306800F025
:106E50000700B84251D128683B4C810712D5400742
:106E600003D5606840F4E06060602878000703D5CF
:106E7000606840F4605060606068A96820F0F000CD
:106E8000084360602878C00728D06868012810D0BF
:106E90002168022810D0890700292EDA616821F0C4
:106EA000030101436160FFF7F5F9804641F288393B
:106EB0000DE021688903EFE78901EDE7FFF7EAF9C3
:106EC000A0EB0801494502D90320BDE8F0876068BE
:106ED000696800F00C00B0EB810FEFD1306800F072
:106EE0000700B8420BD9306820F007003843306003
:106EF000306800F00700B84201D00120E5E72878AB
:106F0000400705D56068E96820F4E06008436060E8
:106F10002878000706D56068296920F4605040EAA7
:106F2000C100606000F018F86168084AC1F30311FD
:106F3000515CC8400649086006480068FFF7CAF976
:106F40000020C2E700200240001002408C8F0008A1
:106F5000780000207000002012A185B00FC98DE8D4
:106F60000F0014A0144A006804905168134801F0FF
:106F70000C03042B10D0082B0ED1C1F38343C9039B
:106F80001DF803000AD5516804AAC1F34041515CC1
:106F90000A4A5043B0FBF1F005B070470849484336
:106FA000FAE7000002030405060708090A0B0C0DA6
:106FB0000E0F1010010200000010024000127A00B3
:106FC00000093D002DE9F84F040070D02078C04D35
:106FD000C00749D06868C0F38100012807D06868FD
:106FE000C0F38100022809D16868C00306D528686B
:106FF000800339D560680028E7D035E06068B0F5D7
:10700000803F0BD010B1B0F5A02F11D0286820F42C
:1070100080302860286820F4802002E0286840F44E
:1070200080302860606890B1FFF734F906460AE0C6
:10703000286840F480202860F0E700BFFFF72AF9B5
:10704000801B642873D828688003F7D50CE0FFF70D
:1070500021F9064605E000BFFFF71CF9801B6428F4
:10706000F0D828688003F7D420789A4E80074FF034
:1070700001094FF0000839D5686810F00C0F07D0EF
:107080006868C0F38100022809D16868C00306D48B
:107090002868800714D52069012808D110E02069EC
:1070A000B0B1C6F80090FFF7F5F8074605E00AE131
:1070B000FFF7F0F8C01B0228C4D828688007F7D56E
:1070C0002868616920F0F80040EAC10028600DE0FE
:1070D000C6F80080FFF7DEF8074604E0FFF7DAF8AD
:1070E000C01B022823D828688007F7D4207800071F
:1070F0002CD57948A169D9B1C0F80090FFF7CAF83A
:10710000074604E0FFF7C6F8C01B02280FD8686ADC
:107110008007F7D571484FF4FA510068B0FBF1F0E1
:10712000009000BF0098411E0091FAD20EE080E06E
:10713000C0F80080FFF7AEF8074604E0FFF7AAF8B2
:10714000C01B022875D8686A8007F7D420784007EA
:1071500060D5E8690027C00008D4E86940F0805095
:10716000E861E869012700F0805000905C48016800
:10717000C90513D40168834641F480710160FFF7AB
:1071800089F8824606E000BFFFF784F8A0EB0A000A
:1071900064284ED8DBF80000C005F5D5E06801286A
:1071A0000AD008B1052813D0286A20F0010028620F
:1071B000286A20F0040002E0286A40F001002862FA
:1071C000E06841F2883B98B1FFF764F882460BE033
:1071D000286A40F004002862EEE700BFFFF75AF883
:1071E000A0EB0A0159455AD8286A8007F6D50CE069
:1071F000FFF750F8824605E0FFF74CF8A0EB0A01D4
:1072000059454CD8286A8007F6D41FB1E86920F0A8
:107210008050E861E06988B36968C1F3810102299F
:1072200044D00228C6F8608004D0FFF733F8044643
:1072300038E034E0FFF72EF8074604E0FFF72AF8BD
:10724000C01B02282BD828688001F7D4206AB0F52B
:10725000803F05D16868A16820F400300843686069
:10726000D4E908010843696821F47411084368608F
:10727000C6F86090FFF70EF8044606E025E000BF70
:10728000FFF708F8001B022809D828688001F7D505
:107290001BE000BFFEF7FEFF001B022802D90320FF
:1072A000BDE8F88F28688001F4D40EE00128F7D0FB
:1072B0006868226A00F48031914204D1616A00F466
:1072C0007010884201D00120EAE70020E8E70000C2
:1072D0000010024000004242800442427800002038
:1072E0000070004010B5401EB0F1807F01D3012036
:1072F00010BD4FF0E02460610F21601701F012FE15
:107300000020A06107202061002010BDFEE70000E2
:10731000F0B500230A24302537261F4611E000BFB0
:10732000B4EB107F02D905EB107C01E006EB107C7A
:1073300001F813C001EB430C00015B1C8CF80170D9
:10734000DBB29342ECD3F0BD10B5FEF74FFE002048
:1073500010BD00B585B0002102900120009103907E
:1073600004A96846FEF7EEFD002800D0022005B013
:1073700000BD0020322353709070D070704710B55C
:10738000FEF77EFE002010BD10B5002304E000BF14
:1073900010F8014BCC545B1C9342F9D3084610BD46
:1073A0002DE9F04117460D46064600240EE03259FD
:1073B000291900230220FEF723FE18B93059295954
:1073C000884202D00220BDE8F081241DBC42EED3E9
:1073D0000020F8E700B585B0002001900390164822
:1073E000816941F010018161816901F0100104910E
:1073F000816941F020018161816901F020010491DE
:10740000816941F008018161816901F008010491FD
:10741000816941F0040181618069694600F00400DE
:1074200004904FF400600090012002900348FEF7A2
:107430003BFE05B000BD000000100240000C014002
:1074400010B500220F49104800F0F5FC08B1FEF716
:10745000DAFC0E490C4800F0BAFE08B1FEF7D3FC86
:107460000B49094800F010FB08B1FEF7CCFC0648B8
:1074700000F002FF002803D0BDE81040FEF7C3BCB7
:1074800010BD000000000020E4000020800000206B
:1074900050000020FEE7FEE72DE9F84F044640F6D5
:1074A0008F7B48F60F7A4FF002094FF4806874E141
:1074B000B0F8441011F00F063AD030F826703904B5
:1074C0007DD530F8261001EA0B0141F0800120F84B
:1074D000261006EB860004EBC00595F8740105F54F
:1074E000B47500286CD0E87802286AD02878226821
:1074F00032F8201048F68F73194048F2C003194340
:1075000022F820102878D4F800C03CF82010BCF8ED
:10751000502049047ED509EBC000111808EB41004A
:107520003CF800008005800D009074D02A89D8E0D6
:10753000C9062DD4018801EA0A0141F40041018005
:10754000216804F12805B1F850202B7809EBC3001D
:10755000024408EB4200085AC0F309006064E16B82
:107560000844E06300212046FEF751FF94F8240010
:1075700000289CD0A869002899D194F8240021689B
:1075800040F08000A1F84C00002084F8240004E1C1
:10759000018804F5B4750A0521D5B0F850202B7880
:1075A000062101EBC3010A4408EB4201405A04F5ED
:1075B0002C71C0F30903EB61EA88206802E0ACE0BB
:1075C00068E07AE001F07CFC2168088800EA0B00A2
:1075D00040F0800008802046FFF767FBDDE00904EB
:1075E000D5D5018801EA0B0141F0800101802068B6
:1075F000B0F850202B78062101EBC3010A4408EBB8
:107600004201405A83059B0DEB6110D0696971B14D
:10761000EA8801E058E056E0206801F051FCE96991
:1076200068690844686100212046FEF7F9FE206879
:10763000018809052DD4B0F850100844296900F2DA
:107640000C4051B13E2910D84A08C90700D0521C3D
:107650004FF6FF7101EA82210FE0018821F4F84121
:107660000180018841F4004107E04A09C90600D1C0
:10767000521E4FF4004141EA8221018020680188B6
:107680004BF68F72114081F4405148F28002114351
:10769000018082E0D4F800C0BCF850102A7806209F
:1076A00000EBC200014408EB41003CF800008005FB
:1076B000800D00901AD0EA8813E03A462946204609
:1076C000FEF7E6FE009011E0062101EBC000111864
:1076D00008EB41003CF800008005800D009005D0CB
:1076E0006A8903466046696901F0EAFBE969009826
:1076F0000844E8616969009808446861A86918B19C
:1077000029690098814204D929782046FEF788FE2D
:1077100003E02946206801F0B9F838063DD506EBAC
:10772000860004EBC001206830F8262002EA0A0235
:1077300042F4004220F8262091F82B00283103283B
:1077400004D018B1022824D1F80522D42368B3F854
:1077500050200D7809EBC500024408EB4200185A8E
:107760008A69C0F3090082420CD9121A8A610BD0CF
:107770004A6902444A61CA691044C861206801F03C
:1077800085F80AE000208861E9B22046FEF73FFE56
:1077900003E03A462046FEF7EEFE2068B0F84410BB
:1077A00009043FF585AE0020BDE8F88F70477047AB
:1077B000FEF776BD30B593B028216846FEF749F94B
:1077C00014210AA8FEF745F9002401200F94109413
:1077D0001194010412948DE8130004900005CDE982
:1077E0000810022507956846FFF7ECFB08B172B652
:1077F000FEE70F20CDE90A054FF48060CDE90C408B
:1078000001210AA80E94FFF711FB08B172B6FEE73A
:1078100010200F90800412900FA8FFF791FA002813
:1078200001D072B6FEE713B030BD704710B5D0F886
:10783000B42252689047002010BD134610B50A4686
:10784000002100F003FC002010BD134610B50A46CD
:10785000002100F09FFC002010BD10B504468021DF
:1078600000F074FC2046BDE81040002100F06EBC22
:1078700010B50323C0F85C21C0F89432C0F8602131
:1078800013460A46002100F0E1FB002010BD10B5B0
:1078900005210023C0F894121A46194600F0D6FBC1
:1078A000002010BD10B50223C261C0F894320262FC
:1078B00013460A46002100F06DFC002010BD10B5F3
:1078C00004210023C0F894121A46194600F062FC05
:1078D000002010BD002070470020704770B504469E
:1078E000D0F8B80200250221C0F80054C0F80454B2
:1078F00080F8181480F8105480F81414D4F8B802E2
:1079000048B1D4F8BC0204F52E7480688047206822
:1079100000F01CFE2560002070BD002070477CB583
:10792000D0F8B84294F81814042902D0072963D07B
:1079300064E0D4F80014002589B101293AD9D0F8BF
:10794000BC028902D4F80824A1F50061114403693E
:10795000D4F804242046984760B302207CBD2178E7
:1079600021B1212907D0412916D019E0D4F80414F7
:1079700001291FD014E0D4F80414052910D160782F
:10798000A17800EB0120E17800EB0140217900EBC8
:107990000160C4F808040DE0D4F80414052919D0D6
:1079A000C4F804540121ADF806108DF80050694662
:1079B000FFF753FFC4F804540320C4F8005484F8BC
:1079C000180484F8115484F8125484F8135484F879
:1079D000140413E06178A27801EB0221E27801EB54
:1079E0000241227901EB0261C4F80814D0F8BC020C
:1079F000C26808469047AFE7FEF758F900207CBD03
:107A00001B21018000487047BC0000200A21018032
:107A100000487047D800002010B5062907D8D0F8D4
:107A2000BC020449006800F0D6F9024810BD0020ED
:107A300010BD0000D80C002010B5044640F21C40D8
:107A400000F086FDC4F8B802B0B100F580600021F6
:107A50000A4AC0E9022101604160417602220276B1
:107A6000017441748174C17402754175D4F8BC020B
:107A700040688047002800D0022010BD0058000850
:107A8000002070470020704709B1C0F8BC120020E8
:107A90007047002070470000F8B500260D46ADF88D
:107AA00000602F78D0F8B81232463346344617F0CB
:107AB000600760D0202F6ED16E780222072E6AD226
:107AC000DFE806F05504080C0F3236002946FEF7B1
:107AD0005DF883E02946FEF725F97FE0FEF78AF896
:107AE0007CE091F818040A2811D00A2081F81804C3
:107AF0000E2281F8102481F8113481F8123481F8B3
:107B0000133481F8140400BF81F8153466E081F85D
:107B1000182481F8103481F8113481F8123481F876
:107B2000133481F81424EFE7012201F583613EE06C
:107B300091F81804022807D0032805D0052803D09F
:107B4000062801D0092849D181F8182481F8103479
:107B500081F8113481F8123481F8133481F8142437
:107B600081F81534C1F80034C1F8043436E02946F0
:107B7000FDF7D4FF32E06B7833B1062B0CD00A2B23
:107B800018D00B2B26D11DE090F89C12032921D18F
:107B9000022269460BE01DE069882123B3EB112F17
:107BA00004D1EA88104E092A00D909223146FFF78C
:107BB00079FE13E090F89C22032A0BD1012201F2F6
:107BC0000C41F4E76A8812F0FF0F03D190F89C3261
:107BD000032B05D02946FFF740FE02242046F8BDBE
:107BE000D0B2C1F80C04F9E7CE00002010B50A4667
:107BF000024903A000F0EFF8004810BDA8030020E0
:107C000044465520436F6E66696700001220088065
:107C1000004870472000002010B50A46024903A022
:107C200000F0D9F8004810BDA803002044465520B4
:107C3000496E746572666163650000000420088007
:107C4000004870471C00002010B50A46024903A0F6
:107C500000F0C1F8004810BDA803002053544D693E
:107C600063726F656C656374726F6E696373000035
:107C700010B50A46024903A000F0ADF8004810BD57
:107C8000A803002053544D333220446F776E4C6F5D
:107C90006164204669726D77617265205570646118
:107CA0007465000010B51A2008800A480168001D9C
:107CB0000468001D0068081809D008220649FFF76B
:107CC00027FB0549042210312046FFF721FB02481B
:107CD000801E10BDE8F7FF1F36000020F8B50446EF
:107CE0000020ADF8000048880D46010A082951D24D
:107CF000DFE801F0500409175050454ED4F8B01297
:107D0000207C0A6819E0207C02260028D4F8B402FE
:107D100005D0C16A684688470146467047E0816AD7
:107D2000F8E7C1B2062921D2DFE801F0030A1014F6
:107D3000181CD4F8B002426805E06946904725E077
:107D4000D4F8B00282682AB3207CF6E7D4F8B002F7
:107D5000C268F8E7D4F8B0020269F4E7D4F8B002D8
:107D60004269F0E7D4F8B0028269ECE7D4F8B412C3
:107D70008B6B7BB1C1B26A462046984706E0207CF7
:107D800040B9D4F8B402416B6846884701460EE01A
:107D9000207C20B129462046FFF75FFDF8BDD4F8CE
:107DA000B402016B68468847014607204870BDF859
:107DB000000048B1EA8852B1824200D90246ADF8CB
:107DC00000202046FFF76EFDE8880028E6D1204617
:107DD000FFF775FDF8BD70B5002300281ED00446DE
:107DE000002502E06D1CEDB2641C2678002EF9D14E
:107DF000022404EB450414801278CA545B1C03224D
:107E0000CA5400245B1C06E0CA545B1CDAB28C54D2
:107E1000521CD3B2401C0278002AF5D170BD01007B
:107E20004FF0000004D0012901D0022901D0022026
:107E300070470120704710B580B1D0F8B43213B14B
:107E40000023C0F8B43209B1C0F8B012012180F8A3
:107E50009C12027000F0B2F8002010BD022010BD8C
:107E600010B5D0F8C002FEF7E5FABDE81040FFF704
:107E7000D6BF2DE9F0411746044651B1D4F8B402FB
:107E800042691AB194F89C02032851D00220BDE83F
:107E9000F081D4F89432002504F11400022B03D0B1
:107EA000042B3AD0C3B33CE0D0E903639E4207D928
:107EB000F11AC1608AB239462046FFF7C6FC12E0CB
:107EC0008068B0FBF3F103FB110199B9984211D31B
:107ED000D4F8981288420DD2002211462046FFF7AE
:107EE000B4FCC4F8985200231A461946204600F004
:107EF000ADF816E0D4F8B402C16829B194F89C0238
:107F0000032801D1204688478021204600F01EF931
:107F10002046FFF7BCFC04E0FFE78021204600F08C
:107F200015F994F8A002012804D184F8A05201E0C8
:107F3000204690470020AAE770B51546044649B18F
:107F4000D4F8B40282691AB194F89C02032830D0A4
:107F5000022070BDD4F8941204F5AA70032902D04F
:107F600005291ED027E0D0E903218A420BD9531AF4
:107F7000C3600846834200D303469AB2294620468E
:107F8000FFF75BFC17E0D4F8B402016929B194F85B
:107F90009C02032801D1204688472046FFF78FFC2A
:107FA00009E000200146C4F89402204600F0CEF813
:107FB00001E020469047002070BD000010B5134935
:107FC0000446C1F8E802C0F8C01211480860082051
:107FD00048600220886000208861C8610862084605
:107FE000FEF7A8FD08B1FDF70EFF00221823114689
:107FF000D4F8C002FEF7ECF9582300228021D4F80F
:10800000C002FEF7E5F9002010BD0000C8090020FD
:10801000005C00400A0601F07F01D0F8C00201EBCD
:10802000810100EBC10002D590F82A00704790F85A
:108030006A01704710B51C461346D0F8C0022246AC
:10804000FEF731FCBDE81040FFF7E9BE10B5D0F8EF
:10805000C002FEF758FCBDE81040FFF7E0BE70B567
:108060000022044640231146FFF7E4FF4026012585
:10807000C4F864613346002280212046C4F8585178
:10808000FFF7D8FF6662A56184F89C520020C4F80F
:1080900094026060C4F8A402D4F8B80228B1D4F8FD
:1080A000B4020021426820469047002070BD90F83D
:1080B0009C12042903D190F89D1280F89C12002094
:1080C000704710B590F89C12032904D1D0F8B4126F
:1080D000C96901B18847002010BD017400207047B4
:1080E00010B5D0F8C002FEF7CCFDBDE81040FFF798
:1080F00096BE70B5044600F52A70054600F053F8A8
:108100000120C4F89402B4F8AE02C4F8980294F8BE
:10811000A80210F01F010AD001290DD0022910D0A9
:1081200000F08001204600F011F8002070BD2946C3
:10813000204600F0A6F8F8E72946204600F0D2F9DC
:10814000F3E72946204600F025F9EEE710B5D0F810
:10815000C002FEF7F1FBBDE81040FFF760BE10B5AE
:10816000D0F8C002FEF7A8FDBDE81040FFF757BEEB
:1081700010B5D0F8C002FEF7B8FDBDE81040FFF71B
:108180004EBE90F89C1280F89D12042180F89C123B
:108190000020704710B5D0F8C002FEF706FCBDE81D
:1081A0001040FFF73CBE0A7802704A7842708A7825
:1081B000CB7802EB032242800A794B7902EB03224F
:1081C00082808A79C97902EB0121C1807047024619
:1081D000002011B1C2F8B41270470220704710B5E8
:1081E000D0F8B42202241AB11268904700B90024D2
:1081F000204610BD70B50E461E4D89780446297084
:10820000012931D894F89C0202280BD003280FD002
:1082100031462046FFF721FB29782046BDE8704013
:10822000FFF704BBD9B10320616084F89C0209E028
:1082300071B16068884212D0C1B22046FFF7F6FAE9
:10824000297861602046FFF7CAFF02280CD006E0BB
:10825000022084F89C0220466160FFF7E7FA20467E
:10826000BDE87040FFF72BBB31462046BDE87040AB
:10827000FFF7F3BA7C00002010B5FFF770FF002075
:1082800010BD2DE9F0410A78002612F0600208D0F6
:10829000202A01D0402A70D1D0F8B42292689047A9
:1082A0006DE04B78002201250A2B66D2DFE803F04F
:1082B000405D6557650805652C29FFF70FFD5EE0F9
:1082C00004468888D8B9C888C8B94888802816D292
:1082D00000F07F0794F89C02032810D084F89E7267
:1082E00039462046FFF7FCFE2046FFF7E8FA1FB1AB
:1082F000022084F89C0242E084F89C523FE0204631
:108300003BE0FFF777FF3AE0CB88012B35D190F8BF
:108310009C32012B04D0022B02D0032B2DD104E080
:108320008260012200F1080116E00122011D13E024
:1083300090F89C22012A03D0022A01D0032A1CD1E2
:10834000CA88022A19D1C560D0F8A41209B1032144
:10835000C160022200F10C01FFF7A4FA0FE0498886
:1083600001290CD1C0F8A45211E090F89C32012BE5
:1083700008D0022B06D0032B04D0FFF76EFA30464C
:10838000BDE8F08149880129F9D1C0F8A422FFF79E
:1083900096FAF4E72DE9F0410A46044610780027E2
:1083A000097910F060030AD0202B01D0402B50D166
:1083B000D4F8B40211468368204698478FE0C0F392
:1083C0004110012806D05078D0B301282AD00328C4
:1083D0003FD107E0D4F8B402114683682046BDE8D7
:1083E000F041184794F89C02022802D0032872D169
:1083F0000AE071B380296ED02046FFF7A7FE8021E6
:108400002046FFF7A3FE6AE0508838B931B18029D1
:1084100004D0D08810B92046FFF798FE2046FFF719
:108420004EFA5CE094F89C020228E2D0032852D174
:10843000508898BB4806F1D02046FFF711FDEDE7C4
:10844000FFE794F89C020026022803D0032842D1BB
:1084500012E040E009B180293DD1080601F07F001B
:1084600000EB800004EB800101D5143101E001F53F
:10847000AA7102220E602AE0080601F00F0000EB4C
:10848000800004EB80000AD5806920B301F07F00F2
:1084900000EB800004EB800514350BE01FE0D0F802
:1084A0005801C0B101F07F0000EB800004EB8005B3
:1084B00005F5AA7541B1802906D02046FFF7AAFD2F
:1084C00010B10120286000E02E60022229462046DB
:1084D000FFF7E8F903E011462046FFF7BEF93846FA
:1084E000BDE8F08170B5054608780C4610F06000D4
:1084F00003D0202801D0402816D195F89C020128ED
:1085000003D0022801D003280ED1207901280BD8EE
:10851000D5F8B402826828469047E188014306D125
:108520002846FFF7CCF902E02846FFF796F900202D
:1085300070BD10B504460179D0F8B40242682046F7
:1085400090472046FFF714FE002010BD7047000042
:1085500000487047A80500202DE9F0470C78002658
:1085600030F8243048F68F121340CA78002A7DD0A4
:10857000012A7CD0022A02D0032A7FD0012648F2A9
:108580008002134320F824300D7830F8254048F657
:108590008F731C402C43144320F825400D7B48F278
:1085A000C00C48F6BF744CF280074BF68F79EDB3E0
:1085B00091F80080C24630F8285048F280181D40DB
:1085C00045EA080520F82A50B0F8505091F800808C
:1085D000054405EB0815B1F8088028F00108A5F856
:1085E0000084B0F8505091F80080054405EB081560
:1085F000B1F80A8028F00108A5F808844D78002D0C
:108600000D7830F825804FEA48487DD0B8F1000F4A
:1086100007DA30F8258008EA030848EA070820F856
:1086200025800F7830F827506D0600E02CE006D545
:1086300030F827501D4045EA0C0520F82750CB782C
:108640000D78012B30F8253003EA040301D083F0C4
:108650002003134320F825300B7830F8231001EA6B
:108660000901114320F82310304602E003E008E03E
:1086700004E0BDE8F08743F4007380E743F4C0638F
:108680007DE743F480637AE74D782DB3B0F850501E
:108690000F78054405EB0715CF8827F00107A5F8EB
:1086A00000740F7830F827506D0606D530F8275043
:1086B0001D4045EA0C0520F82750CB78012B06D049
:1086C0000B7830F82310214081F02001C9E70B78A6
:1086D00030F823102140C4E7B0F850400D7804442E
:1086E00004EB0514CD8825F00105A4F80854B0F872
:1086F00050400D78044404EB05140D6904F20C4459
:1087000075B13E2D14D800E030E04FEA550CED076E
:1087100001D00CF1010C4FF6FF7505EA8C2511E034
:10872000258825F4F8452580258845F4004509E08D
:108730004FEA551CED0601D1ACF1010C4FF4004598
:1087400045EA8C2525800D7830F82540640405D550
:1087500030F825401C403C4320F825400B7830F889
:10876000231001EA090181F440517AE7B8F1000FC2
:1087700007DA30F8258008EA030848EA070820F8F5
:1087800025800F7830F827506D0606D530F8275031
:108790001D4045EA0C0520F827500D7830F82530AB
:1087A00003EA090383F44053134320F825308EE78E
:1087B000002070470020704700207047012120F8FA
:1087C000401F00210180818001820846704730F8F7
:1087D000401F21F43F410180002070470020704776
:1087E00030B50A7BB2BB4A7848F68F7548F28004F0
:1087F000C2B10B7830F82320520607D530F8232079
:108800002A4048F2C0052A4320F82320CA78012ACA
:1088100020D00A7830F8221048F6BF73194081F052
:10882000200114E00A7830F822305B0407D530F8D4
:1088300022302B404CF280052B4320F822300A785E
:1088400030F822104BF68F73194081F440512143C8
:1088500020F82210002030BD10B54A780978002A8F
:1088600048F2800330F8212005D048F6BF7422403A
:1088700082F0100204E04BF68F74224082F48052A2
:108880001A4320F82120002010BD00002DE9F047F8
:108890000E464B78097B04464FF0000948F68F726C
:1088A00048F2800A4FF6FF774FF40048012B09D0B9
:1088B00000296ED0F07802286CD001286BD00120FE
:1088C000BDE8F087B5693069854200D90546C9B170
:1088D000F17848F28013022923D0317834F821004E
:1088E0001040184324F82100306A401B3062307871
:1088F00034F82010490671787ED500297DD00129F1
:108900007CD03FE1ABB2F2882046716900F0F6FA04
:10891000B4F850003178204400EB0110A0F8045462
:10892000EAE0316A81426AD9317834F82100104096
:10893000184324F82100306A401B3062307834F844
:108940002010490671786CD511B1012924D02AE094
:10895000B4F85010214401EB001000F20C404DB16E
:108960003E2D0FD86908EA0700D0491C07EA81218B
:10897000018018E0018821F4F8410180018841F468
:108980000041F5E76909EA0600D1491E48EA81215C
:10899000EEE79CE1BCE126E2B4F85020111901EBAE
:1089A0000010A0F80C547289ABB22046716900F037
:1089B000A5FA7069284470613169306A884202D929
:1089C000401B306202E00546C6F82090707800280F
:1089D0007CD1B4F850003178204400EB011000F253
:1089E00004406DB13E2D13D86908EA0700D0491C38
:1089F00007EA8121018012E001E19BE0BBE084E015
:108A0000018821F4F8410180018841F40041F1E737
:108A10006909EA0600D1491E48EA8121EAE732895C
:108A200065E011B1012921D027E0B4F850102144AC
:108A300001EB001000F204404DB13E2D0FD8690843
:108A4000EA0700D0491C07EA8121018015E001886E
:108A500021F4F8410180018841F40041F5E76909FA
:108A6000EA0600D1491E48EA8121EEE7B4F8501029
:108A7000214401EB0010A0F804543289ABB2204627
:108A8000716900F03BFA7069284470613169306A9D
:108A9000884202D9401B306202E00546C6F82090A9
:108AA000707800287ED1B4F850003178204400EB73
:108AB000011000F20C4055B13E2D10D86908EA07AC
:108AC00000D0491C07EA812101800FE072E0018893
:108AD00021F4F8410180018841F40041F4E769097B
:108AE000EA0600D1491E48EA8121EDE77289ABB25E
:108AF0002046716900F002FA317834F8210048F616
:108B0000BF72104080F03000C0E1327834F82200AB
:108B100048F68F63184040EA0A0024F82200B4F8AF
:108B200050003278204400EB02108BB2A0F80434DD
:108B30003289DDE7B4F85010214401EB001000F257
:108B40000C404DB13E2D0FD86908EA0700D0491CF2
:108B500007EA8121018015E0018821F4F8410180B4
:108B6000018841F40041F5E76909EA0600D1491E90
:108B700048EA8121EEE7B4F85020111901EB00100A
:108B8000A0F80C547289ABB22046716900F0B6F9B6
:108B90007069284470613169306A884203D9401B8A
:108BA000306203E06EE00546C6F82090002DA3D0A9
:108BB000707858B101287FF41EAFB4F850003178B6
:108BC000204400EB0110A0F8045428E7B4F850004A
:108BD0003178204400EB011101F204413E2D06D80A
:108BE0006808EA0700D0401C07EA802005E0680911
:108BF000EA0600D1401E48EA802008800FE711B144
:108C0000012921D027E0B4F85010214401EB0010D5
:108C100000F204404DB13E2D0FD86908EA0700D09C
:108C2000491C07EA8121018015E0018821F4F841FF
:108C30000180018841F40041F5E76909EA0600D1A5
:108C4000491E48EA8121EEE7B4F85010214401EBB7
:108C50000010A0F804543289ABB22046716900F0CC
:108C60004DF97069284470613169306A884202D9CF
:108C7000401B306202E00546C6F82090002D96D0D9
:108C8000707858B101287FF420AFB4F8501008195B
:108C9000317800EB0110A0F80C5427E7B4F850002D
:108CA0003178204400EB011101F20C413E2D06D831
:108CB0006808EA0700D0401C07EA802005E0680940
:108CC000EA0600D1401E48EA802008800EE7B1691C
:108CD0003069814202D9091AB161B5E00846C6F887
:108CE0001890B1E0088820F4F8400880088840F423
:108CF00000400BE03E2875D84208C00700D0521C47
:108D000007EA822002E000BF48EA82200880B5E03E
:108D100093B9B4F850003178204400EB0110316968
:108D200000F2044069B13E2913D84B08C90700D0AE
:108D30005B1C07EA83210180707888B1012832D05A
:108D40003AE0018821F4F8410180018841F40041B2
:108D5000F1E74B09C90600D15B1E48EA8321EAE727
:108D6000B4F850003178204400EB0110316900F272
:108D70000C4049B13E290FD84B08C90700D05B1CF5
:108D800007EA8321018017E0018821F4F84101807E
:108D9000018841F40041F5E74B09C90600D15B1E8B
:108DA00048EA8321EEE7B4F850100819317800EB57
:108DB0000110318AA0F80C14F069A8B3317834F8A6
:108DC0002100430401D5430603D444F24003184272
:108DD00054D134F82100104048F2C002104324F866
:108DE00021004BE03CE0B1693069814202D9091AA7
:108DF000B16102E00846C6F818908BB9B4F850107B
:108E00003278214401EB021101F2044168B13E289D
:108E100013D84208C30700D0521C07EA82220A80F6
:108E2000717889B1012921D028E00A8822F4F8421A
:108E30000A800A8842F40042F1E74209C30600D1E1
:108E4000521E48EA8222EAE7B4F8501032782144F0
:108E500001EB021101F20C4100287FF44BAF41E716
:108E60004209C0067FF450AF521E4DE7B4F85020BF
:108E70001119327801EB0211A1F80C04317834F8A1
:108E800021004BF68F72104080F4405040EA0A00F7
:108E900024F82100002013E50021A0F844104FF42D
:108EA0003F41A0F840100020704700000148FDF746
:108EB00096BD0000C8090020B0F8440070470000CB
:108EC00010B500EB42005C0800F5806009D000BFDF
:108ED00030F8042B01F8012B120A01F8012B641E53
:108EE000F6D1DA0701D00088087010BD0020704765
:108EF00011B98021A0F84C100020704710B55B1C00
:108F000000EB42005B0800F5806009D011F8012BEE
:108F100011F8014B42EA042220F8042B5B1EF5D124
:108F200010BDFEE70907090E002804DB00F1E02070
:108F300080F80014704700F00F0000F1E02080F886
:108F4000141D7047FDF7B4F9FEF734FCFEF742FA42
:108F5000FEF776FA4FF400610948FDF795F960B91C
:108F600008490868084A1040B0F1005F05D1081DA3
:108F70000068096881F308888047FEF761FAFEE718
:108F8000000C01400058000800B0FF2F0000000056
:108F900000000000010203040607080940496E743E
:108FA00065726E616C20466C617368202F3078307A
:108FB000383030303030302F32322A3030314B615F
:108FC0002C34322A3030314B67000000EC8F00081F
:108FD00000000020E400000028590008D09000089C
:108FE000E4000020541D0000445900080D7C0008D6
:108FF0003D7C0008497C0008717C0008A57C0008C5
:10900000ED7B0008197C000804030904120100022A
:1090100000000040830411DF000201020301000090
:109020001A03000000000000000000000000000023
:109030000000000000000000000000009C8F0008FD
:109040007F7300084973000853730008A173000878
:10905000897300087373000801000000100000000D
:10906000000000000024F40000000000397A00082D
:10907000DD780008997A00081F7900081B7900083C
:10908000D5780008D9780008937A0008817A00081A
:10909000857A0008017A0008017A0008017A000840
:1090A0000D7A0008197A000809021B00010102C0AC
:1090B000320904000000FE01020609210BFF000036
:1090C000041A01000A06000200000040010000002E
:04000005080058EDAA
:00000001FF
